
BreakItOut.elf:     file format elf32-littlearm

Sections:
Idx Name          Size      VMA       LMA       File off  Algn
  0 .text         0000d420  00000000  00000000  00010000  2**2
                  CONTENTS, ALLOC, LOAD, READONLY, CODE
  1 .relocate     00001adc  20000000  0000d420  00020000  2**3
                  CONTENTS, ALLOC, LOAD, DATA
  2 .bss          00000cf4  20001ae0  0000ef00  00021adc  2**3
                  ALLOC
  3 .stack        00002004  200027d4  0000fbf4  00021adc  2**0
                  ALLOC
  4 .ARM.attributes 00000028  00000000  00000000  00021adc  2**0
                  CONTENTS, READONLY
  5 .comment      00000059  00000000  00000000  00021b04  2**0
                  CONTENTS, READONLY
  6 .debug_info   0002e945  00000000  00000000  00021b5d  2**0
                  CONTENTS, READONLY, DEBUGGING
  7 .debug_abbrev 00002715  00000000  00000000  000504a2  2**0
                  CONTENTS, READONLY, DEBUGGING
  8 .debug_loc    000033a6  00000000  00000000  00052bb7  2**0
                  CONTENTS, READONLY, DEBUGGING
  9 .debug_aranges 00000918  00000000  00000000  00055f5d  2**0
                  CONTENTS, READONLY, DEBUGGING
 10 .debug_ranges 00000818  00000000  00000000  00056875  2**0
                  CONTENTS, READONLY, DEBUGGING
 11 .debug_macro  00015792  00000000  00000000  0005708d  2**0
                  CONTENTS, READONLY, DEBUGGING
 12 .debug_line   00009192  00000000  00000000  0006c81f  2**0
                  CONTENTS, READONLY, DEBUGGING
 13 .debug_str    0007ac66  00000000  00000000  000759b1  2**0
                  CONTENTS, READONLY, DEBUGGING
 14 .debug_frame  00002894  00000000  00000000  000f0618  2**2
                  CONTENTS, READONLY, DEBUGGING

Disassembly of section .text:

00000000 <exception_table>:
       0:	d8 47 00 20 75 1a 00 00 fd 19 00 00 6d 1b 00 00     .G. u.......m...
	...
      2c:	6d 1b 00 00 00 00 00 00 00 00 00 00 6d 1b 00 00     m...........m...
      3c:	f9 5e 00 00 6d 1b 00 00 6d 1b 00 00 6d 1b 00 00     .^..m...m...m...
      4c:	6d 1b 00 00 91 19 00 00 6d 1b 00 00 6d 1b 00 00     m.......m...m...
      5c:	6d 1b 00 00 6d 1b 00 00 6d 1b 00 00 6d 1b 00 00     m...m...m...m...
      6c:	6d 1b 00 00 61 21 00 00 71 5d 00 00 6d 1b 00 00     m...a!..q]..m...
      7c:	6d 1b 00 00 6d 1b 00 00 6d 1b 00 00 71 63 00 00     m...m...m...qc..
      8c:	6d 1b 00 00 6d 1b 00 00 00 00 00 00 00 00 00 00     m...m...........
      9c:	2d 09 00 00 6d 1b 00 00 6d 1b 00 00 6d 1b 00 00     -...m...m...m...
      ac:	6d 1b 00 00 00 00 00 00                             m.......

000000b4 <__do_global_dtors_aux>:
      b4:	b510      	push	{r4, lr}
      b6:	4c06      	ldr	r4, [pc, #24]	; (d0 <__do_global_dtors_aux+0x1c>)
      b8:	7823      	ldrb	r3, [r4, #0]
      ba:	2b00      	cmp	r3, #0
      bc:	d107      	bne.n	ce <__do_global_dtors_aux+0x1a>
      be:	4b05      	ldr	r3, [pc, #20]	; (d4 <__do_global_dtors_aux+0x20>)
      c0:	2b00      	cmp	r3, #0
      c2:	d002      	beq.n	ca <__do_global_dtors_aux+0x16>
      c4:	4804      	ldr	r0, [pc, #16]	; (d8 <__do_global_dtors_aux+0x24>)
      c6:	e000      	b.n	ca <__do_global_dtors_aux+0x16>
      c8:	bf00      	nop
      ca:	2301      	movs	r3, #1
      cc:	7023      	strb	r3, [r4, #0]
      ce:	bd10      	pop	{r4, pc}
      d0:	20001ae0 	.word	0x20001ae0
      d4:	00000000 	.word	0x00000000
      d8:	0000d420 	.word	0x0000d420

000000dc <frame_dummy>:
      dc:	4b08      	ldr	r3, [pc, #32]	; (100 <frame_dummy+0x24>)
      de:	b510      	push	{r4, lr}
      e0:	2b00      	cmp	r3, #0
      e2:	d003      	beq.n	ec <frame_dummy+0x10>
      e4:	4907      	ldr	r1, [pc, #28]	; (104 <frame_dummy+0x28>)
      e6:	4808      	ldr	r0, [pc, #32]	; (108 <frame_dummy+0x2c>)
      e8:	e000      	b.n	ec <frame_dummy+0x10>
      ea:	bf00      	nop
      ec:	4807      	ldr	r0, [pc, #28]	; (10c <frame_dummy+0x30>)
      ee:	6803      	ldr	r3, [r0, #0]
      f0:	2b00      	cmp	r3, #0
      f2:	d100      	bne.n	f6 <frame_dummy+0x1a>
      f4:	bd10      	pop	{r4, pc}
      f6:	4b06      	ldr	r3, [pc, #24]	; (110 <frame_dummy+0x34>)
      f8:	2b00      	cmp	r3, #0
      fa:	d0fb      	beq.n	f4 <frame_dummy+0x18>
      fc:	4798      	blx	r3
      fe:	e7f9      	b.n	f4 <frame_dummy+0x18>
     100:	00000000 	.word	0x00000000
     104:	20001ae4 	.word	0x20001ae4
     108:	0000d420 	.word	0x0000d420
     10c:	0000d420 	.word	0x0000d420
     110:	00000000 	.word	0x00000000

00000114 <NVIC_EnableIRQ>:
		if(retval >= -0.015)
			retval = 0;
	}
	
	return retval;
}
     114:	b580      	push	{r7, lr}
     116:	b082      	sub	sp, #8
     118:	af00      	add	r7, sp, #0
     11a:	0002      	movs	r2, r0
     11c:	1dfb      	adds	r3, r7, #7
     11e:	701a      	strb	r2, [r3, #0]
     120:	4b06      	ldr	r3, [pc, #24]	; (13c <NVIC_EnableIRQ+0x28>)
     122:	1dfa      	adds	r2, r7, #7

    \param [in]      IRQn  External interrupt number. Value cannot be negative.
 */
__STATIC_INLINE void NVIC_EnableIRQ(IRQn_Type IRQn)
{
  NVIC->ISER[0] = (1 << ((uint32_t)(IRQn) & 0x1F));
     124:	7812      	ldrb	r2, [r2, #0]
     126:	0011      	movs	r1, r2
     128:	221f      	movs	r2, #31
     12a:	400a      	ands	r2, r1
     12c:	2101      	movs	r1, #1
     12e:	4091      	lsls	r1, r2
     130:	000a      	movs	r2, r1
     132:	601a      	str	r2, [r3, #0]
}
     134:	46c0      	nop			; (mov r8, r8)
     136:	46bd      	mov	sp, r7
     138:	b002      	add	sp, #8
     13a:	bd80      	pop	{r7, pc}
     13c:	e000e100 	.word	0xe000e100

00000140 <NVIC_DisableIRQ>:
    The function disables a device-specific interrupt in the NVIC interrupt controller.

    \param [in]      IRQn  External interrupt number. Value cannot be negative.
 */
__STATIC_INLINE void NVIC_DisableIRQ(IRQn_Type IRQn)
{
     140:	b580      	push	{r7, lr}
     142:	b082      	sub	sp, #8
     144:	af00      	add	r7, sp, #0
     146:	0002      	movs	r2, r0
     148:	1dfb      	adds	r3, r7, #7
     14a:	701a      	strb	r2, [r3, #0]
  NVIC->ICER[0] = (1 << ((uint32_t)(IRQn) & 0x1F));
     14c:	4a07      	ldr	r2, [pc, #28]	; (16c <NVIC_DisableIRQ+0x2c>)
     14e:	1dfb      	adds	r3, r7, #7
     150:	781b      	ldrb	r3, [r3, #0]
     152:	0019      	movs	r1, r3
     154:	231f      	movs	r3, #31
     156:	400b      	ands	r3, r1
     158:	2101      	movs	r1, #1
     15a:	4099      	lsls	r1, r3
     15c:	000b      	movs	r3, r1
     15e:	0019      	movs	r1, r3
     160:	2380      	movs	r3, #128	; 0x80
     162:	50d1      	str	r1, [r2, r3]
}
     164:	46c0      	nop			; (mov r8, r8)
     166:	46bd      	mov	sp, r7
     168:	b002      	add	sp, #8
     16a:	bd80      	pop	{r7, pc}
     16c:	e000e100 	.word	0xe000e100

00000170 <NVIC_ClearPendingIRQ>:
    The function clears the pending bit of an external interrupt.

    \param [in]      IRQn  External interrupt number. Value cannot be negative.
 */
__STATIC_INLINE void NVIC_ClearPendingIRQ(IRQn_Type IRQn)
{
     170:	b580      	push	{r7, lr}
     172:	b082      	sub	sp, #8
     174:	af00      	add	r7, sp, #0
     176:	0002      	movs	r2, r0
     178:	1dfb      	adds	r3, r7, #7
     17a:	701a      	strb	r2, [r3, #0]
  NVIC->ICPR[0] = (1 << ((uint32_t)(IRQn) & 0x1F)); /* Clear pending interrupt */
     17c:	4a08      	ldr	r2, [pc, #32]	; (1a0 <NVIC_ClearPendingIRQ+0x30>)
     17e:	1dfb      	adds	r3, r7, #7
     180:	781b      	ldrb	r3, [r3, #0]
     182:	0019      	movs	r1, r3
     184:	231f      	movs	r3, #31
     186:	400b      	ands	r3, r1
     188:	2101      	movs	r1, #1
     18a:	4099      	lsls	r1, r3
     18c:	000b      	movs	r3, r1
     18e:	0019      	movs	r1, r3
     190:	23c0      	movs	r3, #192	; 0xc0
     192:	005b      	lsls	r3, r3, #1
     194:	50d1      	str	r1, [r2, r3]
}
     196:	46c0      	nop			; (mov r8, r8)
     198:	46bd      	mov	sp, r7
     19a:	b002      	add	sp, #8
     19c:	bd80      	pop	{r7, pc}
     19e:	46c0      	nop			; (mov r8, r8)
     1a0:	e000e100 	.word	0xe000e100

000001a4 <NVIC_SetPriority>:

    \param [in]      IRQn  Interrupt number.
    \param [in]  priority  Priority to set.
 */
__STATIC_INLINE void NVIC_SetPriority(IRQn_Type IRQn, uint32_t priority)
{
     1a4:	b5b0      	push	{r4, r5, r7, lr}
     1a6:	b082      	sub	sp, #8
     1a8:	af00      	add	r7, sp, #0
     1aa:	0002      	movs	r2, r0
     1ac:	6039      	str	r1, [r7, #0]
     1ae:	1dfb      	adds	r3, r7, #7
     1b0:	701a      	strb	r2, [r3, #0]
  if(IRQn < 0) {
     1b2:	1dfb      	adds	r3, r7, #7
     1b4:	781b      	ldrb	r3, [r3, #0]
     1b6:	2b7f      	cmp	r3, #127	; 0x7f
     1b8:	d932      	bls.n	220 <NVIC_SetPriority+0x7c>
    SCB->SHP[_SHP_IDX(IRQn)] = (SCB->SHP[_SHP_IDX(IRQn)] & ~(0xFF << _BIT_SHIFT(IRQn))) |
     1ba:	4c2f      	ldr	r4, [pc, #188]	; (278 <NVIC_SetPriority+0xd4>)
     1bc:	1dfb      	adds	r3, r7, #7
     1be:	781b      	ldrb	r3, [r3, #0]
     1c0:	001a      	movs	r2, r3
     1c2:	230f      	movs	r3, #15
     1c4:	4013      	ands	r3, r2
     1c6:	3b08      	subs	r3, #8
     1c8:	0899      	lsrs	r1, r3, #2
     1ca:	4a2b      	ldr	r2, [pc, #172]	; (278 <NVIC_SetPriority+0xd4>)
     1cc:	1dfb      	adds	r3, r7, #7
     1ce:	781b      	ldrb	r3, [r3, #0]
     1d0:	0018      	movs	r0, r3
     1d2:	230f      	movs	r3, #15
     1d4:	4003      	ands	r3, r0
     1d6:	3b08      	subs	r3, #8
     1d8:	089b      	lsrs	r3, r3, #2
     1da:	3306      	adds	r3, #6
     1dc:	009b      	lsls	r3, r3, #2
     1de:	18d3      	adds	r3, r2, r3
     1e0:	3304      	adds	r3, #4
     1e2:	681b      	ldr	r3, [r3, #0]
     1e4:	1dfa      	adds	r2, r7, #7
     1e6:	7812      	ldrb	r2, [r2, #0]
     1e8:	0010      	movs	r0, r2
     1ea:	2203      	movs	r2, #3
     1ec:	4002      	ands	r2, r0
     1ee:	00d2      	lsls	r2, r2, #3
     1f0:	20ff      	movs	r0, #255	; 0xff
     1f2:	4090      	lsls	r0, r2
     1f4:	0002      	movs	r2, r0
     1f6:	43d2      	mvns	r2, r2
     1f8:	401a      	ands	r2, r3
        (((priority << (8 - __NVIC_PRIO_BITS)) & 0xFF) << _BIT_SHIFT(IRQn)); }
     1fa:	683b      	ldr	r3, [r7, #0]
     1fc:	019b      	lsls	r3, r3, #6
     1fe:	20ff      	movs	r0, #255	; 0xff
     200:	4018      	ands	r0, r3
     202:	1dfb      	adds	r3, r7, #7
     204:	781b      	ldrb	r3, [r3, #0]
     206:	001d      	movs	r5, r3
     208:	2303      	movs	r3, #3
     20a:	402b      	ands	r3, r5
     20c:	00db      	lsls	r3, r3, #3
     20e:	4098      	lsls	r0, r3
     210:	0003      	movs	r3, r0
    SCB->SHP[_SHP_IDX(IRQn)] = (SCB->SHP[_SHP_IDX(IRQn)] & ~(0xFF << _BIT_SHIFT(IRQn))) |
     212:	431a      	orrs	r2, r3
     214:	1d8b      	adds	r3, r1, #6
     216:	009b      	lsls	r3, r3, #2
     218:	18e3      	adds	r3, r4, r3
     21a:	3304      	adds	r3, #4
     21c:	601a      	str	r2, [r3, #0]
  else {
    NVIC->IP[_IP_IDX(IRQn)] = (NVIC->IP[_IP_IDX(IRQn)] & ~(0xFF << _BIT_SHIFT(IRQn))) |
        (((priority << (8 - __NVIC_PRIO_BITS)) & 0xFF) << _BIT_SHIFT(IRQn)); }
}
     21e:	e027      	b.n	270 <NVIC_SetPriority+0xcc>
    NVIC->IP[_IP_IDX(IRQn)] = (NVIC->IP[_IP_IDX(IRQn)] & ~(0xFF << _BIT_SHIFT(IRQn))) |
     220:	4c16      	ldr	r4, [pc, #88]	; (27c <NVIC_SetPriority+0xd8>)
     222:	1dfb      	adds	r3, r7, #7
     224:	781b      	ldrb	r3, [r3, #0]
     226:	b25b      	sxtb	r3, r3
     228:	089b      	lsrs	r3, r3, #2
     22a:	4914      	ldr	r1, [pc, #80]	; (27c <NVIC_SetPriority+0xd8>)
     22c:	1dfa      	adds	r2, r7, #7
     22e:	7812      	ldrb	r2, [r2, #0]
     230:	b252      	sxtb	r2, r2
     232:	0892      	lsrs	r2, r2, #2
     234:	32c0      	adds	r2, #192	; 0xc0
     236:	0092      	lsls	r2, r2, #2
     238:	5852      	ldr	r2, [r2, r1]
     23a:	1df9      	adds	r1, r7, #7
     23c:	7809      	ldrb	r1, [r1, #0]
     23e:	0008      	movs	r0, r1
     240:	2103      	movs	r1, #3
     242:	4001      	ands	r1, r0
     244:	00c9      	lsls	r1, r1, #3
     246:	20ff      	movs	r0, #255	; 0xff
     248:	4088      	lsls	r0, r1
     24a:	0001      	movs	r1, r0
     24c:	43c9      	mvns	r1, r1
     24e:	4011      	ands	r1, r2
        (((priority << (8 - __NVIC_PRIO_BITS)) & 0xFF) << _BIT_SHIFT(IRQn)); }
     250:	683a      	ldr	r2, [r7, #0]
     252:	0192      	lsls	r2, r2, #6
     254:	20ff      	movs	r0, #255	; 0xff
     256:	4010      	ands	r0, r2
     258:	1dfa      	adds	r2, r7, #7
     25a:	7812      	ldrb	r2, [r2, #0]
     25c:	0015      	movs	r5, r2
     25e:	2203      	movs	r2, #3
     260:	402a      	ands	r2, r5
     262:	00d2      	lsls	r2, r2, #3
     264:	4090      	lsls	r0, r2
     266:	0002      	movs	r2, r0
    NVIC->IP[_IP_IDX(IRQn)] = (NVIC->IP[_IP_IDX(IRQn)] & ~(0xFF << _BIT_SHIFT(IRQn))) |
     268:	430a      	orrs	r2, r1
     26a:	33c0      	adds	r3, #192	; 0xc0
     26c:	009b      	lsls	r3, r3, #2
     26e:	511a      	str	r2, [r3, r4]
}
     270:	46c0      	nop			; (mov r8, r8)
     272:	46bd      	mov	sp, r7
     274:	b002      	add	sp, #8
     276:	bdb0      	pop	{r4, r5, r7, pc}
     278:	e000ed00 	.word	0xe000ed00
     27c:	e000e100 	.word	0xe000e100

00000280 <accelerometer_init>:
{
     280:	b590      	push	{r4, r7, lr}
     282:	b083      	sub	sp, #12
     284:	af00      	add	r7, sp, #0
	sensor.id = BMI160_I2C_ADDR;
     286:	4b24      	ldr	r3, [pc, #144]	; (318 <accelerometer_init+0x98>)
     288:	2268      	movs	r2, #104	; 0x68
     28a:	705a      	strb	r2, [r3, #1]
	sensor.interface = BMI160_I2C_INTF;
     28c:	4b22      	ldr	r3, [pc, #136]	; (318 <accelerometer_init+0x98>)
     28e:	2200      	movs	r2, #0
     290:	709a      	strb	r2, [r3, #2]
	sensor.read = user_i2c_read;
     292:	4b21      	ldr	r3, [pc, #132]	; (318 <accelerometer_init+0x98>)
     294:	4a21      	ldr	r2, [pc, #132]	; (31c <accelerometer_init+0x9c>)
     296:	61da      	str	r2, [r3, #28]
	sensor.write = user_i2c_write;
     298:	4b1f      	ldr	r3, [pc, #124]	; (318 <accelerometer_init+0x98>)
     29a:	4a21      	ldr	r2, [pc, #132]	; (320 <accelerometer_init+0xa0>)
     29c:	621a      	str	r2, [r3, #32]
	sensor.delay_ms = user_delay_ms;
     29e:	4b1e      	ldr	r3, [pc, #120]	; (318 <accelerometer_init+0x98>)
     2a0:	4a20      	ldr	r2, [pc, #128]	; (324 <accelerometer_init+0xa4>)
     2a2:	625a      	str	r2, [r3, #36]	; 0x24
	int8_t rslt = BMI160_OK;
     2a4:	1dfb      	adds	r3, r7, #7
     2a6:	2200      	movs	r2, #0
     2a8:	701a      	strb	r2, [r3, #0]
	NVIC_DisableIRQ(SERCOM3_IRQn);
     2aa:	200c      	movs	r0, #12
     2ac:	4b1e      	ldr	r3, [pc, #120]	; (328 <accelerometer_init+0xa8>)
     2ae:	4798      	blx	r3
	retval = bmi160_init(&sensor);
     2b0:	4b19      	ldr	r3, [pc, #100]	; (318 <accelerometer_init+0x98>)
     2b2:	0018      	movs	r0, r3
     2b4:	4b1d      	ldr	r3, [pc, #116]	; (32c <accelerometer_init+0xac>)
     2b6:	4798      	blx	r3
     2b8:	0003      	movs	r3, r0
     2ba:	b2da      	uxtb	r2, r3
     2bc:	4b1c      	ldr	r3, [pc, #112]	; (330 <accelerometer_init+0xb0>)
     2be:	701a      	strb	r2, [r3, #0]
	sensor.accel_cfg.odr = BMI160_ACCEL_ODR_1600HZ;
     2c0:	4b15      	ldr	r3, [pc, #84]	; (318 <accelerometer_init+0x98>)
     2c2:	220c      	movs	r2, #12
     2c4:	715a      	strb	r2, [r3, #5]
	sensor.accel_cfg.range = BMI160_ACCEL_RANGE_2G;
     2c6:	4b14      	ldr	r3, [pc, #80]	; (318 <accelerometer_init+0x98>)
     2c8:	2203      	movs	r2, #3
     2ca:	719a      	strb	r2, [r3, #6]
	sensor.accel_cfg.bw = BMI160_ACCEL_BW_NORMAL_AVG4;
     2cc:	4b12      	ldr	r3, [pc, #72]	; (318 <accelerometer_init+0x98>)
     2ce:	2202      	movs	r2, #2
     2d0:	71da      	strb	r2, [r3, #7]
	sensor.accel_cfg.power = BMI160_ACCEL_NORMAL_MODE;
     2d2:	4b11      	ldr	r3, [pc, #68]	; (318 <accelerometer_init+0x98>)
     2d4:	2211      	movs	r2, #17
     2d6:	711a      	strb	r2, [r3, #4]
	rslt = bmi160_set_sens_conf(&sensor);
     2d8:	1dfc      	adds	r4, r7, #7
     2da:	4b0f      	ldr	r3, [pc, #60]	; (318 <accelerometer_init+0x98>)
     2dc:	0018      	movs	r0, r3
     2de:	4b15      	ldr	r3, [pc, #84]	; (334 <accelerometer_init+0xb4>)
     2e0:	4798      	blx	r3
     2e2:	0003      	movs	r3, r0
     2e4:	7023      	strb	r3, [r4, #0]
	SERCOM3->I2CM.INTENSET.bit.MB = 1;
     2e6:	4a14      	ldr	r2, [pc, #80]	; (338 <accelerometer_init+0xb8>)
     2e8:	7d93      	ldrb	r3, [r2, #22]
     2ea:	2101      	movs	r1, #1
     2ec:	430b      	orrs	r3, r1
     2ee:	7593      	strb	r3, [r2, #22]
	SERCOM3->I2CM.INTENSET.bit.SB = 1;
     2f0:	4a11      	ldr	r2, [pc, #68]	; (338 <accelerometer_init+0xb8>)
     2f2:	7d93      	ldrb	r3, [r2, #22]
     2f4:	2102      	movs	r1, #2
     2f6:	430b      	orrs	r3, r1
     2f8:	7593      	strb	r3, [r2, #22]
	NVIC_ClearPendingIRQ(SERCOM3_IRQn);
     2fa:	200c      	movs	r0, #12
     2fc:	4b0f      	ldr	r3, [pc, #60]	; (33c <accelerometer_init+0xbc>)
     2fe:	4798      	blx	r3
	NVIC_SetPriority(SERCOM3_IRQn, 3);
     300:	2103      	movs	r1, #3
     302:	200c      	movs	r0, #12
     304:	4b0e      	ldr	r3, [pc, #56]	; (340 <accelerometer_init+0xc0>)
     306:	4798      	blx	r3
	NVIC_EnableIRQ(SERCOM3_IRQn);
     308:	200c      	movs	r0, #12
     30a:	4b0e      	ldr	r3, [pc, #56]	; (344 <accelerometer_init+0xc4>)
     30c:	4798      	blx	r3
}
     30e:	46c0      	nop			; (mov r8, r8)
     310:	46bd      	mov	sp, r7
     312:	b003      	add	sp, #12
     314:	bd90      	pop	{r4, r7, pc}
     316:	46c0      	nop			; (mov r8, r8)
     318:	200026d0 	.word	0x200026d0
     31c:	00000375 	.word	0x00000375
     320:	000003cd 	.word	0x000003cd
     324:	00000349 	.word	0x00000349
     328:	00000141 	.word	0x00000141
     32c:	00000b51 	.word	0x00000b51
     330:	200026cc 	.word	0x200026cc
     334:	00000cb1 	.word	0x00000cb1
     338:	42001400 	.word	0x42001400
     33c:	00000171 	.word	0x00000171
     340:	000001a5 	.word	0x000001a5
     344:	00000115 	.word	0x00000115

00000348 <user_delay_ms>:
	get_accelerometer(axisVals);
}

//=============================================================================
void user_delay_ms(uint32_t ms)
{
     348:	b580      	push	{r7, lr}
     34a:	b084      	sub	sp, #16
     34c:	af00      	add	r7, sp, #0
     34e:	6078      	str	r0, [r7, #4]
	DelayMs(ms);
     350:	687b      	ldr	r3, [r7, #4]
     352:	4a07      	ldr	r2, [pc, #28]	; (370 <user_delay_ms+0x28>)
     354:	4353      	muls	r3, r2
     356:	08db      	lsrs	r3, r3, #3
     358:	60fb      	str	r3, [r7, #12]
     35a:	46c0      	nop			; (mov r8, r8)
     35c:	68fb      	ldr	r3, [r7, #12]
     35e:	1e5a      	subs	r2, r3, #1
     360:	60fa      	str	r2, [r7, #12]
     362:	2b00      	cmp	r3, #0
     364:	d1fa      	bne.n	35c <user_delay_ms+0x14>
}
     366:	46c0      	nop			; (mov r8, r8)
     368:	46bd      	mov	sp, r7
     36a:	b004      	add	sp, #16
     36c:	bd80      	pop	{r7, pc}
     36e:	46c0      	nop			; (mov r8, r8)
     370:	0000bb80 	.word	0x0000bb80

00000374 <user_i2c_read>:

//=============================================================================
int8_t user_i2c_read(uint8_t dev_addr, uint8_t reg_addr,
uint8_t *data, uint16_t length)
{
     374:	b590      	push	{r4, r7, lr}
     376:	b083      	sub	sp, #12
     378:	af00      	add	r7, sp, #0
     37a:	0004      	movs	r4, r0
     37c:	0008      	movs	r0, r1
     37e:	603a      	str	r2, [r7, #0]
     380:	0019      	movs	r1, r3
     382:	1dfb      	adds	r3, r7, #7
     384:	1c22      	adds	r2, r4, #0
     386:	701a      	strb	r2, [r3, #0]
     388:	1dbb      	adds	r3, r7, #6
     38a:	1c02      	adds	r2, r0, #0
     38c:	701a      	strb	r2, [r3, #0]
     38e:	1d3b      	adds	r3, r7, #4
     390:	1c0a      	adds	r2, r1, #0
     392:	801a      	strh	r2, [r3, #0]
	i2c_read_setup(dev_addr << 1, &reg_addr, 1);
     394:	1dfb      	adds	r3, r7, #7
     396:	781b      	ldrb	r3, [r3, #0]
     398:	18db      	adds	r3, r3, r3
     39a:	b2db      	uxtb	r3, r3
     39c:	1db9      	adds	r1, r7, #6
     39e:	2201      	movs	r2, #1
     3a0:	0018      	movs	r0, r3
     3a2:	4b08      	ldr	r3, [pc, #32]	; (3c4 <user_i2c_read+0x50>)
     3a4:	4798      	blx	r3
	i2c_read(dev_addr << 1,data,length);
     3a6:	1dfb      	adds	r3, r7, #7
     3a8:	781b      	ldrb	r3, [r3, #0]
     3aa:	18db      	adds	r3, r3, r3
     3ac:	b2d8      	uxtb	r0, r3
     3ae:	1d3b      	adds	r3, r7, #4
     3b0:	881a      	ldrh	r2, [r3, #0]
     3b2:	683b      	ldr	r3, [r7, #0]
     3b4:	0019      	movs	r1, r3
     3b6:	4b04      	ldr	r3, [pc, #16]	; (3c8 <user_i2c_read+0x54>)
     3b8:	4798      	blx	r3
	return BMI160_OK;
     3ba:	2300      	movs	r3, #0
}
     3bc:	0018      	movs	r0, r3
     3be:	46bd      	mov	sp, r7
     3c0:	b003      	add	sp, #12
     3c2:	bd90      	pop	{r4, r7, pc}
     3c4:	00001fc9 	.word	0x00001fc9
     3c8:	00002085 	.word	0x00002085

000003cc <user_i2c_write>:

//=============================================================================
int8_t user_i2c_write(uint8_t dev_addr, uint8_t reg_addr,
uint8_t *data, uint16_t length)
{
     3cc:	b590      	push	{r4, r7, lr}
     3ce:	b08b      	sub	sp, #44	; 0x2c
     3d0:	af00      	add	r7, sp, #0
     3d2:	0004      	movs	r4, r0
     3d4:	0008      	movs	r0, r1
     3d6:	603a      	str	r2, [r7, #0]
     3d8:	0019      	movs	r1, r3
     3da:	1dfb      	adds	r3, r7, #7
     3dc:	1c22      	adds	r2, r4, #0
     3de:	701a      	strb	r2, [r3, #0]
     3e0:	1dbb      	adds	r3, r7, #6
     3e2:	1c02      	adds	r2, r0, #0
     3e4:	701a      	strb	r2, [r3, #0]
     3e6:	1d3b      	adds	r3, r7, #4
     3e8:	1c0a      	adds	r2, r1, #0
     3ea:	801a      	strh	r2, [r3, #0]
	uint8_t mydata[32];
	if (length > 31) length = 31;
     3ec:	1d3b      	adds	r3, r7, #4
     3ee:	881b      	ldrh	r3, [r3, #0]
     3f0:	2b1f      	cmp	r3, #31
     3f2:	d902      	bls.n	3fa <user_i2c_write+0x2e>
     3f4:	1d3b      	adds	r3, r7, #4
     3f6:	221f      	movs	r2, #31
     3f8:	801a      	strh	r2, [r3, #0]
	// Add 1 to include the reg address
	length++;
     3fa:	1d3b      	adds	r3, r7, #4
     3fc:	881a      	ldrh	r2, [r3, #0]
     3fe:	1d3b      	adds	r3, r7, #4
     400:	3201      	adds	r2, #1
     402:	801a      	strh	r2, [r3, #0]
	//Send the address
	mydata[0] = reg_addr;
     404:	2308      	movs	r3, #8
     406:	18fb      	adds	r3, r7, r3
     408:	1dba      	adds	r2, r7, #6
     40a:	7812      	ldrb	r2, [r2, #0]
     40c:	701a      	strb	r2, [r3, #0]
	bcopy(data, mydata+1, length);
     40e:	2308      	movs	r3, #8
     410:	18fb      	adds	r3, r7, r3
     412:	3301      	adds	r3, #1
     414:	1d3a      	adds	r2, r7, #4
     416:	8812      	ldrh	r2, [r2, #0]
     418:	6838      	ldr	r0, [r7, #0]
     41a:	0019      	movs	r1, r3
     41c:	4b08      	ldr	r3, [pc, #32]	; (440 <user_i2c_write+0x74>)
     41e:	4798      	blx	r3
	i2c_write(dev_addr << 1,mydata,length);
     420:	1dfb      	adds	r3, r7, #7
     422:	781b      	ldrb	r3, [r3, #0]
     424:	18db      	adds	r3, r3, r3
     426:	b2d8      	uxtb	r0, r3
     428:	1d3b      	adds	r3, r7, #4
     42a:	881a      	ldrh	r2, [r3, #0]
     42c:	2308      	movs	r3, #8
     42e:	18fb      	adds	r3, r7, r3
     430:	0019      	movs	r1, r3
     432:	4b04      	ldr	r3, [pc, #16]	; (444 <user_i2c_write+0x78>)
     434:	4798      	blx	r3
	return BMI160_OK;
     436:	2300      	movs	r3, #0
}
     438:	0018      	movs	r0, r3
     43a:	46bd      	mov	sp, r7
     43c:	b00b      	add	sp, #44	; 0x2c
     43e:	bd90      	pop	{r4, r7, pc}
     440:	0000ae41 	.word	0x0000ae41
     444:	00001f0d 	.word	0x00001f0d

00000448 <NVIC_EnableIRQ>:
{
     448:	b580      	push	{r7, lr}
     44a:	b082      	sub	sp, #8
     44c:	af00      	add	r7, sp, #0
     44e:	0002      	movs	r2, r0
     450:	1dfb      	adds	r3, r7, #7
     452:	701a      	strb	r2, [r3, #0]
  NVIC->ISER[0] = (1 << ((uint32_t)(IRQn) & 0x1F));
     454:	4b06      	ldr	r3, [pc, #24]	; (470 <NVIC_EnableIRQ+0x28>)
     456:	1dfa      	adds	r2, r7, #7
     458:	7812      	ldrb	r2, [r2, #0]
     45a:	0011      	movs	r1, r2
     45c:	221f      	movs	r2, #31
     45e:	400a      	ands	r2, r1
     460:	2101      	movs	r1, #1
     462:	4091      	lsls	r1, r2
     464:	000a      	movs	r2, r1
     466:	601a      	str	r2, [r3, #0]
}
     468:	46c0      	nop			; (mov r8, r8)
     46a:	46bd      	mov	sp, r7
     46c:	b002      	add	sp, #8
     46e:	bd80      	pop	{r7, pc}
     470:	e000e100 	.word	0xe000e100

00000474 <NVIC_DisableIRQ>:
{
     474:	b580      	push	{r7, lr}
     476:	b082      	sub	sp, #8
     478:	af00      	add	r7, sp, #0
     47a:	0002      	movs	r2, r0
     47c:	1dfb      	adds	r3, r7, #7
     47e:	701a      	strb	r2, [r3, #0]
  NVIC->ICER[0] = (1 << ((uint32_t)(IRQn) & 0x1F));
     480:	4a07      	ldr	r2, [pc, #28]	; (4a0 <NVIC_DisableIRQ+0x2c>)
     482:	1dfb      	adds	r3, r7, #7
     484:	781b      	ldrb	r3, [r3, #0]
     486:	0019      	movs	r1, r3
     488:	231f      	movs	r3, #31
     48a:	400b      	ands	r3, r1
     48c:	2101      	movs	r1, #1
     48e:	4099      	lsls	r1, r3
     490:	000b      	movs	r3, r1
     492:	0019      	movs	r1, r3
     494:	2380      	movs	r3, #128	; 0x80
     496:	50d1      	str	r1, [r2, r3]
}
     498:	46c0      	nop			; (mov r8, r8)
     49a:	46bd      	mov	sp, r7
     49c:	b002      	add	sp, #8
     49e:	bd80      	pop	{r7, pc}
     4a0:	e000e100 	.word	0xe000e100

000004a4 <NVIC_ClearPendingIRQ>:
{
     4a4:	b580      	push	{r7, lr}
     4a6:	b082      	sub	sp, #8
     4a8:	af00      	add	r7, sp, #0
     4aa:	0002      	movs	r2, r0
     4ac:	1dfb      	adds	r3, r7, #7
     4ae:	701a      	strb	r2, [r3, #0]
  NVIC->ICPR[0] = (1 << ((uint32_t)(IRQn) & 0x1F)); /* Clear pending interrupt */
     4b0:	4a08      	ldr	r2, [pc, #32]	; (4d4 <NVIC_ClearPendingIRQ+0x30>)
     4b2:	1dfb      	adds	r3, r7, #7
     4b4:	781b      	ldrb	r3, [r3, #0]
     4b6:	0019      	movs	r1, r3
     4b8:	231f      	movs	r3, #31
     4ba:	400b      	ands	r3, r1
     4bc:	2101      	movs	r1, #1
     4be:	4099      	lsls	r1, r3
     4c0:	000b      	movs	r3, r1
     4c2:	0019      	movs	r1, r3
     4c4:	23c0      	movs	r3, #192	; 0xc0
     4c6:	005b      	lsls	r3, r3, #1
     4c8:	50d1      	str	r1, [r2, r3]
}
     4ca:	46c0      	nop			; (mov r8, r8)
     4cc:	46bd      	mov	sp, r7
     4ce:	b002      	add	sp, #8
     4d0:	bd80      	pop	{r7, pc}
     4d2:	46c0      	nop			; (mov r8, r8)
     4d4:	e000e100 	.word	0xe000e100

000004d8 <NVIC_SetPriority>:
{
     4d8:	b5b0      	push	{r4, r5, r7, lr}
     4da:	b082      	sub	sp, #8
     4dc:	af00      	add	r7, sp, #0
     4de:	0002      	movs	r2, r0
     4e0:	6039      	str	r1, [r7, #0]
     4e2:	1dfb      	adds	r3, r7, #7
     4e4:	701a      	strb	r2, [r3, #0]
  if(IRQn < 0) {
     4e6:	1dfb      	adds	r3, r7, #7
     4e8:	781b      	ldrb	r3, [r3, #0]
     4ea:	2b7f      	cmp	r3, #127	; 0x7f
     4ec:	d932      	bls.n	554 <NVIC_SetPriority+0x7c>
    SCB->SHP[_SHP_IDX(IRQn)] = (SCB->SHP[_SHP_IDX(IRQn)] & ~(0xFF << _BIT_SHIFT(IRQn))) |
     4ee:	4c2f      	ldr	r4, [pc, #188]	; (5ac <NVIC_SetPriority+0xd4>)
     4f0:	1dfb      	adds	r3, r7, #7
     4f2:	781b      	ldrb	r3, [r3, #0]
     4f4:	001a      	movs	r2, r3
     4f6:	230f      	movs	r3, #15
     4f8:	4013      	ands	r3, r2
     4fa:	3b08      	subs	r3, #8
     4fc:	0899      	lsrs	r1, r3, #2
     4fe:	4a2b      	ldr	r2, [pc, #172]	; (5ac <NVIC_SetPriority+0xd4>)
     500:	1dfb      	adds	r3, r7, #7
     502:	781b      	ldrb	r3, [r3, #0]
     504:	0018      	movs	r0, r3
     506:	230f      	movs	r3, #15
     508:	4003      	ands	r3, r0
     50a:	3b08      	subs	r3, #8
     50c:	089b      	lsrs	r3, r3, #2
     50e:	3306      	adds	r3, #6
     510:	009b      	lsls	r3, r3, #2
     512:	18d3      	adds	r3, r2, r3
     514:	3304      	adds	r3, #4
     516:	681b      	ldr	r3, [r3, #0]
     518:	1dfa      	adds	r2, r7, #7
     51a:	7812      	ldrb	r2, [r2, #0]
     51c:	0010      	movs	r0, r2
     51e:	2203      	movs	r2, #3
     520:	4002      	ands	r2, r0
     522:	00d2      	lsls	r2, r2, #3
     524:	20ff      	movs	r0, #255	; 0xff
     526:	4090      	lsls	r0, r2
     528:	0002      	movs	r2, r0
     52a:	43d2      	mvns	r2, r2
     52c:	401a      	ands	r2, r3
        (((priority << (8 - __NVIC_PRIO_BITS)) & 0xFF) << _BIT_SHIFT(IRQn)); }
     52e:	683b      	ldr	r3, [r7, #0]
     530:	019b      	lsls	r3, r3, #6
     532:	20ff      	movs	r0, #255	; 0xff
     534:	4018      	ands	r0, r3
     536:	1dfb      	adds	r3, r7, #7
     538:	781b      	ldrb	r3, [r3, #0]
     53a:	001d      	movs	r5, r3
     53c:	2303      	movs	r3, #3
     53e:	402b      	ands	r3, r5
     540:	00db      	lsls	r3, r3, #3
     542:	4098      	lsls	r0, r3
     544:	0003      	movs	r3, r0
    SCB->SHP[_SHP_IDX(IRQn)] = (SCB->SHP[_SHP_IDX(IRQn)] & ~(0xFF << _BIT_SHIFT(IRQn))) |
     546:	431a      	orrs	r2, r3
     548:	1d8b      	adds	r3, r1, #6
     54a:	009b      	lsls	r3, r3, #2
     54c:	18e3      	adds	r3, r4, r3
     54e:	3304      	adds	r3, #4
     550:	601a      	str	r2, [r3, #0]
}
     552:	e027      	b.n	5a4 <NVIC_SetPriority+0xcc>
    NVIC->IP[_IP_IDX(IRQn)] = (NVIC->IP[_IP_IDX(IRQn)] & ~(0xFF << _BIT_SHIFT(IRQn))) |
     554:	4c16      	ldr	r4, [pc, #88]	; (5b0 <NVIC_SetPriority+0xd8>)
     556:	1dfb      	adds	r3, r7, #7
     558:	781b      	ldrb	r3, [r3, #0]
     55a:	b25b      	sxtb	r3, r3
     55c:	089b      	lsrs	r3, r3, #2
     55e:	4914      	ldr	r1, [pc, #80]	; (5b0 <NVIC_SetPriority+0xd8>)
     560:	1dfa      	adds	r2, r7, #7
     562:	7812      	ldrb	r2, [r2, #0]
     564:	b252      	sxtb	r2, r2
     566:	0892      	lsrs	r2, r2, #2
     568:	32c0      	adds	r2, #192	; 0xc0
     56a:	0092      	lsls	r2, r2, #2
     56c:	5852      	ldr	r2, [r2, r1]
     56e:	1df9      	adds	r1, r7, #7
     570:	7809      	ldrb	r1, [r1, #0]
     572:	0008      	movs	r0, r1
     574:	2103      	movs	r1, #3
     576:	4001      	ands	r1, r0
     578:	00c9      	lsls	r1, r1, #3
     57a:	20ff      	movs	r0, #255	; 0xff
     57c:	4088      	lsls	r0, r1
     57e:	0001      	movs	r1, r0
     580:	43c9      	mvns	r1, r1
     582:	4011      	ands	r1, r2
        (((priority << (8 - __NVIC_PRIO_BITS)) & 0xFF) << _BIT_SHIFT(IRQn)); }
     584:	683a      	ldr	r2, [r7, #0]
     586:	0192      	lsls	r2, r2, #6
     588:	20ff      	movs	r0, #255	; 0xff
     58a:	4010      	ands	r0, r2
     58c:	1dfa      	adds	r2, r7, #7
     58e:	7812      	ldrb	r2, [r2, #0]
     590:	0015      	movs	r5, r2
     592:	2203      	movs	r2, #3
     594:	402a      	ands	r2, r5
     596:	00d2      	lsls	r2, r2, #3
     598:	4090      	lsls	r0, r2
     59a:	0002      	movs	r2, r0
    NVIC->IP[_IP_IDX(IRQn)] = (NVIC->IP[_IP_IDX(IRQn)] & ~(0xFF << _BIT_SHIFT(IRQn))) |
     59c:	430a      	orrs	r2, r1
     59e:	33c0      	adds	r3, #192	; 0xc0
     5a0:	009b      	lsls	r3, r3, #2
     5a2:	511a      	str	r2, [r3, r4]
}
     5a4:	46c0      	nop			; (mov r8, r8)
     5a6:	46bd      	mov	sp, r7
     5a8:	b002      	add	sp, #8
     5aa:	bdb0      	pop	{r4, r5, r7, pc}
     5ac:	e000ed00 	.word	0xe000ed00
     5b0:	e000e100 	.word	0xe000e100

000005b4 <adc_init>:
//
//------------------------------------------------------------------------------

//==============================================================================
void adc_init()
{
     5b4:	b580      	push	{r7, lr}
     5b6:	af00      	add	r7, sp, #0
  // Set the config of the clock with CLKCTRL (must be one write only)
  GCLK->CLKCTRL.reg = GCLK_CLKCTRL_ID_ADC | GCLK_CLKCTRL_GEN(ADC_CLOCK_GENERATOR) | GCLK_CLKCTRL_CLKEN;
     5b8:	4b3b      	ldr	r3, [pc, #236]	; (6a8 <adc_init+0xf4>)
     5ba:	4a3c      	ldr	r2, [pc, #240]	; (6ac <adc_init+0xf8>)
     5bc:	805a      	strh	r2, [r3, #2]

  // Set the input pin as input
  PORT->Group[1].DIRCLR.reg = PORT_PB08;
     5be:	493c      	ldr	r1, [pc, #240]	; (6b0 <adc_init+0xfc>)
     5c0:	2284      	movs	r2, #132	; 0x84
     5c2:	2380      	movs	r3, #128	; 0x80
     5c4:	005b      	lsls	r3, r3, #1
     5c6:	508b      	str	r3, [r1, r2]
  PORT->Group[0].DIRCLR.reg = PORT_PA02;
     5c8:	4b39      	ldr	r3, [pc, #228]	; (6b0 <adc_init+0xfc>)
     5ca:	2204      	movs	r2, #4
     5cc:	605a      	str	r2, [r3, #4]
  
  // Make sure the Power Manager is allowing the ADC its stuff
  PM->APBCMASK.bit.ADC_ = 1;
     5ce:	4a39      	ldr	r2, [pc, #228]	; (6b4 <adc_init+0x100>)
     5d0:	6a13      	ldr	r3, [r2, #32]
     5d2:	2180      	movs	r1, #128	; 0x80
     5d4:	0249      	lsls	r1, r1, #9
     5d6:	430b      	orrs	r3, r1
     5d8:	6213      	str	r3, [r2, #32]
  
  // Select input and select reference as ground (INPUTCTRL) as well as set input scan
  ADC->INPUTCTRL.reg = ADC_INPUTCTRL_MUXNEG_GND | 
     5da:	4b37      	ldr	r3, [pc, #220]	; (6b8 <adc_init+0x104>)
     5dc:	4a37      	ldr	r2, [pc, #220]	; (6bc <adc_init+0x108>)
     5de:	611a      	str	r2, [r3, #16]
						ADC_INPUTCTRL_GAIN_DIV2 | 
						ADC_INPUTCTRL_MUXPOS(ADC_SOURCE) |
						ADC_INPUTCTRL_INPUTSCAN(3) |
						ADC_INPUTCTRL_INPUTOFFSET(0); 
  while (ADC->STATUS.bit.SYNCBUSY == 1) { }
     5e0:	46c0      	nop			; (mov r8, r8)
     5e2:	4b35      	ldr	r3, [pc, #212]	; (6b8 <adc_init+0x104>)
     5e4:	7e5b      	ldrb	r3, [r3, #25]
     5e6:	061b      	lsls	r3, r3, #24
     5e8:	0fdb      	lsrs	r3, r3, #31
     5ea:	b2db      	uxtb	r3, r3
     5ec:	2b01      	cmp	r3, #1
     5ee:	d0f8      	beq.n	5e2 <adc_init+0x2e>

  ADC ->REFCTRL.bit.REFSEL = 0x2;
     5f0:	4a31      	ldr	r2, [pc, #196]	; (6b8 <adc_init+0x104>)
     5f2:	7853      	ldrb	r3, [r2, #1]
     5f4:	210f      	movs	r1, #15
     5f6:	438b      	bics	r3, r1
     5f8:	1c19      	adds	r1, r3, #0
     5fa:	2302      	movs	r3, #2
     5fc:	430b      	orrs	r3, r1
     5fe:	7053      	strb	r3, [r2, #1]
  while (ADC->STATUS.bit.SYNCBUSY == 1) { }
     600:	46c0      	nop			; (mov r8, r8)
     602:	4b2d      	ldr	r3, [pc, #180]	; (6b8 <adc_init+0x104>)
     604:	7e5b      	ldrb	r3, [r3, #25]
     606:	061b      	lsls	r3, r3, #24
     608:	0fdb      	lsrs	r3, r3, #31
     60a:	b2db      	uxtb	r3, r3
     60c:	2b01      	cmp	r3, #1
     60e:	d0f8      	beq.n	602 <adc_init+0x4e>
  
  // Enable left-adjustment and free-running mode (CTRLB)
  ADC->CTRLB.reg = ADC_CTRLB_FREERUN | ADC_CTRLB_LEFTADJ | ADC_CTRLB_RESSEL_16BIT | ADC_CTRLB_PRESCALER_DIV32;
     610:	4b29      	ldr	r3, [pc, #164]	; (6b8 <adc_init+0x104>)
     612:	4a2b      	ldr	r2, [pc, #172]	; (6c0 <adc_init+0x10c>)
     614:	809a      	strh	r2, [r3, #4]
  while (ADC->STATUS.bit.SYNCBUSY == 1) { }
     616:	46c0      	nop			; (mov r8, r8)
     618:	4b27      	ldr	r3, [pc, #156]	; (6b8 <adc_init+0x104>)
     61a:	7e5b      	ldrb	r3, [r3, #25]
     61c:	061b      	lsls	r3, r3, #24
     61e:	0fdb      	lsrs	r3, r3, #31
     620:	b2db      	uxtb	r3, r3
     622:	2b01      	cmp	r3, #1
     624:	d0f8      	beq.n	618 <adc_init+0x64>
	  
  // do some averaging
  ADC->AVGCTRL.reg = ADC_AVGCTRL_ADJRES(2) | ADC_AVGCTRL_SAMPLENUM_4;
     626:	4b24      	ldr	r3, [pc, #144]	; (6b8 <adc_init+0x104>)
     628:	2222      	movs	r2, #34	; 0x22
     62a:	709a      	strb	r2, [r3, #2]
  while (ADC->STATUS.bit.SYNCBUSY == 1) { }
     62c:	46c0      	nop			; (mov r8, r8)
     62e:	4b22      	ldr	r3, [pc, #136]	; (6b8 <adc_init+0x104>)
     630:	7e5b      	ldrb	r3, [r3, #25]
     632:	061b      	lsls	r3, r3, #24
     634:	0fdb      	lsrs	r3, r3, #31
     636:	b2db      	uxtb	r3, r3
     638:	2b01      	cmp	r3, #1
     63a:	d0f8      	beq.n	62e <adc_init+0x7a>
  
  // Enable ADC by writing CTRLA.ENABLE
  ADC->CTRLA.bit.ENABLE = 1;
     63c:	4a1e      	ldr	r2, [pc, #120]	; (6b8 <adc_init+0x104>)
     63e:	7813      	ldrb	r3, [r2, #0]
     640:	2102      	movs	r1, #2
     642:	430b      	orrs	r3, r1
     644:	7013      	strb	r3, [r2, #0]
  while (ADC->STATUS.bit.SYNCBUSY == 1) { }
     646:	46c0      	nop			; (mov r8, r8)
     648:	4b1b      	ldr	r3, [pc, #108]	; (6b8 <adc_init+0x104>)
     64a:	7e5b      	ldrb	r3, [r3, #25]
     64c:	061b      	lsls	r3, r3, #24
     64e:	0fdb      	lsrs	r3, r3, #31
     650:	b2db      	uxtb	r3, r3
     652:	2b01      	cmp	r3, #1
     654:	d0f8      	beq.n	648 <adc_init+0x94>
  
  // Enable the result-ready interrupt
  ADC->INTENSET.bit.RESRDY = 1;
     656:	4a18      	ldr	r2, [pc, #96]	; (6b8 <adc_init+0x104>)
     658:	7dd3      	ldrb	r3, [r2, #23]
     65a:	2101      	movs	r1, #1
     65c:	430b      	orrs	r3, r1
     65e:	75d3      	strb	r3, [r2, #23]
  while (ADC->STATUS.bit.SYNCBUSY == 1) { }
     660:	46c0      	nop			; (mov r8, r8)
     662:	4b15      	ldr	r3, [pc, #84]	; (6b8 <adc_init+0x104>)
     664:	7e5b      	ldrb	r3, [r3, #25]
     666:	061b      	lsls	r3, r3, #24
     668:	0fdb      	lsrs	r3, r3, #31
     66a:	b2db      	uxtb	r3, r3
     66c:	2b01      	cmp	r3, #1
     66e:	d0f8      	beq.n	662 <adc_init+0xae>
  
  // Kick it to make sure it starts the first conversion
  ADC->SWTRIG.reg = ADC_SWTRIG_START;
     670:	4b11      	ldr	r3, [pc, #68]	; (6b8 <adc_init+0x104>)
     672:	2202      	movs	r2, #2
     674:	731a      	strb	r2, [r3, #12]
  while (ADC->STATUS.bit.SYNCBUSY == 1) { }
     676:	46c0      	nop			; (mov r8, r8)
     678:	4b0f      	ldr	r3, [pc, #60]	; (6b8 <adc_init+0x104>)
     67a:	7e5b      	ldrb	r3, [r3, #25]
     67c:	061b      	lsls	r3, r3, #24
     67e:	0fdb      	lsrs	r3, r3, #31
     680:	b2db      	uxtb	r3, r3
     682:	2b01      	cmp	r3, #1
     684:	d0f8      	beq.n	678 <adc_init+0xc4>
	
  // Set up the interrupt handler
  NVIC_DisableIRQ(ADC_IRQn);
     686:	2017      	movs	r0, #23
     688:	4b0e      	ldr	r3, [pc, #56]	; (6c4 <adc_init+0x110>)
     68a:	4798      	blx	r3
  NVIC_ClearPendingIRQ(ADC_IRQn);
     68c:	2017      	movs	r0, #23
     68e:	4b0e      	ldr	r3, [pc, #56]	; (6c8 <adc_init+0x114>)
     690:	4798      	blx	r3
  NVIC_SetPriority(ADC_IRQn, 0);
     692:	2100      	movs	r1, #0
     694:	2017      	movs	r0, #23
     696:	4b0d      	ldr	r3, [pc, #52]	; (6cc <adc_init+0x118>)
     698:	4798      	blx	r3
  NVIC_EnableIRQ(ADC_IRQn);
     69a:	2017      	movs	r0, #23
     69c:	4b0c      	ldr	r3, [pc, #48]	; (6d0 <adc_init+0x11c>)
     69e:	4798      	blx	r3
}
     6a0:	46c0      	nop			; (mov r8, r8)
     6a2:	46bd      	mov	sp, r7
     6a4:	bd80      	pop	{r7, pc}
     6a6:	46c0      	nop			; (mov r8, r8)
     6a8:	40000c00 	.word	0x40000c00
     6ac:	0000401e 	.word	0x0000401e
     6b0:	41004400 	.word	0x41004400
     6b4:	40000400 	.word	0x40000400
     6b8:	42004000 	.word	0x42004000
     6bc:	0f031800 	.word	0x0f031800
     6c0:	00000316 	.word	0x00000316
     6c4:	00000475 	.word	0x00000475
     6c8:	000004a5 	.word	0x000004a5
     6cc:	000004d9 	.word	0x000004d9
     6d0:	00000449 	.word	0x00000449

000006d4 <adc_read>:

uint16_t adc_read(uint8_t axis)
{
     6d4:	b580      	push	{r7, lr}
     6d6:	b082      	sub	sp, #8
     6d8:	af00      	add	r7, sp, #0
     6da:	0002      	movs	r2, r0
     6dc:	1dfb      	adds	r3, r7, #7
     6de:	701a      	strb	r2, [r3, #0]
	if(axis == XAXIS)
     6e0:	1dfb      	adds	r3, r7, #7
     6e2:	781b      	ldrb	r3, [r3, #0]
     6e4:	2b00      	cmp	r3, #0
     6e6:	d103      	bne.n	6f0 <adc_read+0x1c>
		return x;
     6e8:	4b08      	ldr	r3, [pc, #32]	; (70c <adc_read+0x38>)
     6ea:	881b      	ldrh	r3, [r3, #0]
     6ec:	b29b      	uxth	r3, r3
     6ee:	e008      	b.n	702 <adc_read+0x2e>
	else if(axis == YAXIS)
     6f0:	1dfb      	adds	r3, r7, #7
     6f2:	781b      	ldrb	r3, [r3, #0]
     6f4:	2b01      	cmp	r3, #1
     6f6:	d103      	bne.n	700 <adc_read+0x2c>
		return y;
     6f8:	4b05      	ldr	r3, [pc, #20]	; (710 <adc_read+0x3c>)
     6fa:	881b      	ldrh	r3, [r3, #0]
     6fc:	b29b      	uxth	r3, r3
     6fe:	e000      	b.n	702 <adc_read+0x2e>
	else
		return 0xFFFF;
     700:	4b04      	ldr	r3, [pc, #16]	; (714 <adc_read+0x40>)
}
     702:	0018      	movs	r0, r3
     704:	46bd      	mov	sp, r7
     706:	b002      	add	sp, #8
     708:	bd80      	pop	{r7, pc}
     70a:	46c0      	nop			; (mov r8, r8)
     70c:	20001afc 	.word	0x20001afc
     710:	20001afe 	.word	0x20001afe
     714:	0000ffff 	.word	0x0000ffff

00000718 <findModifier>:

double findModifier(uint8_t axis)
{
     718:	b590      	push	{r4, r7, lr}
     71a:	b087      	sub	sp, #28
     71c:	af00      	add	r7, sp, #0
     71e:	0002      	movs	r2, r0
     720:	1dfb      	adds	r3, r7, #7
     722:	701a      	strb	r2, [r3, #0]
	// get the 12 bit, left-adjusted adc value into a 16 bit right-adjusted uint
	uint16_t adc = adc_read(axis);
     724:	230e      	movs	r3, #14
     726:	18fc      	adds	r4, r7, r3
     728:	1dfb      	adds	r3, r7, #7
     72a:	781b      	ldrb	r3, [r3, #0]
     72c:	0018      	movs	r0, r3
     72e:	4b3e      	ldr	r3, [pc, #248]	; (828 <findModifier+0x110>)
     730:	4798      	blx	r3
     732:	0003      	movs	r3, r0
     734:	8023      	strh	r3, [r4, #0]
	double retval = 0;
     736:	2300      	movs	r3, #0
     738:	2400      	movs	r4, #0
     73a:	613b      	str	r3, [r7, #16]
     73c:	617c      	str	r4, [r7, #20]
	
	// return the wawa-ed value depending on joystick direction
	if(adc > Middle){
     73e:	230e      	movs	r3, #14
     740:	18fb      	adds	r3, r7, r3
     742:	881b      	ldrh	r3, [r3, #0]
     744:	4a39      	ldr	r2, [pc, #228]	; (82c <findModifier+0x114>)
     746:	4293      	cmp	r3, r2
     748:	d930      	bls.n	7ac <findModifier+0x94>
		retval = -1 + (adc - Bottom)*DownScale;
     74a:	230e      	movs	r3, #14
     74c:	18fb      	adds	r3, r7, r3
     74e:	881b      	ldrh	r3, [r3, #0]
     750:	4a37      	ldr	r2, [pc, #220]	; (830 <findModifier+0x118>)
     752:	189a      	adds	r2, r3, r2
     754:	4b37      	ldr	r3, [pc, #220]	; (834 <findModifier+0x11c>)
     756:	0010      	movs	r0, r2
     758:	4798      	blx	r3
     75a:	4c37      	ldr	r4, [pc, #220]	; (838 <findModifier+0x120>)
     75c:	4a37      	ldr	r2, [pc, #220]	; (83c <findModifier+0x124>)
     75e:	4b38      	ldr	r3, [pc, #224]	; (840 <findModifier+0x128>)
     760:	47a0      	blx	r4
     762:	0003      	movs	r3, r0
     764:	000c      	movs	r4, r1
     766:	0018      	movs	r0, r3
     768:	0021      	movs	r1, r4
     76a:	4c36      	ldr	r4, [pc, #216]	; (844 <findModifier+0x12c>)
     76c:	2200      	movs	r2, #0
     76e:	4b36      	ldr	r3, [pc, #216]	; (848 <findModifier+0x130>)
     770:	47a0      	blx	r4
     772:	0003      	movs	r3, r0
     774:	000c      	movs	r4, r1
     776:	613b      	str	r3, [r7, #16]
     778:	617c      	str	r4, [r7, #20]
		if(retval <= -0.99)
     77a:	4c34      	ldr	r4, [pc, #208]	; (84c <findModifier+0x134>)
     77c:	4a34      	ldr	r2, [pc, #208]	; (850 <findModifier+0x138>)
     77e:	4b35      	ldr	r3, [pc, #212]	; (854 <findModifier+0x13c>)
     780:	6938      	ldr	r0, [r7, #16]
     782:	6979      	ldr	r1, [r7, #20]
     784:	47a0      	blx	r4
     786:	1e03      	subs	r3, r0, #0
     788:	d003      	beq.n	792 <findModifier+0x7a>
			retval = -1;
     78a:	2300      	movs	r3, #0
     78c:	4c32      	ldr	r4, [pc, #200]	; (858 <findModifier+0x140>)
     78e:	613b      	str	r3, [r7, #16]
     790:	617c      	str	r4, [r7, #20]
		if(retval >= -0.02)
     792:	4c32      	ldr	r4, [pc, #200]	; (85c <findModifier+0x144>)
     794:	4a32      	ldr	r2, [pc, #200]	; (860 <findModifier+0x148>)
     796:	4b33      	ldr	r3, [pc, #204]	; (864 <findModifier+0x14c>)
     798:	6938      	ldr	r0, [r7, #16]
     79a:	6979      	ldr	r1, [r7, #20]
     79c:	47a0      	blx	r4
     79e:	1e03      	subs	r3, r0, #0
     7a0:	d03a      	beq.n	818 <findModifier+0x100>
			retval = 0;
     7a2:	2300      	movs	r3, #0
     7a4:	2400      	movs	r4, #0
     7a6:	613b      	str	r3, [r7, #16]
     7a8:	617c      	str	r4, [r7, #20]
     7aa:	e035      	b.n	818 <findModifier+0x100>
	}
	else if(adc < Middle){
     7ac:	230e      	movs	r3, #14
     7ae:	18fb      	adds	r3, r7, r3
     7b0:	881b      	ldrh	r3, [r3, #0]
     7b2:	4a2d      	ldr	r2, [pc, #180]	; (868 <findModifier+0x150>)
     7b4:	4293      	cmp	r3, r2
     7b6:	d82f      	bhi.n	818 <findModifier+0x100>
		retval = 1 + (Top - adc)*UpScale;
     7b8:	230e      	movs	r3, #14
     7ba:	18fb      	adds	r3, r7, r3
     7bc:	881b      	ldrh	r3, [r3, #0]
     7be:	2218      	movs	r2, #24
     7c0:	1ad2      	subs	r2, r2, r3
     7c2:	4b1c      	ldr	r3, [pc, #112]	; (834 <findModifier+0x11c>)
     7c4:	0010      	movs	r0, r2
     7c6:	4798      	blx	r3
     7c8:	4c1b      	ldr	r4, [pc, #108]	; (838 <findModifier+0x120>)
     7ca:	4a28      	ldr	r2, [pc, #160]	; (86c <findModifier+0x154>)
     7cc:	4b28      	ldr	r3, [pc, #160]	; (870 <findModifier+0x158>)
     7ce:	47a0      	blx	r4
     7d0:	0003      	movs	r3, r0
     7d2:	000c      	movs	r4, r1
     7d4:	0018      	movs	r0, r3
     7d6:	0021      	movs	r1, r4
     7d8:	4c26      	ldr	r4, [pc, #152]	; (874 <findModifier+0x15c>)
     7da:	2200      	movs	r2, #0
     7dc:	4b1a      	ldr	r3, [pc, #104]	; (848 <findModifier+0x130>)
     7de:	47a0      	blx	r4
     7e0:	0003      	movs	r3, r0
     7e2:	000c      	movs	r4, r1
     7e4:	613b      	str	r3, [r7, #16]
     7e6:	617c      	str	r4, [r7, #20]
		if(retval >= 0.99)
     7e8:	4c1c      	ldr	r4, [pc, #112]	; (85c <findModifier+0x144>)
     7ea:	4a19      	ldr	r2, [pc, #100]	; (850 <findModifier+0x138>)
     7ec:	4b22      	ldr	r3, [pc, #136]	; (878 <findModifier+0x160>)
     7ee:	6938      	ldr	r0, [r7, #16]
     7f0:	6979      	ldr	r1, [r7, #20]
     7f2:	47a0      	blx	r4
     7f4:	1e03      	subs	r3, r0, #0
     7f6:	d003      	beq.n	800 <findModifier+0xe8>
			retval = 1;
     7f8:	2300      	movs	r3, #0
     7fa:	4c13      	ldr	r4, [pc, #76]	; (848 <findModifier+0x130>)
     7fc:	613b      	str	r3, [r7, #16]
     7fe:	617c      	str	r4, [r7, #20]
		if(retval <= 0.02)
     800:	4c12      	ldr	r4, [pc, #72]	; (84c <findModifier+0x134>)
     802:	4a17      	ldr	r2, [pc, #92]	; (860 <findModifier+0x148>)
     804:	4b1d      	ldr	r3, [pc, #116]	; (87c <findModifier+0x164>)
     806:	6938      	ldr	r0, [r7, #16]
     808:	6979      	ldr	r1, [r7, #20]
     80a:	47a0      	blx	r4
     80c:	1e03      	subs	r3, r0, #0
     80e:	d003      	beq.n	818 <findModifier+0x100>
			retval = 0;
     810:	2300      	movs	r3, #0
     812:	2400      	movs	r4, #0
     814:	613b      	str	r3, [r7, #16]
     816:	617c      	str	r4, [r7, #20]
	}
	
	return retval;
     818:	693b      	ldr	r3, [r7, #16]
     81a:	697c      	ldr	r4, [r7, #20]
}
     81c:	0018      	movs	r0, r3
     81e:	0021      	movs	r1, r4
     820:	46bd      	mov	sp, r7
     822:	b007      	add	sp, #28
     824:	bd90      	pop	{r4, r7, pc}
     826:	46c0      	nop			; (mov r8, r8)
     828:	000006d5 	.word	0x000006d5
     82c:	000007c4 	.word	0x000007c4
     830:	fffff009 	.word	0xfffff009
     834:	0000ab59 	.word	0x0000ab59
     838:	00009f85 	.word	0x00009f85
     83c:	e6c0f1f9 	.word	0xe6c0f1f9
     840:	bf3f38f4 	.word	0xbf3f38f4
     844:	0000a485 	.word	0x0000a485
     848:	3ff00000 	.word	0x3ff00000
     84c:	00008285 	.word	0x00008285
     850:	7ae147ae 	.word	0x7ae147ae
     854:	bfefae14 	.word	0xbfefae14
     858:	bff00000 	.word	0xbff00000
     85c:	000082ad 	.word	0x000082ad
     860:	47ae147b 	.word	0x47ae147b
     864:	bf947ae1 	.word	0xbf947ae1
     868:	000007c3 	.word	0x000007c3
     86c:	722eecb5 	.word	0x722eecb5
     870:	3f40af2f 	.word	0x3f40af2f
     874:	000090fd 	.word	0x000090fd
     878:	3fefae14 	.word	0x3fefae14
     87c:	3f947ae1 	.word	0x3f947ae1

00000880 <findMagnitude>:


double findMagnitude()
{
     880:	b5f0      	push	{r4, r5, r6, r7, lr}
     882:	b087      	sub	sp, #28
     884:	af00      	add	r7, sp, #0
	// get the two -1 to 1 values of the axes
	double x = findModifier(XAXIS);
     886:	2000      	movs	r0, #0
     888:	4b22      	ldr	r3, [pc, #136]	; (914 <findMagnitude+0x94>)
     88a:	4798      	blx	r3
     88c:	0003      	movs	r3, r0
     88e:	000c      	movs	r4, r1
     890:	60bb      	str	r3, [r7, #8]
     892:	60fc      	str	r4, [r7, #12]
	double y = findModifier(YAXIS);
     894:	2001      	movs	r0, #1
     896:	4b1f      	ldr	r3, [pc, #124]	; (914 <findMagnitude+0x94>)
     898:	4798      	blx	r3
     89a:	0003      	movs	r3, r0
     89c:	000c      	movs	r4, r1
     89e:	603b      	str	r3, [r7, #0]
     8a0:	607c      	str	r4, [r7, #4]
	
	double retval = 0;
     8a2:	2300      	movs	r3, #0
     8a4:	2400      	movs	r4, #0
     8a6:	613b      	str	r3, [r7, #16]
     8a8:	617c      	str	r4, [r7, #20]
	
	// find the magnitude
	retval = sqrt(x*x + y*y);
     8aa:	4c1b      	ldr	r4, [pc, #108]	; (918 <findMagnitude+0x98>)
     8ac:	68ba      	ldr	r2, [r7, #8]
     8ae:	68fb      	ldr	r3, [r7, #12]
     8b0:	68b8      	ldr	r0, [r7, #8]
     8b2:	68f9      	ldr	r1, [r7, #12]
     8b4:	47a0      	blx	r4
     8b6:	0003      	movs	r3, r0
     8b8:	000c      	movs	r4, r1
     8ba:	001d      	movs	r5, r3
     8bc:	0026      	movs	r6, r4
     8be:	4c16      	ldr	r4, [pc, #88]	; (918 <findMagnitude+0x98>)
     8c0:	683a      	ldr	r2, [r7, #0]
     8c2:	687b      	ldr	r3, [r7, #4]
     8c4:	6838      	ldr	r0, [r7, #0]
     8c6:	6879      	ldr	r1, [r7, #4]
     8c8:	47a0      	blx	r4
     8ca:	0003      	movs	r3, r0
     8cc:	000c      	movs	r4, r1
     8ce:	001a      	movs	r2, r3
     8d0:	0023      	movs	r3, r4
     8d2:	4c12      	ldr	r4, [pc, #72]	; (91c <findMagnitude+0x9c>)
     8d4:	0028      	movs	r0, r5
     8d6:	0031      	movs	r1, r6
     8d8:	47a0      	blx	r4
     8da:	0003      	movs	r3, r0
     8dc:	000c      	movs	r4, r1
     8de:	0018      	movs	r0, r3
     8e0:	0021      	movs	r1, r4
     8e2:	4b0f      	ldr	r3, [pc, #60]	; (920 <findMagnitude+0xa0>)
     8e4:	4798      	blx	r3
     8e6:	0003      	movs	r3, r0
     8e8:	000c      	movs	r4, r1
     8ea:	613b      	str	r3, [r7, #16]
     8ec:	617c      	str	r4, [r7, #20]
	
	// ensure it never goes above 1
	if(retval > 1)
     8ee:	4c0d      	ldr	r4, [pc, #52]	; (924 <findMagnitude+0xa4>)
     8f0:	2200      	movs	r2, #0
     8f2:	4b0d      	ldr	r3, [pc, #52]	; (928 <findMagnitude+0xa8>)
     8f4:	6938      	ldr	r0, [r7, #16]
     8f6:	6979      	ldr	r1, [r7, #20]
     8f8:	47a0      	blx	r4
     8fa:	1e03      	subs	r3, r0, #0
     8fc:	d003      	beq.n	906 <findMagnitude+0x86>
		retval = 1;
     8fe:	2300      	movs	r3, #0
     900:	4c09      	ldr	r4, [pc, #36]	; (928 <findMagnitude+0xa8>)
     902:	613b      	str	r3, [r7, #16]
     904:	617c      	str	r4, [r7, #20]
	
	return retval;
     906:	693b      	ldr	r3, [r7, #16]
     908:	697c      	ldr	r4, [r7, #20]
}
     90a:	0018      	movs	r0, r3
     90c:	0021      	movs	r1, r4
     90e:	46bd      	mov	sp, r7
     910:	b007      	add	sp, #28
     912:	bdf0      	pop	{r4, r5, r6, r7, pc}
     914:	00000719 	.word	0x00000719
     918:	00009f85 	.word	0x00009f85
     91c:	000090fd 	.word	0x000090fd
     920:	00007cd5 	.word	0x00007cd5
     924:	00008299 	.word	0x00008299
     928:	3ff00000 	.word	0x3ff00000

0000092c <ADC_Handler>:
//     | .__/ |  \  .__/
//
//------------------------------------------------------------------------------

void ADC_Handler(void)
{
     92c:	b580      	push	{r7, lr}
     92e:	af00      	add	r7, sp, #0
  // Check whether the interrupt was fired because the result is ready
  if (ADC->INTFLAG.bit.RESRDY)
     930:	4b15      	ldr	r3, [pc, #84]	; (988 <ADC_Handler+0x5c>)
     932:	7e1b      	ldrb	r3, [r3, #24]
     934:	07db      	lsls	r3, r3, #31
     936:	0fdb      	lsrs	r3, r3, #31
     938:	b2db      	uxtb	r3, r3
     93a:	2b00      	cmp	r3, #0
     93c:	d020      	beq.n	980 <ADC_Handler+0x54>
  {
	while (ADC->STATUS.bit.SYNCBUSY == 1) { }
     93e:	46c0      	nop			; (mov r8, r8)
     940:	4b11      	ldr	r3, [pc, #68]	; (988 <ADC_Handler+0x5c>)
     942:	7e5b      	ldrb	r3, [r3, #25]
     944:	061b      	lsls	r3, r3, #24
     946:	0fdb      	lsrs	r3, r3, #31
     948:	b2db      	uxtb	r3, r3
     94a:	2b01      	cmp	r3, #1
     94c:	d0f8      	beq.n	940 <ADC_Handler+0x14>
		
    // Read result
	if(ADC->INPUTCTRL.bit.INPUTOFFSET == 1)	// checks for being AIN0 (yes, I know. It shouldn't but it do)
     94e:	4b0e      	ldr	r3, [pc, #56]	; (988 <ADC_Handler+0x5c>)
     950:	691b      	ldr	r3, [r3, #16]
     952:	021b      	lsls	r3, r3, #8
     954:	0f1b      	lsrs	r3, r3, #28
     956:	b2db      	uxtb	r3, r3
     958:	2b01      	cmp	r3, #1
     95a:	d105      	bne.n	968 <ADC_Handler+0x3c>
		x = ADC->RESULT.bit.RESULT;
     95c:	4b0a      	ldr	r3, [pc, #40]	; (988 <ADC_Handler+0x5c>)
     95e:	8b5b      	ldrh	r3, [r3, #26]
     960:	b29a      	uxth	r2, r3
     962:	4b0a      	ldr	r3, [pc, #40]	; (98c <ADC_Handler+0x60>)
     964:	801a      	strh	r2, [r3, #0]
	else if(ADC->INPUTCTRL.bit.INPUTOFFSET == 3) // checks for being AIN2 (again, not perfect but it works)
		y = ADC->RESULT.bit.RESULT;
  }
     966:	e00b      	b.n	980 <ADC_Handler+0x54>
	else if(ADC->INPUTCTRL.bit.INPUTOFFSET == 3) // checks for being AIN2 (again, not perfect but it works)
     968:	4b07      	ldr	r3, [pc, #28]	; (988 <ADC_Handler+0x5c>)
     96a:	691b      	ldr	r3, [r3, #16]
     96c:	021b      	lsls	r3, r3, #8
     96e:	0f1b      	lsrs	r3, r3, #28
     970:	b2db      	uxtb	r3, r3
     972:	2b03      	cmp	r3, #3
     974:	d104      	bne.n	980 <ADC_Handler+0x54>
		y = ADC->RESULT.bit.RESULT;
     976:	4b04      	ldr	r3, [pc, #16]	; (988 <ADC_Handler+0x5c>)
     978:	8b5b      	ldrh	r3, [r3, #26]
     97a:	b29a      	uxth	r2, r3
     97c:	4b04      	ldr	r3, [pc, #16]	; (990 <ADC_Handler+0x64>)
     97e:	801a      	strh	r2, [r3, #0]
     980:	46c0      	nop			; (mov r8, r8)
     982:	46bd      	mov	sp, r7
     984:	bd80      	pop	{r7, pc}
     986:	46c0      	nop			; (mov r8, r8)
     988:	42004000 	.word	0x42004000
     98c:	20001afc 	.word	0x20001afc
     990:	20001afe 	.word	0x20001afe

00000994 <bmi160_get_regs>:
/*!
 * @brief This API reads the data from the given register address
 * of sensor.
 */
int8_t bmi160_get_regs(uint8_t reg_addr, uint8_t *data, uint16_t len, const struct bmi160_dev *dev)
{
     994:	b5f0      	push	{r4, r5, r6, r7, lr}
     996:	b087      	sub	sp, #28
     998:	af00      	add	r7, sp, #0
     99a:	60b9      	str	r1, [r7, #8]
     99c:	0011      	movs	r1, r2
     99e:	607b      	str	r3, [r7, #4]
     9a0:	230f      	movs	r3, #15
     9a2:	18fb      	adds	r3, r7, r3
     9a4:	1c02      	adds	r2, r0, #0
     9a6:	701a      	strb	r2, [r3, #0]
     9a8:	230c      	movs	r3, #12
     9aa:	18fb      	adds	r3, r7, r3
     9ac:	1c0a      	adds	r2, r1, #0
     9ae:	801a      	strh	r2, [r3, #0]
	int8_t rslt = BMI160_OK;
     9b0:	2317      	movs	r3, #23
     9b2:	18fb      	adds	r3, r7, r3
     9b4:	2200      	movs	r2, #0
     9b6:	701a      	strb	r2, [r3, #0]
	/* Null-pointer check */
	if ((dev == NULL) || (dev->read == NULL)) {
     9b8:	687b      	ldr	r3, [r7, #4]
     9ba:	2b00      	cmp	r3, #0
     9bc:	d003      	beq.n	9c6 <bmi160_get_regs+0x32>
     9be:	687b      	ldr	r3, [r7, #4]
     9c0:	69db      	ldr	r3, [r3, #28]
     9c2:	2b00      	cmp	r3, #0
     9c4:	d104      	bne.n	9d0 <bmi160_get_regs+0x3c>
		rslt = BMI160_E_NULL_PTR;
     9c6:	2317      	movs	r3, #23
     9c8:	18fb      	adds	r3, r7, r3
     9ca:	22ff      	movs	r2, #255	; 0xff
     9cc:	701a      	strb	r2, [r3, #0]
     9ce:	e02b      	b.n	a28 <bmi160_get_regs+0x94>
	} else {
		/* Configuring reg_addr for SPI Interface */
		if (dev->interface == BMI160_SPI_INTF)
     9d0:	687b      	ldr	r3, [r7, #4]
     9d2:	789b      	ldrb	r3, [r3, #2]
     9d4:	2b01      	cmp	r3, #1
     9d6:	d108      	bne.n	9ea <bmi160_get_regs+0x56>
			reg_addr = (reg_addr | BMI160_SPI_RD_MASK);
     9d8:	230f      	movs	r3, #15
     9da:	18fb      	adds	r3, r7, r3
     9dc:	220f      	movs	r2, #15
     9de:	18ba      	adds	r2, r7, r2
     9e0:	7812      	ldrb	r2, [r2, #0]
     9e2:	2180      	movs	r1, #128	; 0x80
     9e4:	4249      	negs	r1, r1
     9e6:	430a      	orrs	r2, r1
     9e8:	701a      	strb	r2, [r3, #0]

		rslt = dev->read(dev->id, reg_addr, data, len);
     9ea:	687b      	ldr	r3, [r7, #4]
     9ec:	69dd      	ldr	r5, [r3, #28]
     9ee:	687b      	ldr	r3, [r7, #4]
     9f0:	7858      	ldrb	r0, [r3, #1]
     9f2:	2317      	movs	r3, #23
     9f4:	18fc      	adds	r4, r7, r3
     9f6:	230c      	movs	r3, #12
     9f8:	18fb      	adds	r3, r7, r3
     9fa:	881e      	ldrh	r6, [r3, #0]
     9fc:	68ba      	ldr	r2, [r7, #8]
     9fe:	230f      	movs	r3, #15
     a00:	18fb      	adds	r3, r7, r3
     a02:	7819      	ldrb	r1, [r3, #0]
     a04:	0033      	movs	r3, r6
     a06:	47a8      	blx	r5
     a08:	0003      	movs	r3, r0
     a0a:	7023      	strb	r3, [r4, #0]
		/* Kindly refer section 3.2.4 of data-sheet*/
		dev->delay_ms(1);
     a0c:	687b      	ldr	r3, [r7, #4]
     a0e:	6a5b      	ldr	r3, [r3, #36]	; 0x24
     a10:	2001      	movs	r0, #1
     a12:	4798      	blx	r3
		if (rslt != BMI160_OK)
     a14:	2317      	movs	r3, #23
     a16:	18fb      	adds	r3, r7, r3
     a18:	781b      	ldrb	r3, [r3, #0]
     a1a:	b25b      	sxtb	r3, r3
     a1c:	2b00      	cmp	r3, #0
     a1e:	d003      	beq.n	a28 <bmi160_get_regs+0x94>
			rslt = BMI160_E_COM_FAIL;
     a20:	2317      	movs	r3, #23
     a22:	18fb      	adds	r3, r7, r3
     a24:	22fe      	movs	r2, #254	; 0xfe
     a26:	701a      	strb	r2, [r3, #0]
	}

	return rslt;
     a28:	2317      	movs	r3, #23
     a2a:	18fb      	adds	r3, r7, r3
     a2c:	781b      	ldrb	r3, [r3, #0]
     a2e:	b25b      	sxtb	r3, r3
}
     a30:	0018      	movs	r0, r3
     a32:	46bd      	mov	sp, r7
     a34:	b007      	add	sp, #28
     a36:	bdf0      	pop	{r4, r5, r6, r7, pc}

00000a38 <bmi160_set_regs>:
/*!
 * @brief This API writes the given data to the register address
 * of sensor.
 */
int8_t bmi160_set_regs(uint8_t reg_addr, uint8_t *data, uint16_t len, const struct bmi160_dev *dev)
{
     a38:	b5f0      	push	{r4, r5, r6, r7, lr}
     a3a:	b087      	sub	sp, #28
     a3c:	af00      	add	r7, sp, #0
     a3e:	60b9      	str	r1, [r7, #8]
     a40:	0011      	movs	r1, r2
     a42:	607b      	str	r3, [r7, #4]
     a44:	230f      	movs	r3, #15
     a46:	18fb      	adds	r3, r7, r3
     a48:	1c02      	adds	r2, r0, #0
     a4a:	701a      	strb	r2, [r3, #0]
     a4c:	230c      	movs	r3, #12
     a4e:	18fb      	adds	r3, r7, r3
     a50:	1c0a      	adds	r2, r1, #0
     a52:	801a      	strh	r2, [r3, #0]
	int8_t rslt = BMI160_OK;
     a54:	2317      	movs	r3, #23
     a56:	18fb      	adds	r3, r7, r3
     a58:	2200      	movs	r2, #0
     a5a:	701a      	strb	r2, [r3, #0]
	uint8_t count = 0;
     a5c:	2316      	movs	r3, #22
     a5e:	18fb      	adds	r3, r7, r3
     a60:	2200      	movs	r2, #0
     a62:	701a      	strb	r2, [r3, #0]
	/* Null-pointer check */
	if ((dev == NULL) || (dev->write == NULL)) {
     a64:	687b      	ldr	r3, [r7, #4]
     a66:	2b00      	cmp	r3, #0
     a68:	d003      	beq.n	a72 <bmi160_set_regs+0x3a>
     a6a:	687b      	ldr	r3, [r7, #4]
     a6c:	6a1b      	ldr	r3, [r3, #32]
     a6e:	2b00      	cmp	r3, #0
     a70:	d104      	bne.n	a7c <bmi160_set_regs+0x44>
		rslt = BMI160_E_NULL_PTR;
     a72:	2317      	movs	r3, #23
     a74:	18fb      	adds	r3, r7, r3
     a76:	22ff      	movs	r2, #255	; 0xff
     a78:	701a      	strb	r2, [r3, #0]
     a7a:	e060      	b.n	b3e <bmi160_set_regs+0x106>
	} else {
		/* Configuring reg_addr for SPI Interface */
		if (dev->interface == BMI160_SPI_INTF)
     a7c:	687b      	ldr	r3, [r7, #4]
     a7e:	789b      	ldrb	r3, [r3, #2]
     a80:	2b01      	cmp	r3, #1
     a82:	d107      	bne.n	a94 <bmi160_set_regs+0x5c>
			reg_addr = (reg_addr & BMI160_SPI_WR_MASK);
     a84:	230f      	movs	r3, #15
     a86:	18fb      	adds	r3, r7, r3
     a88:	220f      	movs	r2, #15
     a8a:	18ba      	adds	r2, r7, r2
     a8c:	7812      	ldrb	r2, [r2, #0]
     a8e:	217f      	movs	r1, #127	; 0x7f
     a90:	400a      	ands	r2, r1
     a92:	701a      	strb	r2, [r3, #0]

		if ((dev->prev_accel_cfg.power == BMI160_ACCEL_NORMAL_MODE) ||
     a94:	687b      	ldr	r3, [r7, #4]
     a96:	7a1b      	ldrb	r3, [r3, #8]
     a98:	2b11      	cmp	r3, #17
     a9a:	d003      	beq.n	aa4 <bmi160_set_regs+0x6c>
			(dev->prev_gyro_cfg.power == BMI160_GYRO_NORMAL_MODE)) {
     a9c:	687b      	ldr	r3, [r7, #4]
     a9e:	7c1b      	ldrb	r3, [r3, #16]
		if ((dev->prev_accel_cfg.power == BMI160_ACCEL_NORMAL_MODE) ||
     aa0:	2b15      	cmp	r3, #21
     aa2:	d139      	bne.n	b18 <bmi160_set_regs+0xe0>

			rslt = dev->write(dev->id, reg_addr, data, len);
     aa4:	687b      	ldr	r3, [r7, #4]
     aa6:	6a1d      	ldr	r5, [r3, #32]
     aa8:	687b      	ldr	r3, [r7, #4]
     aaa:	7858      	ldrb	r0, [r3, #1]
     aac:	2317      	movs	r3, #23
     aae:	18fc      	adds	r4, r7, r3
     ab0:	230c      	movs	r3, #12
     ab2:	18fb      	adds	r3, r7, r3
     ab4:	881e      	ldrh	r6, [r3, #0]
     ab6:	68ba      	ldr	r2, [r7, #8]
     ab8:	230f      	movs	r3, #15
     aba:	18fb      	adds	r3, r7, r3
     abc:	7819      	ldrb	r1, [r3, #0]
     abe:	0033      	movs	r3, r6
     ac0:	47a8      	blx	r5
     ac2:	0003      	movs	r3, r0
     ac4:	7023      	strb	r3, [r4, #0]
			/* Kindly refer section 3.2.4 of data-sheet*/
			dev->delay_ms(1);
     ac6:	687b      	ldr	r3, [r7, #4]
     ac8:	6a5b      	ldr	r3, [r3, #36]	; 0x24
     aca:	2001      	movs	r0, #1
     acc:	4798      	blx	r3
     ace:	e02c      	b.n	b2a <bmi160_set_regs+0xf2>
		} else {
			/*Burst write is not allowed in
			suspend & low power mode */
			for (; count < len; count++) {
				rslt = dev->write(dev->id, reg_addr, &data[count], 1);
     ad0:	687b      	ldr	r3, [r7, #4]
     ad2:	6a1d      	ldr	r5, [r3, #32]
     ad4:	687b      	ldr	r3, [r7, #4]
     ad6:	7858      	ldrb	r0, [r3, #1]
     ad8:	2316      	movs	r3, #22
     ada:	18fb      	adds	r3, r7, r3
     adc:	781b      	ldrb	r3, [r3, #0]
     ade:	68ba      	ldr	r2, [r7, #8]
     ae0:	18d2      	adds	r2, r2, r3
     ae2:	2317      	movs	r3, #23
     ae4:	18fc      	adds	r4, r7, r3
     ae6:	230f      	movs	r3, #15
     ae8:	18fb      	adds	r3, r7, r3
     aea:	7819      	ldrb	r1, [r3, #0]
     aec:	2301      	movs	r3, #1
     aee:	47a8      	blx	r5
     af0:	0003      	movs	r3, r0
     af2:	7023      	strb	r3, [r4, #0]
				reg_addr++;
     af4:	230f      	movs	r3, #15
     af6:	18fb      	adds	r3, r7, r3
     af8:	781a      	ldrb	r2, [r3, #0]
     afa:	230f      	movs	r3, #15
     afc:	18fb      	adds	r3, r7, r3
     afe:	3201      	adds	r2, #1
     b00:	701a      	strb	r2, [r3, #0]
				/* Kindly refer section 3.2.4 of data-sheet*/
				dev->delay_ms(1);
     b02:	687b      	ldr	r3, [r7, #4]
     b04:	6a5b      	ldr	r3, [r3, #36]	; 0x24
     b06:	2001      	movs	r0, #1
     b08:	4798      	blx	r3
			for (; count < len; count++) {
     b0a:	2316      	movs	r3, #22
     b0c:	18fb      	adds	r3, r7, r3
     b0e:	781a      	ldrb	r2, [r3, #0]
     b10:	2316      	movs	r3, #22
     b12:	18fb      	adds	r3, r7, r3
     b14:	3201      	adds	r2, #1
     b16:	701a      	strb	r2, [r3, #0]
     b18:	2316      	movs	r3, #22
     b1a:	18fb      	adds	r3, r7, r3
     b1c:	781b      	ldrb	r3, [r3, #0]
     b1e:	b29b      	uxth	r3, r3
     b20:	220c      	movs	r2, #12
     b22:	18ba      	adds	r2, r7, r2
     b24:	8812      	ldrh	r2, [r2, #0]
     b26:	429a      	cmp	r2, r3
     b28:	d8d2      	bhi.n	ad0 <bmi160_set_regs+0x98>
			}
		}

		if (rslt != BMI160_OK)
     b2a:	2317      	movs	r3, #23
     b2c:	18fb      	adds	r3, r7, r3
     b2e:	781b      	ldrb	r3, [r3, #0]
     b30:	b25b      	sxtb	r3, r3
     b32:	2b00      	cmp	r3, #0
     b34:	d003      	beq.n	b3e <bmi160_set_regs+0x106>
			rslt = BMI160_E_COM_FAIL;
     b36:	2317      	movs	r3, #23
     b38:	18fb      	adds	r3, r7, r3
     b3a:	22fe      	movs	r2, #254	; 0xfe
     b3c:	701a      	strb	r2, [r3, #0]
	}

	return rslt;
     b3e:	2317      	movs	r3, #23
     b40:	18fb      	adds	r3, r7, r3
     b42:	781b      	ldrb	r3, [r3, #0]
     b44:	b25b      	sxtb	r3, r3
}
     b46:	0018      	movs	r0, r3
     b48:	46bd      	mov	sp, r7
     b4a:	b007      	add	sp, #28
     b4c:	bdf0      	pop	{r4, r5, r6, r7, pc}
	...

00000b50 <bmi160_init>:
 *  @brief This API is the entry point for sensor.It performs
 *  the selection of I2C/SPI read mechanism according to the
 *  selected interface and reads the chip-id of bmi160 sensor.
 */
int8_t bmi160_init(struct bmi160_dev *dev)
{
     b50:	b5b0      	push	{r4, r5, r7, lr}
     b52:	b084      	sub	sp, #16
     b54:	af00      	add	r7, sp, #0
     b56:	6078      	str	r0, [r7, #4]
	int8_t rslt;
	uint8_t data;
	uint8_t chip_id;

	/* Null-pointer check */
	rslt = null_ptr_check(dev);
     b58:	230f      	movs	r3, #15
     b5a:	18fc      	adds	r4, r7, r3
     b5c:	687b      	ldr	r3, [r7, #4]
     b5e:	0018      	movs	r0, r3
     b60:	4b28      	ldr	r3, [pc, #160]	; (c04 <bmi160_init+0xb4>)
     b62:	4798      	blx	r3
     b64:	0003      	movs	r3, r0
     b66:	7023      	strb	r3, [r4, #0]

	/* Dummy read of 0x7F register to enable SPI Interface
	 if SPI is used */
	if ((rslt == BMI160_OK) && (dev->interface == BMI160_SPI_INTF))
     b68:	230f      	movs	r3, #15
     b6a:	18fb      	adds	r3, r7, r3
     b6c:	781b      	ldrb	r3, [r3, #0]
     b6e:	b25b      	sxtb	r3, r3
     b70:	2b00      	cmp	r3, #0
     b72:	d10e      	bne.n	b92 <bmi160_init+0x42>
     b74:	687b      	ldr	r3, [r7, #4]
     b76:	789b      	ldrb	r3, [r3, #2]
     b78:	2b01      	cmp	r3, #1
     b7a:	d10a      	bne.n	b92 <bmi160_init+0x42>
		rslt = bmi160_get_regs(BMI160_SPI_COMM_TEST_ADDR, &data, 1, dev);
     b7c:	230f      	movs	r3, #15
     b7e:	18fc      	adds	r4, r7, r3
     b80:	687b      	ldr	r3, [r7, #4]
     b82:	220e      	movs	r2, #14
     b84:	18b9      	adds	r1, r7, r2
     b86:	2201      	movs	r2, #1
     b88:	207f      	movs	r0, #127	; 0x7f
     b8a:	4d1f      	ldr	r5, [pc, #124]	; (c08 <bmi160_init+0xb8>)
     b8c:	47a8      	blx	r5
     b8e:	0003      	movs	r3, r0
     b90:	7023      	strb	r3, [r4, #0]

	if (rslt == BMI160_OK) {
     b92:	230f      	movs	r3, #15
     b94:	18fb      	adds	r3, r7, r3
     b96:	781b      	ldrb	r3, [r3, #0]
     b98:	b25b      	sxtb	r3, r3
     b9a:	2b00      	cmp	r3, #0
     b9c:	d12a      	bne.n	bf4 <bmi160_init+0xa4>
		/* Read chip_id */
		rslt = bmi160_get_regs(BMI160_CHIP_ID_ADDR, &chip_id, 1, dev);
     b9e:	230f      	movs	r3, #15
     ba0:	18fc      	adds	r4, r7, r3
     ba2:	687b      	ldr	r3, [r7, #4]
     ba4:	220d      	movs	r2, #13
     ba6:	18b9      	adds	r1, r7, r2
     ba8:	2201      	movs	r2, #1
     baa:	2000      	movs	r0, #0
     bac:	4d16      	ldr	r5, [pc, #88]	; (c08 <bmi160_init+0xb8>)
     bae:	47a8      	blx	r5
     bb0:	0003      	movs	r3, r0
     bb2:	7023      	strb	r3, [r4, #0]

		if ((rslt == BMI160_OK) && (chip_id == BMI160_CHIP_ID)) {
     bb4:	230f      	movs	r3, #15
     bb6:	18fb      	adds	r3, r7, r3
     bb8:	781b      	ldrb	r3, [r3, #0]
     bba:	b25b      	sxtb	r3, r3
     bbc:	2b00      	cmp	r3, #0
     bbe:	d115      	bne.n	bec <bmi160_init+0x9c>
     bc0:	230d      	movs	r3, #13
     bc2:	18fb      	adds	r3, r7, r3
     bc4:	781b      	ldrb	r3, [r3, #0]
     bc6:	2bd1      	cmp	r3, #209	; 0xd1
     bc8:	d110      	bne.n	bec <bmi160_init+0x9c>
			dev->chip_id = chip_id;
     bca:	230d      	movs	r3, #13
     bcc:	18fb      	adds	r3, r7, r3
     bce:	781a      	ldrb	r2, [r3, #0]
     bd0:	687b      	ldr	r3, [r7, #4]
     bd2:	701a      	strb	r2, [r3, #0]
			dev->any_sig_sel = BMI160_BOTH_ANY_SIG_MOTION_DISABLED;
     bd4:	687b      	ldr	r3, [r7, #4]
     bd6:	22ff      	movs	r2, #255	; 0xff
     bd8:	70da      	strb	r2, [r3, #3]
			/* Soft reset */
			rslt = bmi160_soft_reset(dev);
     bda:	230f      	movs	r3, #15
     bdc:	18fc      	adds	r4, r7, r3
     bde:	687b      	ldr	r3, [r7, #4]
     be0:	0018      	movs	r0, r3
     be2:	4b0a      	ldr	r3, [pc, #40]	; (c0c <bmi160_init+0xbc>)
     be4:	4798      	blx	r3
     be6:	0003      	movs	r3, r0
     be8:	7023      	strb	r3, [r4, #0]
     bea:	e003      	b.n	bf4 <bmi160_init+0xa4>
		} else {
			rslt = BMI160_E_DEV_NOT_FOUND;
     bec:	230f      	movs	r3, #15
     bee:	18fb      	adds	r3, r7, r3
     bf0:	22fd      	movs	r2, #253	; 0xfd
     bf2:	701a      	strb	r2, [r3, #0]
		}
	}

	return rslt;
     bf4:	230f      	movs	r3, #15
     bf6:	18fb      	adds	r3, r7, r3
     bf8:	781b      	ldrb	r3, [r3, #0]
     bfa:	b25b      	sxtb	r3, r3
}
     bfc:	0018      	movs	r0, r3
     bfe:	46bd      	mov	sp, r7
     c00:	b004      	add	sp, #16
     c02:	bdb0      	pop	{r4, r5, r7, pc}
     c04:	00000dc9 	.word	0x00000dc9
     c08:	00000995 	.word	0x00000995
     c0c:	00000c11 	.word	0x00000c11

00000c10 <bmi160_soft_reset>:
/*!
 * @brief This API resets and restarts the device.
 * All register values are overwritten with default parameters.
 */
int8_t bmi160_soft_reset(struct bmi160_dev *dev)
{
     c10:	b5b0      	push	{r4, r5, r7, lr}
     c12:	b084      	sub	sp, #16
     c14:	af00      	add	r7, sp, #0
     c16:	6078      	str	r0, [r7, #4]
	int8_t rslt;
	uint8_t data = BMI160_SOFT_RESET_CMD;
     c18:	230e      	movs	r3, #14
     c1a:	18fb      	adds	r3, r7, r3
     c1c:	22b6      	movs	r2, #182	; 0xb6
     c1e:	701a      	strb	r2, [r3, #0]

	/* Null-pointer check */
	if ((dev == NULL) || (dev->delay_ms == NULL)) {
     c20:	687b      	ldr	r3, [r7, #4]
     c22:	2b00      	cmp	r3, #0
     c24:	d003      	beq.n	c2e <bmi160_soft_reset+0x1e>
     c26:	687b      	ldr	r3, [r7, #4]
     c28:	6a5b      	ldr	r3, [r3, #36]	; 0x24
     c2a:	2b00      	cmp	r3, #0
     c2c:	d104      	bne.n	c38 <bmi160_soft_reset+0x28>
		rslt = BMI160_E_NULL_PTR;
     c2e:	230f      	movs	r3, #15
     c30:	18fb      	adds	r3, r7, r3
     c32:	22ff      	movs	r2, #255	; 0xff
     c34:	701a      	strb	r2, [r3, #0]
     c36:	e02d      	b.n	c94 <bmi160_soft_reset+0x84>
	} else {
		 /* Reset the device */
		rslt = bmi160_set_regs(BMI160_COMMAND_REG_ADDR, &data, 1, dev);
     c38:	230f      	movs	r3, #15
     c3a:	18fc      	adds	r4, r7, r3
     c3c:	687b      	ldr	r3, [r7, #4]
     c3e:	220e      	movs	r2, #14
     c40:	18b9      	adds	r1, r7, r2
     c42:	2201      	movs	r2, #1
     c44:	207e      	movs	r0, #126	; 0x7e
     c46:	4d17      	ldr	r5, [pc, #92]	; (ca4 <bmi160_soft_reset+0x94>)
     c48:	47a8      	blx	r5
     c4a:	0003      	movs	r3, r0
     c4c:	7023      	strb	r3, [r4, #0]
		dev->delay_ms(BMI160_SOFT_RESET_DELAY_MS);
     c4e:	687b      	ldr	r3, [r7, #4]
     c50:	6a5b      	ldr	r3, [r3, #36]	; 0x24
     c52:	200f      	movs	r0, #15
     c54:	4798      	blx	r3
		if ((rslt == BMI160_OK) && (dev->interface == BMI160_SPI_INTF)) {
     c56:	230f      	movs	r3, #15
     c58:	18fb      	adds	r3, r7, r3
     c5a:	781b      	ldrb	r3, [r3, #0]
     c5c:	b25b      	sxtb	r3, r3
     c5e:	2b00      	cmp	r3, #0
     c60:	d10e      	bne.n	c80 <bmi160_soft_reset+0x70>
     c62:	687b      	ldr	r3, [r7, #4]
     c64:	789b      	ldrb	r3, [r3, #2]
     c66:	2b01      	cmp	r3, #1
     c68:	d10a      	bne.n	c80 <bmi160_soft_reset+0x70>
			/* Dummy read of 0x7F register to enable SPI Interface
			if SPI is used */
			rslt = bmi160_get_regs(BMI160_SPI_COMM_TEST_ADDR, &data, 1, dev);
     c6a:	230f      	movs	r3, #15
     c6c:	18fc      	adds	r4, r7, r3
     c6e:	687b      	ldr	r3, [r7, #4]
     c70:	220e      	movs	r2, #14
     c72:	18b9      	adds	r1, r7, r2
     c74:	2201      	movs	r2, #1
     c76:	207f      	movs	r0, #127	; 0x7f
     c78:	4d0b      	ldr	r5, [pc, #44]	; (ca8 <bmi160_soft_reset+0x98>)
     c7a:	47a8      	blx	r5
     c7c:	0003      	movs	r3, r0
     c7e:	7023      	strb	r3, [r4, #0]
		}
		if (rslt == BMI160_OK) {
     c80:	230f      	movs	r3, #15
     c82:	18fb      	adds	r3, r7, r3
     c84:	781b      	ldrb	r3, [r3, #0]
     c86:	b25b      	sxtb	r3, r3
     c88:	2b00      	cmp	r3, #0
     c8a:	d103      	bne.n	c94 <bmi160_soft_reset+0x84>
			/* Update the default parameters */
			default_param_settg(dev);
     c8c:	687b      	ldr	r3, [r7, #4]
     c8e:	0018      	movs	r0, r3
     c90:	4b06      	ldr	r3, [pc, #24]	; (cac <bmi160_soft_reset+0x9c>)
     c92:	4798      	blx	r3
		}
	}

	return rslt;
     c94:	230f      	movs	r3, #15
     c96:	18fb      	adds	r3, r7, r3
     c98:	781b      	ldrb	r3, [r3, #0]
     c9a:	b25b      	sxtb	r3, r3
}
     c9c:	0018      	movs	r0, r3
     c9e:	46bd      	mov	sp, r7
     ca0:	b004      	add	sp, #16
     ca2:	bdb0      	pop	{r4, r5, r7, pc}
     ca4:	00000a39 	.word	0x00000a39
     ca8:	00000995 	.word	0x00000995
     cac:	00000e11 	.word	0x00000e11

00000cb0 <bmi160_set_sens_conf>:
/*!
 * @brief This API configures the power mode, range and bandwidth
 * of sensor.
 */
int8_t bmi160_set_sens_conf(struct bmi160_dev *dev)
{
     cb0:	b590      	push	{r4, r7, lr}
     cb2:	b085      	sub	sp, #20
     cb4:	af00      	add	r7, sp, #0
     cb6:	6078      	str	r0, [r7, #4]
	int8_t rslt = BMI160_OK;
     cb8:	230f      	movs	r3, #15
     cba:	18fb      	adds	r3, r7, r3
     cbc:	2200      	movs	r2, #0
     cbe:	701a      	strb	r2, [r3, #0]

	/* Null-pointer check */
	if ((dev == NULL) || (dev->delay_ms == NULL)) {
     cc0:	687b      	ldr	r3, [r7, #4]
     cc2:	2b00      	cmp	r3, #0
     cc4:	d003      	beq.n	cce <bmi160_set_sens_conf+0x1e>
     cc6:	687b      	ldr	r3, [r7, #4]
     cc8:	6a5b      	ldr	r3, [r3, #36]	; 0x24
     cca:	2b00      	cmp	r3, #0
     ccc:	d104      	bne.n	cd8 <bmi160_set_sens_conf+0x28>
		rslt = BMI160_E_NULL_PTR;
     cce:	230f      	movs	r3, #15
     cd0:	18fb      	adds	r3, r7, r3
     cd2:	22ff      	movs	r2, #255	; 0xff
     cd4:	701a      	strb	r2, [r3, #0]
     cd6:	e031      	b.n	d3c <bmi160_set_sens_conf+0x8c>
	} else {
		rslt = set_accel_conf(dev);
     cd8:	230f      	movs	r3, #15
     cda:	18fc      	adds	r4, r7, r3
     cdc:	687b      	ldr	r3, [r7, #4]
     cde:	0018      	movs	r0, r3
     ce0:	4b1a      	ldr	r3, [pc, #104]	; (d4c <bmi160_set_sens_conf+0x9c>)
     ce2:	4798      	blx	r3
     ce4:	0003      	movs	r3, r0
     ce6:	7023      	strb	r3, [r4, #0]
		if (rslt == BMI160_OK) {
     ce8:	230f      	movs	r3, #15
     cea:	18fb      	adds	r3, r7, r3
     cec:	781b      	ldrb	r3, [r3, #0]
     cee:	b25b      	sxtb	r3, r3
     cf0:	2b00      	cmp	r3, #0
     cf2:	d123      	bne.n	d3c <bmi160_set_sens_conf+0x8c>
			rslt = set_gyro_conf(dev);
     cf4:	230f      	movs	r3, #15
     cf6:	18fc      	adds	r4, r7, r3
     cf8:	687b      	ldr	r3, [r7, #4]
     cfa:	0018      	movs	r0, r3
     cfc:	4b14      	ldr	r3, [pc, #80]	; (d50 <bmi160_set_sens_conf+0xa0>)
     cfe:	4798      	blx	r3
     d00:	0003      	movs	r3, r0
     d02:	7023      	strb	r3, [r4, #0]
			if (rslt == BMI160_OK) {
     d04:	230f      	movs	r3, #15
     d06:	18fb      	adds	r3, r7, r3
     d08:	781b      	ldrb	r3, [r3, #0]
     d0a:	b25b      	sxtb	r3, r3
     d0c:	2b00      	cmp	r3, #0
     d0e:	d115      	bne.n	d3c <bmi160_set_sens_conf+0x8c>
				/* write power mode for accel and gyro */
				rslt = bmi160_set_power_mode(dev);
     d10:	230f      	movs	r3, #15
     d12:	18fc      	adds	r4, r7, r3
     d14:	687b      	ldr	r3, [r7, #4]
     d16:	0018      	movs	r0, r3
     d18:	4b0e      	ldr	r3, [pc, #56]	; (d54 <bmi160_set_sens_conf+0xa4>)
     d1a:	4798      	blx	r3
     d1c:	0003      	movs	r3, r0
     d1e:	7023      	strb	r3, [r4, #0]
				if (rslt == BMI160_OK)
     d20:	230f      	movs	r3, #15
     d22:	18fb      	adds	r3, r7, r3
     d24:	781b      	ldrb	r3, [r3, #0]
     d26:	b25b      	sxtb	r3, r3
     d28:	2b00      	cmp	r3, #0
     d2a:	d107      	bne.n	d3c <bmi160_set_sens_conf+0x8c>
					rslt = check_invalid_settg(dev);
     d2c:	230f      	movs	r3, #15
     d2e:	18fc      	adds	r4, r7, r3
     d30:	687b      	ldr	r3, [r7, #4]
     d32:	0018      	movs	r0, r3
     d34:	4b08      	ldr	r3, [pc, #32]	; (d58 <bmi160_set_sens_conf+0xa8>)
     d36:	4798      	blx	r3
     d38:	0003      	movs	r3, r0
     d3a:	7023      	strb	r3, [r4, #0]
			}
		}
	}

	return rslt;
     d3c:	230f      	movs	r3, #15
     d3e:	18fb      	adds	r3, r7, r3
     d40:	781b      	ldrb	r3, [r3, #0]
     d42:	b25b      	sxtb	r3, r3
}
     d44:	0018      	movs	r0, r3
     d46:	46bd      	mov	sp, r7
     d48:	b005      	add	sp, #20
     d4a:	bd90      	pop	{r4, r7, pc}
     d4c:	00000e61 	.word	0x00000e61
     d50:	000011e5 	.word	0x000011e5
     d54:	00000d5d 	.word	0x00000d5d
     d58:	00001139 	.word	0x00001139

00000d5c <bmi160_set_power_mode>:

/*!
 * @brief This API sets the power mode of the sensor.
 */
int8_t bmi160_set_power_mode(struct bmi160_dev *dev)
{
     d5c:	b590      	push	{r4, r7, lr}
     d5e:	b085      	sub	sp, #20
     d60:	af00      	add	r7, sp, #0
     d62:	6078      	str	r0, [r7, #4]
	int8_t rslt = 0;
     d64:	230f      	movs	r3, #15
     d66:	18fb      	adds	r3, r7, r3
     d68:	2200      	movs	r2, #0
     d6a:	701a      	strb	r2, [r3, #0]

	/* Null-pointer check */
	if ((dev == NULL) || (dev->delay_ms == NULL)) {
     d6c:	687b      	ldr	r3, [r7, #4]
     d6e:	2b00      	cmp	r3, #0
     d70:	d003      	beq.n	d7a <bmi160_set_power_mode+0x1e>
     d72:	687b      	ldr	r3, [r7, #4]
     d74:	6a5b      	ldr	r3, [r3, #36]	; 0x24
     d76:	2b00      	cmp	r3, #0
     d78:	d104      	bne.n	d84 <bmi160_set_power_mode+0x28>
		rslt = BMI160_E_NULL_PTR;
     d7a:	230f      	movs	r3, #15
     d7c:	18fb      	adds	r3, r7, r3
     d7e:	22ff      	movs	r2, #255	; 0xff
     d80:	701a      	strb	r2, [r3, #0]
     d82:	e015      	b.n	db0 <bmi160_set_power_mode+0x54>
	} else {
		rslt = set_accel_pwr(dev);
     d84:	230f      	movs	r3, #15
     d86:	18fc      	adds	r4, r7, r3
     d88:	687b      	ldr	r3, [r7, #4]
     d8a:	0018      	movs	r0, r3
     d8c:	4b0c      	ldr	r3, [pc, #48]	; (dc0 <bmi160_set_power_mode+0x64>)
     d8e:	4798      	blx	r3
     d90:	0003      	movs	r3, r0
     d92:	7023      	strb	r3, [r4, #0]
		if (rslt == BMI160_OK)
     d94:	230f      	movs	r3, #15
     d96:	18fb      	adds	r3, r7, r3
     d98:	781b      	ldrb	r3, [r3, #0]
     d9a:	b25b      	sxtb	r3, r3
     d9c:	2b00      	cmp	r3, #0
     d9e:	d107      	bne.n	db0 <bmi160_set_power_mode+0x54>
			rslt = set_gyro_pwr(dev);
     da0:	230f      	movs	r3, #15
     da2:	18fc      	adds	r4, r7, r3
     da4:	687b      	ldr	r3, [r7, #4]
     da6:	0018      	movs	r0, r3
     da8:	4b06      	ldr	r3, [pc, #24]	; (dc4 <bmi160_set_power_mode+0x68>)
     daa:	4798      	blx	r3
     dac:	0003      	movs	r3, r0
     dae:	7023      	strb	r3, [r4, #0]
	}

	return rslt;
     db0:	230f      	movs	r3, #15
     db2:	18fb      	adds	r3, r7, r3
     db4:	781b      	ldrb	r3, [r3, #0]
     db6:	b25b      	sxtb	r3, r3

}
     db8:	0018      	movs	r0, r3
     dba:	46bd      	mov	sp, r7
     dbc:	b005      	add	sp, #20
     dbe:	bd90      	pop	{r4, r7, pc}
     dc0:	000014c9 	.word	0x000014c9
     dc4:	0000165d 	.word	0x0000165d

00000dc8 <null_ptr_check>:
/*!
 * @brief This internal API is used to validate the device structure pointer for
 * null conditions.
 */
static int8_t null_ptr_check(const struct bmi160_dev *dev)
{
     dc8:	b580      	push	{r7, lr}
     dca:	b084      	sub	sp, #16
     dcc:	af00      	add	r7, sp, #0
     dce:	6078      	str	r0, [r7, #4]
	int8_t rslt;

	if ((dev == NULL) || (dev->read == NULL) || (dev->write == NULL) || (dev->delay_ms == NULL)) {
     dd0:	687b      	ldr	r3, [r7, #4]
     dd2:	2b00      	cmp	r3, #0
     dd4:	d00b      	beq.n	dee <null_ptr_check+0x26>
     dd6:	687b      	ldr	r3, [r7, #4]
     dd8:	69db      	ldr	r3, [r3, #28]
     dda:	2b00      	cmp	r3, #0
     ddc:	d007      	beq.n	dee <null_ptr_check+0x26>
     dde:	687b      	ldr	r3, [r7, #4]
     de0:	6a1b      	ldr	r3, [r3, #32]
     de2:	2b00      	cmp	r3, #0
     de4:	d003      	beq.n	dee <null_ptr_check+0x26>
     de6:	687b      	ldr	r3, [r7, #4]
     de8:	6a5b      	ldr	r3, [r3, #36]	; 0x24
     dea:	2b00      	cmp	r3, #0
     dec:	d104      	bne.n	df8 <null_ptr_check+0x30>
		rslt = BMI160_E_NULL_PTR;
     dee:	230f      	movs	r3, #15
     df0:	18fb      	adds	r3, r7, r3
     df2:	22ff      	movs	r2, #255	; 0xff
     df4:	701a      	strb	r2, [r3, #0]
     df6:	e003      	b.n	e00 <null_ptr_check+0x38>
	} else {
		/* Device structure is fine */
		rslt = BMI160_OK;
     df8:	230f      	movs	r3, #15
     dfa:	18fb      	adds	r3, r7, r3
     dfc:	2200      	movs	r2, #0
     dfe:	701a      	strb	r2, [r3, #0]
	}

	return rslt;
     e00:	230f      	movs	r3, #15
     e02:	18fb      	adds	r3, r7, r3
     e04:	781b      	ldrb	r3, [r3, #0]
     e06:	b25b      	sxtb	r3, r3
}
     e08:	0018      	movs	r0, r3
     e0a:	46bd      	mov	sp, r7
     e0c:	b004      	add	sp, #16
     e0e:	bd80      	pop	{r7, pc}

00000e10 <default_param_settg>:
/*!
 * @brief This API sets the default configuration parameters of accel & gyro.
 * Also maintain the previous state of configurations.
 */
static void default_param_settg(struct bmi160_dev *dev)
{
     e10:	b580      	push	{r7, lr}
     e12:	b082      	sub	sp, #8
     e14:	af00      	add	r7, sp, #0
     e16:	6078      	str	r0, [r7, #4]
	/* Initializing accel and gyro params with
	* default values */
	dev->accel_cfg.bw = BMI160_ACCEL_BW_NORMAL_AVG4;
     e18:	687b      	ldr	r3, [r7, #4]
     e1a:	2202      	movs	r2, #2
     e1c:	71da      	strb	r2, [r3, #7]
	dev->accel_cfg.odr = BMI160_ACCEL_ODR_100HZ;
     e1e:	687b      	ldr	r3, [r7, #4]
     e20:	2208      	movs	r2, #8
     e22:	715a      	strb	r2, [r3, #5]
	dev->accel_cfg.power = BMI160_ACCEL_SUSPEND_MODE;
     e24:	687b      	ldr	r3, [r7, #4]
     e26:	2210      	movs	r2, #16
     e28:	711a      	strb	r2, [r3, #4]
	dev->accel_cfg.range = BMI160_ACCEL_RANGE_2G;
     e2a:	687b      	ldr	r3, [r7, #4]
     e2c:	2203      	movs	r2, #3
     e2e:	719a      	strb	r2, [r3, #6]
	dev->gyro_cfg.bw = BMI160_GYRO_BW_NORMAL_MODE;
     e30:	687b      	ldr	r3, [r7, #4]
     e32:	2202      	movs	r2, #2
     e34:	73da      	strb	r2, [r3, #15]
	dev->gyro_cfg.odr = BMI160_GYRO_ODR_100HZ;
     e36:	687b      	ldr	r3, [r7, #4]
     e38:	2208      	movs	r2, #8
     e3a:	735a      	strb	r2, [r3, #13]
	dev->gyro_cfg.power = BMI160_GYRO_SUSPEND_MODE;
     e3c:	687b      	ldr	r3, [r7, #4]
     e3e:	2214      	movs	r2, #20
     e40:	731a      	strb	r2, [r3, #12]
	dev->gyro_cfg.range = BMI160_GYRO_RANGE_2000_DPS;
     e42:	687b      	ldr	r3, [r7, #4]
     e44:	2200      	movs	r2, #0
     e46:	739a      	strb	r2, [r3, #14]

	/* To maintain the previous state of accel configuration */
	dev->prev_accel_cfg = dev->accel_cfg;
     e48:	687b      	ldr	r3, [r7, #4]
     e4a:	687a      	ldr	r2, [r7, #4]
     e4c:	6852      	ldr	r2, [r2, #4]
     e4e:	609a      	str	r2, [r3, #8]
	/* To maintain the previous state of gyro configuration */
	dev->prev_gyro_cfg = dev->gyro_cfg;
     e50:	687b      	ldr	r3, [r7, #4]
     e52:	687a      	ldr	r2, [r7, #4]
     e54:	68d2      	ldr	r2, [r2, #12]
     e56:	611a      	str	r2, [r3, #16]
}
     e58:	46c0      	nop			; (mov r8, r8)
     e5a:	46bd      	mov	sp, r7
     e5c:	b002      	add	sp, #8
     e5e:	bd80      	pop	{r7, pc}

00000e60 <set_accel_conf>:

/*!
 * @brief This API set the accel configuration.
 */
static int8_t set_accel_conf(struct bmi160_dev *dev)
{
     e60:	b5b0      	push	{r4, r5, r7, lr}
     e62:	b084      	sub	sp, #16
     e64:	af00      	add	r7, sp, #0
     e66:	6078      	str	r0, [r7, #4]
	int8_t rslt;
	uint8_t data[2]  = {0};
     e68:	230c      	movs	r3, #12
     e6a:	18fb      	adds	r3, r7, r3
     e6c:	2200      	movs	r2, #0
     e6e:	801a      	strh	r2, [r3, #0]

	rslt = check_accel_config(data, dev);
     e70:	230f      	movs	r3, #15
     e72:	18fc      	adds	r4, r7, r3
     e74:	687a      	ldr	r2, [r7, #4]
     e76:	230c      	movs	r3, #12
     e78:	18fb      	adds	r3, r7, r3
     e7a:	0011      	movs	r1, r2
     e7c:	0018      	movs	r0, r3
     e7e:	4b23      	ldr	r3, [pc, #140]	; (f0c <set_accel_conf+0xac>)
     e80:	4798      	blx	r3
     e82:	0003      	movs	r3, r0
     e84:	7023      	strb	r3, [r4, #0]
	if (rslt == BMI160_OK) {
     e86:	230f      	movs	r3, #15
     e88:	18fb      	adds	r3, r7, r3
     e8a:	781b      	ldrb	r3, [r3, #0]
     e8c:	b25b      	sxtb	r3, r3
     e8e:	2b00      	cmp	r3, #0
     e90:	d133      	bne.n	efa <set_accel_conf+0x9a>
		/* Write output data rate and bandwidth */
		rslt = bmi160_set_regs(BMI160_ACCEL_CONFIG_ADDR, &data[0], 1, dev);
     e92:	230f      	movs	r3, #15
     e94:	18fc      	adds	r4, r7, r3
     e96:	687b      	ldr	r3, [r7, #4]
     e98:	220c      	movs	r2, #12
     e9a:	18b9      	adds	r1, r7, r2
     e9c:	2201      	movs	r2, #1
     e9e:	2040      	movs	r0, #64	; 0x40
     ea0:	4d1b      	ldr	r5, [pc, #108]	; (f10 <set_accel_conf+0xb0>)
     ea2:	47a8      	blx	r5
     ea4:	0003      	movs	r3, r0
     ea6:	7023      	strb	r3, [r4, #0]
		if (rslt == BMI160_OK) {
     ea8:	230f      	movs	r3, #15
     eaa:	18fb      	adds	r3, r7, r3
     eac:	781b      	ldrb	r3, [r3, #0]
     eae:	b25b      	sxtb	r3, r3
     eb0:	2b00      	cmp	r3, #0
     eb2:	d122      	bne.n	efa <set_accel_conf+0x9a>
			dev->prev_accel_cfg.odr = dev->accel_cfg.odr;
     eb4:	687b      	ldr	r3, [r7, #4]
     eb6:	795a      	ldrb	r2, [r3, #5]
     eb8:	687b      	ldr	r3, [r7, #4]
     eba:	725a      	strb	r2, [r3, #9]
			dev->prev_accel_cfg.bw = dev->accel_cfg.bw;
     ebc:	687b      	ldr	r3, [r7, #4]
     ebe:	79da      	ldrb	r2, [r3, #7]
     ec0:	687b      	ldr	r3, [r7, #4]
     ec2:	72da      	strb	r2, [r3, #11]
			dev->delay_ms(BMI160_ONE_MS_DELAY);
     ec4:	687b      	ldr	r3, [r7, #4]
     ec6:	6a5b      	ldr	r3, [r3, #36]	; 0x24
     ec8:	2001      	movs	r0, #1
     eca:	4798      	blx	r3
			/* write accel range */
			rslt = bmi160_set_regs(BMI160_ACCEL_RANGE_ADDR, &data[1], 1, dev);
     ecc:	230f      	movs	r3, #15
     ece:	18fc      	adds	r4, r7, r3
     ed0:	687a      	ldr	r2, [r7, #4]
     ed2:	230c      	movs	r3, #12
     ed4:	18fb      	adds	r3, r7, r3
     ed6:	1c59      	adds	r1, r3, #1
     ed8:	0013      	movs	r3, r2
     eda:	2201      	movs	r2, #1
     edc:	2041      	movs	r0, #65	; 0x41
     ede:	4d0c      	ldr	r5, [pc, #48]	; (f10 <set_accel_conf+0xb0>)
     ee0:	47a8      	blx	r5
     ee2:	0003      	movs	r3, r0
     ee4:	7023      	strb	r3, [r4, #0]
			if (rslt == BMI160_OK)
     ee6:	230f      	movs	r3, #15
     ee8:	18fb      	adds	r3, r7, r3
     eea:	781b      	ldrb	r3, [r3, #0]
     eec:	b25b      	sxtb	r3, r3
     eee:	2b00      	cmp	r3, #0
     ef0:	d103      	bne.n	efa <set_accel_conf+0x9a>
				dev->prev_accel_cfg.range = dev->accel_cfg.range;
     ef2:	687b      	ldr	r3, [r7, #4]
     ef4:	799a      	ldrb	r2, [r3, #6]
     ef6:	687b      	ldr	r3, [r7, #4]
     ef8:	729a      	strb	r2, [r3, #10]
		}
	}

	return rslt;
     efa:	230f      	movs	r3, #15
     efc:	18fb      	adds	r3, r7, r3
     efe:	781b      	ldrb	r3, [r3, #0]
     f00:	b25b      	sxtb	r3, r3
}
     f02:	0018      	movs	r0, r3
     f04:	46bd      	mov	sp, r7
     f06:	b004      	add	sp, #16
     f08:	bdb0      	pop	{r4, r5, r7, pc}
     f0a:	46c0      	nop			; (mov r8, r8)
     f0c:	00000f15 	.word	0x00000f15
     f10:	00000a39 	.word	0x00000a39

00000f14 <check_accel_config>:

/*!
* @brief This API check the accel configuration.
*/
static int8_t check_accel_config(uint8_t *data, const struct bmi160_dev *dev)
{
     f14:	b5b0      	push	{r4, r5, r7, lr}
     f16:	b084      	sub	sp, #16
     f18:	af00      	add	r7, sp, #0
     f1a:	6078      	str	r0, [r7, #4]
     f1c:	6039      	str	r1, [r7, #0]
	int8_t rslt;

	/* read accel Output data rate and bandwidth */
	rslt = bmi160_get_regs(BMI160_ACCEL_CONFIG_ADDR, data, 2, dev);
     f1e:	230f      	movs	r3, #15
     f20:	18fc      	adds	r4, r7, r3
     f22:	683b      	ldr	r3, [r7, #0]
     f24:	6879      	ldr	r1, [r7, #4]
     f26:	2202      	movs	r2, #2
     f28:	2040      	movs	r0, #64	; 0x40
     f2a:	4d1e      	ldr	r5, [pc, #120]	; (fa4 <check_accel_config+0x90>)
     f2c:	47a8      	blx	r5
     f2e:	0003      	movs	r3, r0
     f30:	7023      	strb	r3, [r4, #0]
	if (rslt == BMI160_OK) {
     f32:	230f      	movs	r3, #15
     f34:	18fb      	adds	r3, r7, r3
     f36:	781b      	ldrb	r3, [r3, #0]
     f38:	b25b      	sxtb	r3, r3
     f3a:	2b00      	cmp	r3, #0
     f3c:	d12a      	bne.n	f94 <check_accel_config+0x80>
		rslt = process_accel_odr(&data[0], dev);
     f3e:	230f      	movs	r3, #15
     f40:	18fc      	adds	r4, r7, r3
     f42:	683a      	ldr	r2, [r7, #0]
     f44:	687b      	ldr	r3, [r7, #4]
     f46:	0011      	movs	r1, r2
     f48:	0018      	movs	r0, r3
     f4a:	4b17      	ldr	r3, [pc, #92]	; (fa8 <check_accel_config+0x94>)
     f4c:	4798      	blx	r3
     f4e:	0003      	movs	r3, r0
     f50:	7023      	strb	r3, [r4, #0]
		if (rslt == BMI160_OK) {
     f52:	230f      	movs	r3, #15
     f54:	18fb      	adds	r3, r7, r3
     f56:	781b      	ldrb	r3, [r3, #0]
     f58:	b25b      	sxtb	r3, r3
     f5a:	2b00      	cmp	r3, #0
     f5c:	d11a      	bne.n	f94 <check_accel_config+0x80>
			rslt = process_accel_bw(&data[0], dev);
     f5e:	230f      	movs	r3, #15
     f60:	18fc      	adds	r4, r7, r3
     f62:	683a      	ldr	r2, [r7, #0]
     f64:	687b      	ldr	r3, [r7, #4]
     f66:	0011      	movs	r1, r2
     f68:	0018      	movs	r0, r3
     f6a:	4b10      	ldr	r3, [pc, #64]	; (fac <check_accel_config+0x98>)
     f6c:	4798      	blx	r3
     f6e:	0003      	movs	r3, r0
     f70:	7023      	strb	r3, [r4, #0]
			if (rslt == BMI160_OK)
     f72:	230f      	movs	r3, #15
     f74:	18fb      	adds	r3, r7, r3
     f76:	781b      	ldrb	r3, [r3, #0]
     f78:	b25b      	sxtb	r3, r3
     f7a:	2b00      	cmp	r3, #0
     f7c:	d10a      	bne.n	f94 <check_accel_config+0x80>
				rslt = process_accel_range(&data[1], dev);
     f7e:	687b      	ldr	r3, [r7, #4]
     f80:	3301      	adds	r3, #1
     f82:	220f      	movs	r2, #15
     f84:	18bc      	adds	r4, r7, r2
     f86:	683a      	ldr	r2, [r7, #0]
     f88:	0011      	movs	r1, r2
     f8a:	0018      	movs	r0, r3
     f8c:	4b08      	ldr	r3, [pc, #32]	; (fb0 <check_accel_config+0x9c>)
     f8e:	4798      	blx	r3
     f90:	0003      	movs	r3, r0
     f92:	7023      	strb	r3, [r4, #0]
		}
	}

	return rslt;
     f94:	230f      	movs	r3, #15
     f96:	18fb      	adds	r3, r7, r3
     f98:	781b      	ldrb	r3, [r3, #0]
     f9a:	b25b      	sxtb	r3, r3
}
     f9c:	0018      	movs	r0, r3
     f9e:	46bd      	mov	sp, r7
     fa0:	b004      	add	sp, #16
     fa2:	bdb0      	pop	{r4, r5, r7, pc}
     fa4:	00000995 	.word	0x00000995
     fa8:	00000fb5 	.word	0x00000fb5
     fac:	0000103d 	.word	0x0000103d
     fb0:	000010af 	.word	0x000010af

00000fb4 <process_accel_odr>:

/*!
 * @brief This API process the accel odr.
 */
static int8_t process_accel_odr(uint8_t *data, const struct bmi160_dev *dev)
{
     fb4:	b580      	push	{r7, lr}
     fb6:	b084      	sub	sp, #16
     fb8:	af00      	add	r7, sp, #0
     fba:	6078      	str	r0, [r7, #4]
     fbc:	6039      	str	r1, [r7, #0]
	int8_t rslt = 0;
     fbe:	230f      	movs	r3, #15
     fc0:	18fb      	adds	r3, r7, r3
     fc2:	2200      	movs	r2, #0
     fc4:	701a      	strb	r2, [r3, #0]
	uint8_t temp = 0;
     fc6:	230e      	movs	r3, #14
     fc8:	18fb      	adds	r3, r7, r3
     fca:	2200      	movs	r2, #0
     fcc:	701a      	strb	r2, [r3, #0]
	uint8_t odr = 0;
     fce:	230d      	movs	r3, #13
     fd0:	18fb      	adds	r3, r7, r3
     fd2:	2200      	movs	r2, #0
     fd4:	701a      	strb	r2, [r3, #0]

	if (dev->accel_cfg.odr <= BMI160_ACCEL_ODR_MAX) {
     fd6:	683b      	ldr	r3, [r7, #0]
     fd8:	795b      	ldrb	r3, [r3, #5]
     fda:	2b0f      	cmp	r3, #15
     fdc:	d822      	bhi.n	1024 <process_accel_odr+0x70>
		if (dev->accel_cfg.odr != dev->prev_accel_cfg.odr) {
     fde:	683b      	ldr	r3, [r7, #0]
     fe0:	795a      	ldrb	r2, [r3, #5]
     fe2:	683b      	ldr	r3, [r7, #0]
     fe4:	7a5b      	ldrb	r3, [r3, #9]
     fe6:	429a      	cmp	r2, r3
     fe8:	d020      	beq.n	102c <process_accel_odr+0x78>
			odr = (uint8_t)dev->accel_cfg.odr;
     fea:	230d      	movs	r3, #13
     fec:	18fb      	adds	r3, r7, r3
     fee:	683a      	ldr	r2, [r7, #0]
     ff0:	7952      	ldrb	r2, [r2, #5]
     ff2:	701a      	strb	r2, [r3, #0]
			temp = *data & ~BMI160_ACCEL_ODR_MASK;
     ff4:	687b      	ldr	r3, [r7, #4]
     ff6:	781a      	ldrb	r2, [r3, #0]
     ff8:	230e      	movs	r3, #14
     ffa:	18fb      	adds	r3, r7, r3
     ffc:	210f      	movs	r1, #15
     ffe:	438a      	bics	r2, r1
    1000:	701a      	strb	r2, [r3, #0]
			/* Adding output data rate */
			*data = temp | (odr & BMI160_ACCEL_ODR_MASK);
    1002:	230d      	movs	r3, #13
    1004:	18fb      	adds	r3, r7, r3
    1006:	781b      	ldrb	r3, [r3, #0]
    1008:	b25b      	sxtb	r3, r3
    100a:	220f      	movs	r2, #15
    100c:	4013      	ands	r3, r2
    100e:	b25a      	sxtb	r2, r3
    1010:	230e      	movs	r3, #14
    1012:	18fb      	adds	r3, r7, r3
    1014:	781b      	ldrb	r3, [r3, #0]
    1016:	b25b      	sxtb	r3, r3
    1018:	4313      	orrs	r3, r2
    101a:	b25b      	sxtb	r3, r3
    101c:	b2da      	uxtb	r2, r3
    101e:	687b      	ldr	r3, [r7, #4]
    1020:	701a      	strb	r2, [r3, #0]
    1022:	e003      	b.n	102c <process_accel_odr+0x78>
		}
	} else {
		rslt = BMI160_E_OUT_OF_RANGE;
    1024:	230f      	movs	r3, #15
    1026:	18fb      	adds	r3, r7, r3
    1028:	22fc      	movs	r2, #252	; 0xfc
    102a:	701a      	strb	r2, [r3, #0]
	}

	return rslt;
    102c:	230f      	movs	r3, #15
    102e:	18fb      	adds	r3, r7, r3
    1030:	781b      	ldrb	r3, [r3, #0]
    1032:	b25b      	sxtb	r3, r3
}
    1034:	0018      	movs	r0, r3
    1036:	46bd      	mov	sp, r7
    1038:	b004      	add	sp, #16
    103a:	bd80      	pop	{r7, pc}

0000103c <process_accel_bw>:

/*!
 * @brief This API process the accel bandwidth.
 */
static int8_t process_accel_bw(uint8_t *data, const struct bmi160_dev *dev)
{
    103c:	b580      	push	{r7, lr}
    103e:	b084      	sub	sp, #16
    1040:	af00      	add	r7, sp, #0
    1042:	6078      	str	r0, [r7, #4]
    1044:	6039      	str	r1, [r7, #0]
	int8_t rslt = 0;
    1046:	230f      	movs	r3, #15
    1048:	18fb      	adds	r3, r7, r3
    104a:	2200      	movs	r2, #0
    104c:	701a      	strb	r2, [r3, #0]
	uint8_t temp = 0;
    104e:	230e      	movs	r3, #14
    1050:	18fb      	adds	r3, r7, r3
    1052:	2200      	movs	r2, #0
    1054:	701a      	strb	r2, [r3, #0]
	uint8_t bw = 0;
    1056:	230d      	movs	r3, #13
    1058:	18fb      	adds	r3, r7, r3
    105a:	2200      	movs	r2, #0
    105c:	701a      	strb	r2, [r3, #0]

	if (dev->accel_cfg.bw <= BMI160_ACCEL_BW_MAX) {
    105e:	683b      	ldr	r3, [r7, #0]
    1060:	79db      	ldrb	r3, [r3, #7]
    1062:	2b02      	cmp	r3, #2
    1064:	d817      	bhi.n	1096 <process_accel_bw+0x5a>
		if (dev->accel_cfg.bw != dev->prev_accel_cfg.bw) {
    1066:	683b      	ldr	r3, [r7, #0]
    1068:	79da      	ldrb	r2, [r3, #7]
    106a:	683b      	ldr	r3, [r7, #0]
    106c:	7adb      	ldrb	r3, [r3, #11]
    106e:	429a      	cmp	r2, r3
    1070:	d015      	beq.n	109e <process_accel_bw+0x62>
			bw = (uint8_t)dev->accel_cfg.bw;
    1072:	230d      	movs	r3, #13
    1074:	18fb      	adds	r3, r7, r3
    1076:	683a      	ldr	r2, [r7, #0]
    1078:	79d2      	ldrb	r2, [r2, #7]
    107a:	701a      	strb	r2, [r3, #0]
			temp = *data & ~BMI160_ACCEL_BW_MASK;
    107c:	687b      	ldr	r3, [r7, #4]
    107e:	781a      	ldrb	r2, [r3, #0]
    1080:	230e      	movs	r3, #14
    1082:	18fb      	adds	r3, r7, r3
    1084:	2170      	movs	r1, #112	; 0x70
    1086:	438a      	bics	r2, r1
    1088:	701a      	strb	r2, [r3, #0]
			/* Adding bandwidth */
			*data = temp | ((bw << 4) & BMI160_ACCEL_ODR_MASK);
    108a:	687b      	ldr	r3, [r7, #4]
    108c:	220e      	movs	r2, #14
    108e:	18ba      	adds	r2, r7, r2
    1090:	7812      	ldrb	r2, [r2, #0]
    1092:	701a      	strb	r2, [r3, #0]
    1094:	e003      	b.n	109e <process_accel_bw+0x62>
		}
	} else {
		rslt = BMI160_E_OUT_OF_RANGE;
    1096:	230f      	movs	r3, #15
    1098:	18fb      	adds	r3, r7, r3
    109a:	22fc      	movs	r2, #252	; 0xfc
    109c:	701a      	strb	r2, [r3, #0]
	}

	return rslt;
    109e:	230f      	movs	r3, #15
    10a0:	18fb      	adds	r3, r7, r3
    10a2:	781b      	ldrb	r3, [r3, #0]
    10a4:	b25b      	sxtb	r3, r3
}
    10a6:	0018      	movs	r0, r3
    10a8:	46bd      	mov	sp, r7
    10aa:	b004      	add	sp, #16
    10ac:	bd80      	pop	{r7, pc}

000010ae <process_accel_range>:

/*!
 * @brief This API process the accel range.
 */
static int8_t process_accel_range(uint8_t *data, const struct bmi160_dev *dev)
{
    10ae:	b580      	push	{r7, lr}
    10b0:	b084      	sub	sp, #16
    10b2:	af00      	add	r7, sp, #0
    10b4:	6078      	str	r0, [r7, #4]
    10b6:	6039      	str	r1, [r7, #0]
	int8_t rslt = 0;
    10b8:	230f      	movs	r3, #15
    10ba:	18fb      	adds	r3, r7, r3
    10bc:	2200      	movs	r2, #0
    10be:	701a      	strb	r2, [r3, #0]
	uint8_t temp = 0;
    10c0:	230e      	movs	r3, #14
    10c2:	18fb      	adds	r3, r7, r3
    10c4:	2200      	movs	r2, #0
    10c6:	701a      	strb	r2, [r3, #0]
	uint8_t range = 0;
    10c8:	230d      	movs	r3, #13
    10ca:	18fb      	adds	r3, r7, r3
    10cc:	2200      	movs	r2, #0
    10ce:	701a      	strb	r2, [r3, #0]

	if (dev->accel_cfg.range <= BMI160_ACCEL_RANGE_MAX) {
    10d0:	683b      	ldr	r3, [r7, #0]
    10d2:	799b      	ldrb	r3, [r3, #6]
    10d4:	2b0c      	cmp	r3, #12
    10d6:	d822      	bhi.n	111e <process_accel_range+0x70>
		if (dev->accel_cfg.range != dev->prev_accel_cfg.range) {
    10d8:	683b      	ldr	r3, [r7, #0]
    10da:	799a      	ldrb	r2, [r3, #6]
    10dc:	683b      	ldr	r3, [r7, #0]
    10de:	7a9b      	ldrb	r3, [r3, #10]
    10e0:	429a      	cmp	r2, r3
    10e2:	d020      	beq.n	1126 <process_accel_range+0x78>
			range = (uint8_t)dev->accel_cfg.range;
    10e4:	230d      	movs	r3, #13
    10e6:	18fb      	adds	r3, r7, r3
    10e8:	683a      	ldr	r2, [r7, #0]
    10ea:	7992      	ldrb	r2, [r2, #6]
    10ec:	701a      	strb	r2, [r3, #0]
			temp = *data & ~BMI160_ACCEL_RANGE_MASK;
    10ee:	687b      	ldr	r3, [r7, #4]
    10f0:	781a      	ldrb	r2, [r3, #0]
    10f2:	230e      	movs	r3, #14
    10f4:	18fb      	adds	r3, r7, r3
    10f6:	210f      	movs	r1, #15
    10f8:	438a      	bics	r2, r1
    10fa:	701a      	strb	r2, [r3, #0]
			/* Adding range */
			*data = temp | (range & BMI160_ACCEL_RANGE_MASK);
    10fc:	230d      	movs	r3, #13
    10fe:	18fb      	adds	r3, r7, r3
    1100:	781b      	ldrb	r3, [r3, #0]
    1102:	b25b      	sxtb	r3, r3
    1104:	220f      	movs	r2, #15
    1106:	4013      	ands	r3, r2
    1108:	b25a      	sxtb	r2, r3
    110a:	230e      	movs	r3, #14
    110c:	18fb      	adds	r3, r7, r3
    110e:	781b      	ldrb	r3, [r3, #0]
    1110:	b25b      	sxtb	r3, r3
    1112:	4313      	orrs	r3, r2
    1114:	b25b      	sxtb	r3, r3
    1116:	b2da      	uxtb	r2, r3
    1118:	687b      	ldr	r3, [r7, #4]
    111a:	701a      	strb	r2, [r3, #0]
    111c:	e003      	b.n	1126 <process_accel_range+0x78>
		}
	} else {
		rslt = BMI160_E_OUT_OF_RANGE;
    111e:	230f      	movs	r3, #15
    1120:	18fb      	adds	r3, r7, r3
    1122:	22fc      	movs	r2, #252	; 0xfc
    1124:	701a      	strb	r2, [r3, #0]
	}

	return rslt;
    1126:	230f      	movs	r3, #15
    1128:	18fb      	adds	r3, r7, r3
    112a:	781b      	ldrb	r3, [r3, #0]
    112c:	b25b      	sxtb	r3, r3
}
    112e:	0018      	movs	r0, r3
    1130:	46bd      	mov	sp, r7
    1132:	b004      	add	sp, #16
    1134:	bd80      	pop	{r7, pc}
	...

00001138 <check_invalid_settg>:
/*!
 * @brief This API checks the invalid settings for ODR & Bw for
 * Accel and Gyro.
 */
static int8_t check_invalid_settg(const struct bmi160_dev *dev)
{
    1138:	b5b0      	push	{r4, r5, r7, lr}
    113a:	b084      	sub	sp, #16
    113c:	af00      	add	r7, sp, #0
    113e:	6078      	str	r0, [r7, #4]
	int8_t rslt;
	uint8_t data = 0;
    1140:	230e      	movs	r3, #14
    1142:	18fb      	adds	r3, r7, r3
    1144:	2200      	movs	r2, #0
    1146:	701a      	strb	r2, [r3, #0]

	/* read the error reg */
	rslt = bmi160_get_regs(BMI160_ERROR_REG_ADDR, &data, 1, dev);
    1148:	230f      	movs	r3, #15
    114a:	18fc      	adds	r4, r7, r3
    114c:	687b      	ldr	r3, [r7, #4]
    114e:	220e      	movs	r2, #14
    1150:	18b9      	adds	r1, r7, r2
    1152:	2201      	movs	r2, #1
    1154:	2002      	movs	r0, #2
    1156:	4d22      	ldr	r5, [pc, #136]	; (11e0 <check_invalid_settg+0xa8>)
    1158:	47a8      	blx	r5
    115a:	0003      	movs	r3, r0
    115c:	7023      	strb	r3, [r4, #0]

	data = data >> 1;
    115e:	230e      	movs	r3, #14
    1160:	18fb      	adds	r3, r7, r3
    1162:	781b      	ldrb	r3, [r3, #0]
    1164:	085b      	lsrs	r3, r3, #1
    1166:	b2da      	uxtb	r2, r3
    1168:	230e      	movs	r3, #14
    116a:	18fb      	adds	r3, r7, r3
    116c:	701a      	strb	r2, [r3, #0]
	data = data & BMI160_ERR_REG_MASK;
    116e:	230e      	movs	r3, #14
    1170:	18fb      	adds	r3, r7, r3
    1172:	781b      	ldrb	r3, [r3, #0]
    1174:	220f      	movs	r2, #15
    1176:	4013      	ands	r3, r2
    1178:	b2da      	uxtb	r2, r3
    117a:	230e      	movs	r3, #14
    117c:	18fb      	adds	r3, r7, r3
    117e:	701a      	strb	r2, [r3, #0]
	if (data == 1)
    1180:	230e      	movs	r3, #14
    1182:	18fb      	adds	r3, r7, r3
    1184:	781b      	ldrb	r3, [r3, #0]
    1186:	2b01      	cmp	r3, #1
    1188:	d104      	bne.n	1194 <check_invalid_settg+0x5c>
		rslt = BMI160_E_ACCEL_ODR_BW_INVALID;
    118a:	230f      	movs	r3, #15
    118c:	18fb      	adds	r3, r7, r3
    118e:	22fa      	movs	r2, #250	; 0xfa
    1190:	701a      	strb	r2, [r3, #0]
    1192:	e01c      	b.n	11ce <check_invalid_settg+0x96>
	else if (data == 2)
    1194:	230e      	movs	r3, #14
    1196:	18fb      	adds	r3, r7, r3
    1198:	781b      	ldrb	r3, [r3, #0]
    119a:	2b02      	cmp	r3, #2
    119c:	d104      	bne.n	11a8 <check_invalid_settg+0x70>
		rslt = BMI160_E_GYRO_ODR_BW_INVALID;
    119e:	230f      	movs	r3, #15
    11a0:	18fb      	adds	r3, r7, r3
    11a2:	22f9      	movs	r2, #249	; 0xf9
    11a4:	701a      	strb	r2, [r3, #0]
    11a6:	e012      	b.n	11ce <check_invalid_settg+0x96>
	else if (data == 3)
    11a8:	230e      	movs	r3, #14
    11aa:	18fb      	adds	r3, r7, r3
    11ac:	781b      	ldrb	r3, [r3, #0]
    11ae:	2b03      	cmp	r3, #3
    11b0:	d104      	bne.n	11bc <check_invalid_settg+0x84>
		rslt = BMI160_E_LWP_PRE_FLTR_INT_INVALID;
    11b2:	230f      	movs	r3, #15
    11b4:	18fb      	adds	r3, r7, r3
    11b6:	22f8      	movs	r2, #248	; 0xf8
    11b8:	701a      	strb	r2, [r3, #0]
    11ba:	e008      	b.n	11ce <check_invalid_settg+0x96>
	else if (data == 7)
    11bc:	230e      	movs	r3, #14
    11be:	18fb      	adds	r3, r7, r3
    11c0:	781b      	ldrb	r3, [r3, #0]
    11c2:	2b07      	cmp	r3, #7
    11c4:	d103      	bne.n	11ce <check_invalid_settg+0x96>
		rslt = BMI160_E_LWP_PRE_FLTR_INVALID;
    11c6:	230f      	movs	r3, #15
    11c8:	18fb      	adds	r3, r7, r3
    11ca:	22f7      	movs	r2, #247	; 0xf7
    11cc:	701a      	strb	r2, [r3, #0]

	return rslt;
    11ce:	230f      	movs	r3, #15
    11d0:	18fb      	adds	r3, r7, r3
    11d2:	781b      	ldrb	r3, [r3, #0]
    11d4:	b25b      	sxtb	r3, r3
}
    11d6:	0018      	movs	r0, r3
    11d8:	46bd      	mov	sp, r7
    11da:	b004      	add	sp, #16
    11dc:	bdb0      	pop	{r4, r5, r7, pc}
    11de:	46c0      	nop			; (mov r8, r8)
    11e0:	00000995 	.word	0x00000995

000011e4 <set_gyro_conf>:

static int8_t set_gyro_conf(struct bmi160_dev *dev)
{
    11e4:	b5b0      	push	{r4, r5, r7, lr}
    11e6:	b084      	sub	sp, #16
    11e8:	af00      	add	r7, sp, #0
    11ea:	6078      	str	r0, [r7, #4]
	int8_t rslt;
	uint8_t data[2] = {0};
    11ec:	230c      	movs	r3, #12
    11ee:	18fb      	adds	r3, r7, r3
    11f0:	2200      	movs	r2, #0
    11f2:	801a      	strh	r2, [r3, #0]

	rslt = check_gyro_config(data, dev);
    11f4:	230f      	movs	r3, #15
    11f6:	18fc      	adds	r4, r7, r3
    11f8:	687a      	ldr	r2, [r7, #4]
    11fa:	230c      	movs	r3, #12
    11fc:	18fb      	adds	r3, r7, r3
    11fe:	0011      	movs	r1, r2
    1200:	0018      	movs	r0, r3
    1202:	4b23      	ldr	r3, [pc, #140]	; (1290 <set_gyro_conf+0xac>)
    1204:	4798      	blx	r3
    1206:	0003      	movs	r3, r0
    1208:	7023      	strb	r3, [r4, #0]
	if (rslt == BMI160_OK) {
    120a:	230f      	movs	r3, #15
    120c:	18fb      	adds	r3, r7, r3
    120e:	781b      	ldrb	r3, [r3, #0]
    1210:	b25b      	sxtb	r3, r3
    1212:	2b00      	cmp	r3, #0
    1214:	d133      	bne.n	127e <set_gyro_conf+0x9a>
		/* Write output data rate and bandwidth */
		rslt = bmi160_set_regs(BMI160_GYRO_CONFIG_ADDR, &data[0], 1, dev);
    1216:	230f      	movs	r3, #15
    1218:	18fc      	adds	r4, r7, r3
    121a:	687b      	ldr	r3, [r7, #4]
    121c:	220c      	movs	r2, #12
    121e:	18b9      	adds	r1, r7, r2
    1220:	2201      	movs	r2, #1
    1222:	2042      	movs	r0, #66	; 0x42
    1224:	4d1b      	ldr	r5, [pc, #108]	; (1294 <set_gyro_conf+0xb0>)
    1226:	47a8      	blx	r5
    1228:	0003      	movs	r3, r0
    122a:	7023      	strb	r3, [r4, #0]
		if (rslt == BMI160_OK) {
    122c:	230f      	movs	r3, #15
    122e:	18fb      	adds	r3, r7, r3
    1230:	781b      	ldrb	r3, [r3, #0]
    1232:	b25b      	sxtb	r3, r3
    1234:	2b00      	cmp	r3, #0
    1236:	d122      	bne.n	127e <set_gyro_conf+0x9a>
			dev->prev_gyro_cfg.odr = dev->gyro_cfg.odr;
    1238:	687b      	ldr	r3, [r7, #4]
    123a:	7b5a      	ldrb	r2, [r3, #13]
    123c:	687b      	ldr	r3, [r7, #4]
    123e:	745a      	strb	r2, [r3, #17]
			dev->prev_gyro_cfg.bw = dev->gyro_cfg.bw;
    1240:	687b      	ldr	r3, [r7, #4]
    1242:	7bda      	ldrb	r2, [r3, #15]
    1244:	687b      	ldr	r3, [r7, #4]
    1246:	74da      	strb	r2, [r3, #19]
			dev->delay_ms(BMI160_ONE_MS_DELAY);
    1248:	687b      	ldr	r3, [r7, #4]
    124a:	6a5b      	ldr	r3, [r3, #36]	; 0x24
    124c:	2001      	movs	r0, #1
    124e:	4798      	blx	r3
			/* Write gyro range */
			rslt = bmi160_set_regs(BMI160_GYRO_RANGE_ADDR, &data[1], 1, dev);
    1250:	230f      	movs	r3, #15
    1252:	18fc      	adds	r4, r7, r3
    1254:	687a      	ldr	r2, [r7, #4]
    1256:	230c      	movs	r3, #12
    1258:	18fb      	adds	r3, r7, r3
    125a:	1c59      	adds	r1, r3, #1
    125c:	0013      	movs	r3, r2
    125e:	2201      	movs	r2, #1
    1260:	2043      	movs	r0, #67	; 0x43
    1262:	4d0c      	ldr	r5, [pc, #48]	; (1294 <set_gyro_conf+0xb0>)
    1264:	47a8      	blx	r5
    1266:	0003      	movs	r3, r0
    1268:	7023      	strb	r3, [r4, #0]
			if (rslt == BMI160_OK)
    126a:	230f      	movs	r3, #15
    126c:	18fb      	adds	r3, r7, r3
    126e:	781b      	ldrb	r3, [r3, #0]
    1270:	b25b      	sxtb	r3, r3
    1272:	2b00      	cmp	r3, #0
    1274:	d103      	bne.n	127e <set_gyro_conf+0x9a>
				dev->prev_gyro_cfg.range = dev->gyro_cfg.range;
    1276:	687b      	ldr	r3, [r7, #4]
    1278:	7b9a      	ldrb	r2, [r3, #14]
    127a:	687b      	ldr	r3, [r7, #4]
    127c:	749a      	strb	r2, [r3, #18]
		}
	}

	return rslt;
    127e:	230f      	movs	r3, #15
    1280:	18fb      	adds	r3, r7, r3
    1282:	781b      	ldrb	r3, [r3, #0]
    1284:	b25b      	sxtb	r3, r3
}
    1286:	0018      	movs	r0, r3
    1288:	46bd      	mov	sp, r7
    128a:	b004      	add	sp, #16
    128c:	bdb0      	pop	{r4, r5, r7, pc}
    128e:	46c0      	nop			; (mov r8, r8)
    1290:	00001299 	.word	0x00001299
    1294:	00000a39 	.word	0x00000a39

00001298 <check_gyro_config>:

/*!
* @brief This API check the gyro configuration.
*/
static int8_t check_gyro_config(uint8_t *data, const struct bmi160_dev *dev)
{
    1298:	b5b0      	push	{r4, r5, r7, lr}
    129a:	b084      	sub	sp, #16
    129c:	af00      	add	r7, sp, #0
    129e:	6078      	str	r0, [r7, #4]
    12a0:	6039      	str	r1, [r7, #0]
	int8_t rslt;

	/* read gyro Output data rate and bandwidth */
	rslt = bmi160_get_regs(BMI160_GYRO_CONFIG_ADDR, data, 2, dev);
    12a2:	230f      	movs	r3, #15
    12a4:	18fc      	adds	r4, r7, r3
    12a6:	683b      	ldr	r3, [r7, #0]
    12a8:	6879      	ldr	r1, [r7, #4]
    12aa:	2202      	movs	r2, #2
    12ac:	2042      	movs	r0, #66	; 0x42
    12ae:	4d1e      	ldr	r5, [pc, #120]	; (1328 <check_gyro_config+0x90>)
    12b0:	47a8      	blx	r5
    12b2:	0003      	movs	r3, r0
    12b4:	7023      	strb	r3, [r4, #0]
	if (rslt == BMI160_OK) {
    12b6:	230f      	movs	r3, #15
    12b8:	18fb      	adds	r3, r7, r3
    12ba:	781b      	ldrb	r3, [r3, #0]
    12bc:	b25b      	sxtb	r3, r3
    12be:	2b00      	cmp	r3, #0
    12c0:	d12a      	bne.n	1318 <check_gyro_config+0x80>
		rslt = process_gyro_odr(&data[0], dev);
    12c2:	230f      	movs	r3, #15
    12c4:	18fc      	adds	r4, r7, r3
    12c6:	683a      	ldr	r2, [r7, #0]
    12c8:	687b      	ldr	r3, [r7, #4]
    12ca:	0011      	movs	r1, r2
    12cc:	0018      	movs	r0, r3
    12ce:	4b17      	ldr	r3, [pc, #92]	; (132c <check_gyro_config+0x94>)
    12d0:	4798      	blx	r3
    12d2:	0003      	movs	r3, r0
    12d4:	7023      	strb	r3, [r4, #0]
		if (rslt == BMI160_OK) {
    12d6:	230f      	movs	r3, #15
    12d8:	18fb      	adds	r3, r7, r3
    12da:	781b      	ldrb	r3, [r3, #0]
    12dc:	b25b      	sxtb	r3, r3
    12de:	2b00      	cmp	r3, #0
    12e0:	d11a      	bne.n	1318 <check_gyro_config+0x80>
			rslt = process_gyro_bw(&data[0], dev);
    12e2:	230f      	movs	r3, #15
    12e4:	18fc      	adds	r4, r7, r3
    12e6:	683a      	ldr	r2, [r7, #0]
    12e8:	687b      	ldr	r3, [r7, #4]
    12ea:	0011      	movs	r1, r2
    12ec:	0018      	movs	r0, r3
    12ee:	4b10      	ldr	r3, [pc, #64]	; (1330 <check_gyro_config+0x98>)
    12f0:	4798      	blx	r3
    12f2:	0003      	movs	r3, r0
    12f4:	7023      	strb	r3, [r4, #0]
			if (rslt == BMI160_OK)
    12f6:	230f      	movs	r3, #15
    12f8:	18fb      	adds	r3, r7, r3
    12fa:	781b      	ldrb	r3, [r3, #0]
    12fc:	b25b      	sxtb	r3, r3
    12fe:	2b00      	cmp	r3, #0
    1300:	d10a      	bne.n	1318 <check_gyro_config+0x80>
				rslt = process_gyro_range(&data[1], dev);
    1302:	687b      	ldr	r3, [r7, #4]
    1304:	3301      	adds	r3, #1
    1306:	220f      	movs	r2, #15
    1308:	18bc      	adds	r4, r7, r2
    130a:	683a      	ldr	r2, [r7, #0]
    130c:	0011      	movs	r1, r2
    130e:	0018      	movs	r0, r3
    1310:	4b08      	ldr	r3, [pc, #32]	; (1334 <check_gyro_config+0x9c>)
    1312:	4798      	blx	r3
    1314:	0003      	movs	r3, r0
    1316:	7023      	strb	r3, [r4, #0]
		}
	}

	return rslt;
    1318:	230f      	movs	r3, #15
    131a:	18fb      	adds	r3, r7, r3
    131c:	781b      	ldrb	r3, [r3, #0]
    131e:	b25b      	sxtb	r3, r3

}
    1320:	0018      	movs	r0, r3
    1322:	46bd      	mov	sp, r7
    1324:	b004      	add	sp, #16
    1326:	bdb0      	pop	{r4, r5, r7, pc}
    1328:	00000995 	.word	0x00000995
    132c:	00001339 	.word	0x00001339
    1330:	000013c1 	.word	0x000013c1
    1334:	0000143f 	.word	0x0000143f

00001338 <process_gyro_odr>:

/*!
 * @brief This API process the gyro odr.
 */
static int8_t process_gyro_odr(uint8_t *data, const struct bmi160_dev *dev)
{
    1338:	b580      	push	{r7, lr}
    133a:	b084      	sub	sp, #16
    133c:	af00      	add	r7, sp, #0
    133e:	6078      	str	r0, [r7, #4]
    1340:	6039      	str	r1, [r7, #0]
	int8_t rslt = 0;
    1342:	230f      	movs	r3, #15
    1344:	18fb      	adds	r3, r7, r3
    1346:	2200      	movs	r2, #0
    1348:	701a      	strb	r2, [r3, #0]
	uint8_t temp = 0;
    134a:	230e      	movs	r3, #14
    134c:	18fb      	adds	r3, r7, r3
    134e:	2200      	movs	r2, #0
    1350:	701a      	strb	r2, [r3, #0]
	uint8_t odr = 0;
    1352:	230d      	movs	r3, #13
    1354:	18fb      	adds	r3, r7, r3
    1356:	2200      	movs	r2, #0
    1358:	701a      	strb	r2, [r3, #0]

	if (dev->gyro_cfg.odr <= BMI160_GYRO_ODR_MAX) {
    135a:	683b      	ldr	r3, [r7, #0]
    135c:	7b5b      	ldrb	r3, [r3, #13]
    135e:	2b0d      	cmp	r3, #13
    1360:	d822      	bhi.n	13a8 <process_gyro_odr+0x70>
		if (dev->gyro_cfg.odr != dev->prev_gyro_cfg.odr) {
    1362:	683b      	ldr	r3, [r7, #0]
    1364:	7b5a      	ldrb	r2, [r3, #13]
    1366:	683b      	ldr	r3, [r7, #0]
    1368:	7c5b      	ldrb	r3, [r3, #17]
    136a:	429a      	cmp	r2, r3
    136c:	d020      	beq.n	13b0 <process_gyro_odr+0x78>
			odr = (uint8_t)dev->gyro_cfg.odr;
    136e:	230d      	movs	r3, #13
    1370:	18fb      	adds	r3, r7, r3
    1372:	683a      	ldr	r2, [r7, #0]
    1374:	7b52      	ldrb	r2, [r2, #13]
    1376:	701a      	strb	r2, [r3, #0]
			temp = (*data & ~BMI160_GYRO_ODR_MASK);
    1378:	687b      	ldr	r3, [r7, #4]
    137a:	781a      	ldrb	r2, [r3, #0]
    137c:	230e      	movs	r3, #14
    137e:	18fb      	adds	r3, r7, r3
    1380:	210f      	movs	r1, #15
    1382:	438a      	bics	r2, r1
    1384:	701a      	strb	r2, [r3, #0]
			/* Adding output data rate */
			*data = temp | (odr & BMI160_GYRO_ODR_MASK);
    1386:	230d      	movs	r3, #13
    1388:	18fb      	adds	r3, r7, r3
    138a:	781b      	ldrb	r3, [r3, #0]
    138c:	b25b      	sxtb	r3, r3
    138e:	220f      	movs	r2, #15
    1390:	4013      	ands	r3, r2
    1392:	b25a      	sxtb	r2, r3
    1394:	230e      	movs	r3, #14
    1396:	18fb      	adds	r3, r7, r3
    1398:	781b      	ldrb	r3, [r3, #0]
    139a:	b25b      	sxtb	r3, r3
    139c:	4313      	orrs	r3, r2
    139e:	b25b      	sxtb	r3, r3
    13a0:	b2da      	uxtb	r2, r3
    13a2:	687b      	ldr	r3, [r7, #4]
    13a4:	701a      	strb	r2, [r3, #0]
    13a6:	e003      	b.n	13b0 <process_gyro_odr+0x78>
		}
	} else {
		rslt = BMI160_E_OUT_OF_RANGE;
    13a8:	230f      	movs	r3, #15
    13aa:	18fb      	adds	r3, r7, r3
    13ac:	22fc      	movs	r2, #252	; 0xfc
    13ae:	701a      	strb	r2, [r3, #0]
	}

	return rslt;
    13b0:	230f      	movs	r3, #15
    13b2:	18fb      	adds	r3, r7, r3
    13b4:	781b      	ldrb	r3, [r3, #0]
    13b6:	b25b      	sxtb	r3, r3
}
    13b8:	0018      	movs	r0, r3
    13ba:	46bd      	mov	sp, r7
    13bc:	b004      	add	sp, #16
    13be:	bd80      	pop	{r7, pc}

000013c0 <process_gyro_bw>:

/*!
 * @brief This API process the gyro bandwidth.
 */
static int8_t process_gyro_bw(uint8_t *data, const struct bmi160_dev *dev)
{
    13c0:	b580      	push	{r7, lr}
    13c2:	b084      	sub	sp, #16
    13c4:	af00      	add	r7, sp, #0
    13c6:	6078      	str	r0, [r7, #4]
    13c8:	6039      	str	r1, [r7, #0]
	int8_t rslt = 0;
    13ca:	230f      	movs	r3, #15
    13cc:	18fb      	adds	r3, r7, r3
    13ce:	2200      	movs	r2, #0
    13d0:	701a      	strb	r2, [r3, #0]
	uint8_t temp = 0;
    13d2:	230e      	movs	r3, #14
    13d4:	18fb      	adds	r3, r7, r3
    13d6:	2200      	movs	r2, #0
    13d8:	701a      	strb	r2, [r3, #0]
	uint8_t bw = 0;
    13da:	230d      	movs	r3, #13
    13dc:	18fb      	adds	r3, r7, r3
    13de:	2200      	movs	r2, #0
    13e0:	701a      	strb	r2, [r3, #0]

	if (dev->gyro_cfg.bw <= BMI160_GYRO_BW_MAX) {
    13e2:	683b      	ldr	r3, [r7, #0]
    13e4:	7bdb      	ldrb	r3, [r3, #15]
    13e6:	2b02      	cmp	r3, #2
    13e8:	d81d      	bhi.n	1426 <process_gyro_bw+0x66>
		bw = (uint8_t)dev->gyro_cfg.bw;
    13ea:	230d      	movs	r3, #13
    13ec:	18fb      	adds	r3, r7, r3
    13ee:	683a      	ldr	r2, [r7, #0]
    13f0:	7bd2      	ldrb	r2, [r2, #15]
    13f2:	701a      	strb	r2, [r3, #0]
		temp = *data & ~BMI160_GYRO_BW_MASK;
    13f4:	687b      	ldr	r3, [r7, #4]
    13f6:	781a      	ldrb	r2, [r3, #0]
    13f8:	230e      	movs	r3, #14
    13fa:	18fb      	adds	r3, r7, r3
    13fc:	2130      	movs	r1, #48	; 0x30
    13fe:	438a      	bics	r2, r1
    1400:	701a      	strb	r2, [r3, #0]
		/* Adding bandwidth */
		*data = temp | ((bw << 4) & BMI160_GYRO_BW_MASK);
    1402:	230d      	movs	r3, #13
    1404:	18fb      	adds	r3, r7, r3
    1406:	781b      	ldrb	r3, [r3, #0]
    1408:	011b      	lsls	r3, r3, #4
    140a:	b25b      	sxtb	r3, r3
    140c:	2230      	movs	r2, #48	; 0x30
    140e:	4013      	ands	r3, r2
    1410:	b25a      	sxtb	r2, r3
    1412:	230e      	movs	r3, #14
    1414:	18fb      	adds	r3, r7, r3
    1416:	781b      	ldrb	r3, [r3, #0]
    1418:	b25b      	sxtb	r3, r3
    141a:	4313      	orrs	r3, r2
    141c:	b25b      	sxtb	r3, r3
    141e:	b2da      	uxtb	r2, r3
    1420:	687b      	ldr	r3, [r7, #4]
    1422:	701a      	strb	r2, [r3, #0]
    1424:	e003      	b.n	142e <process_gyro_bw+0x6e>
	} else {
		rslt = BMI160_E_OUT_OF_RANGE;
    1426:	230f      	movs	r3, #15
    1428:	18fb      	adds	r3, r7, r3
    142a:	22fc      	movs	r2, #252	; 0xfc
    142c:	701a      	strb	r2, [r3, #0]
	}

	return rslt;
    142e:	230f      	movs	r3, #15
    1430:	18fb      	adds	r3, r7, r3
    1432:	781b      	ldrb	r3, [r3, #0]
    1434:	b25b      	sxtb	r3, r3
}
    1436:	0018      	movs	r0, r3
    1438:	46bd      	mov	sp, r7
    143a:	b004      	add	sp, #16
    143c:	bd80      	pop	{r7, pc}

0000143e <process_gyro_range>:

/*!
 * @brief This API process the gyro range.
 */
static int8_t process_gyro_range(uint8_t *data, const struct bmi160_dev *dev)
{
    143e:	b580      	push	{r7, lr}
    1440:	b084      	sub	sp, #16
    1442:	af00      	add	r7, sp, #0
    1444:	6078      	str	r0, [r7, #4]
    1446:	6039      	str	r1, [r7, #0]
	int8_t rslt = 0;
    1448:	230f      	movs	r3, #15
    144a:	18fb      	adds	r3, r7, r3
    144c:	2200      	movs	r2, #0
    144e:	701a      	strb	r2, [r3, #0]
	uint8_t temp = 0;
    1450:	230e      	movs	r3, #14
    1452:	18fb      	adds	r3, r7, r3
    1454:	2200      	movs	r2, #0
    1456:	701a      	strb	r2, [r3, #0]
	uint8_t range = 0;
    1458:	230d      	movs	r3, #13
    145a:	18fb      	adds	r3, r7, r3
    145c:	2200      	movs	r2, #0
    145e:	701a      	strb	r2, [r3, #0]

	if (dev->gyro_cfg.range <= BMI160_GYRO_RANGE_MAX) {
    1460:	683b      	ldr	r3, [r7, #0]
    1462:	7b9b      	ldrb	r3, [r3, #14]
    1464:	2b04      	cmp	r3, #4
    1466:	d822      	bhi.n	14ae <process_gyro_range+0x70>
		if (dev->gyro_cfg.range != dev->prev_gyro_cfg.range) {
    1468:	683b      	ldr	r3, [r7, #0]
    146a:	7b9a      	ldrb	r2, [r3, #14]
    146c:	683b      	ldr	r3, [r7, #0]
    146e:	7c9b      	ldrb	r3, [r3, #18]
    1470:	429a      	cmp	r2, r3
    1472:	d020      	beq.n	14b6 <process_gyro_range+0x78>
			range = (uint8_t)dev->gyro_cfg.range;
    1474:	230d      	movs	r3, #13
    1476:	18fb      	adds	r3, r7, r3
    1478:	683a      	ldr	r2, [r7, #0]
    147a:	7b92      	ldrb	r2, [r2, #14]
    147c:	701a      	strb	r2, [r3, #0]
			temp = *data & ~BMI160_GYRO_RANGE_MSK;
    147e:	687b      	ldr	r3, [r7, #4]
    1480:	781a      	ldrb	r2, [r3, #0]
    1482:	230e      	movs	r3, #14
    1484:	18fb      	adds	r3, r7, r3
    1486:	2107      	movs	r1, #7
    1488:	438a      	bics	r2, r1
    148a:	701a      	strb	r2, [r3, #0]
			/* Adding range */
			*data = temp | (range & BMI160_GYRO_RANGE_MSK);
    148c:	230d      	movs	r3, #13
    148e:	18fb      	adds	r3, r7, r3
    1490:	781b      	ldrb	r3, [r3, #0]
    1492:	b25b      	sxtb	r3, r3
    1494:	2207      	movs	r2, #7
    1496:	4013      	ands	r3, r2
    1498:	b25a      	sxtb	r2, r3
    149a:	230e      	movs	r3, #14
    149c:	18fb      	adds	r3, r7, r3
    149e:	781b      	ldrb	r3, [r3, #0]
    14a0:	b25b      	sxtb	r3, r3
    14a2:	4313      	orrs	r3, r2
    14a4:	b25b      	sxtb	r3, r3
    14a6:	b2da      	uxtb	r2, r3
    14a8:	687b      	ldr	r3, [r7, #4]
    14aa:	701a      	strb	r2, [r3, #0]
    14ac:	e003      	b.n	14b6 <process_gyro_range+0x78>
		}
	} else {
		rslt = BMI160_E_OUT_OF_RANGE;
    14ae:	230f      	movs	r3, #15
    14b0:	18fb      	adds	r3, r7, r3
    14b2:	22fc      	movs	r2, #252	; 0xfc
    14b4:	701a      	strb	r2, [r3, #0]
	}

	return rslt;
    14b6:	230f      	movs	r3, #15
    14b8:	18fb      	adds	r3, r7, r3
    14ba:	781b      	ldrb	r3, [r3, #0]
    14bc:	b25b      	sxtb	r3, r3
}
    14be:	0018      	movs	r0, r3
    14c0:	46bd      	mov	sp, r7
    14c2:	b004      	add	sp, #16
    14c4:	bd80      	pop	{r7, pc}
	...

000014c8 <set_accel_pwr>:

/*!
 * @brief This API sets the accel power.
 */
static int8_t set_accel_pwr(struct bmi160_dev *dev)
{
    14c8:	b5b0      	push	{r4, r5, r7, lr}
    14ca:	b084      	sub	sp, #16
    14cc:	af00      	add	r7, sp, #0
    14ce:	6078      	str	r0, [r7, #4]
	int8_t rslt = 0;
    14d0:	230f      	movs	r3, #15
    14d2:	18fb      	adds	r3, r7, r3
    14d4:	2200      	movs	r2, #0
    14d6:	701a      	strb	r2, [r3, #0]
	uint8_t data = 0;
    14d8:	230e      	movs	r3, #14
    14da:	18fb      	adds	r3, r7, r3
    14dc:	2200      	movs	r2, #0
    14de:	701a      	strb	r2, [r3, #0]

	if ((dev->accel_cfg.power >= BMI160_ACCEL_SUSPEND_MODE) &&
    14e0:	687b      	ldr	r3, [r7, #4]
    14e2:	791b      	ldrb	r3, [r3, #4]
    14e4:	2b0f      	cmp	r3, #15
    14e6:	d932      	bls.n	154e <set_accel_pwr+0x86>
		(dev->accel_cfg.power <= BMI160_ACCEL_LOWPOWER_MODE)) {
    14e8:	687b      	ldr	r3, [r7, #4]
    14ea:	791b      	ldrb	r3, [r3, #4]
	if ((dev->accel_cfg.power >= BMI160_ACCEL_SUSPEND_MODE) &&
    14ec:	2b12      	cmp	r3, #18
    14ee:	d82e      	bhi.n	154e <set_accel_pwr+0x86>
		if (dev->accel_cfg.power != dev->prev_accel_cfg.power) {
    14f0:	687b      	ldr	r3, [r7, #4]
    14f2:	791a      	ldrb	r2, [r3, #4]
    14f4:	687b      	ldr	r3, [r7, #4]
    14f6:	7a1b      	ldrb	r3, [r3, #8]
    14f8:	429a      	cmp	r2, r3
    14fa:	d02d      	beq.n	1558 <set_accel_pwr+0x90>
			rslt = process_under_sampling(&data, dev);
    14fc:	230f      	movs	r3, #15
    14fe:	18fc      	adds	r4, r7, r3
    1500:	687a      	ldr	r2, [r7, #4]
    1502:	230e      	movs	r3, #14
    1504:	18fb      	adds	r3, r7, r3
    1506:	0011      	movs	r1, r2
    1508:	0018      	movs	r0, r3
    150a:	4b18      	ldr	r3, [pc, #96]	; (156c <set_accel_pwr+0xa4>)
    150c:	4798      	blx	r3
    150e:	0003      	movs	r3, r0
    1510:	7023      	strb	r3, [r4, #0]
			if (rslt == BMI160_OK) {
    1512:	230f      	movs	r3, #15
    1514:	18fb      	adds	r3, r7, r3
    1516:	781b      	ldrb	r3, [r3, #0]
    1518:	b25b      	sxtb	r3, r3
    151a:	2b00      	cmp	r3, #0
    151c:	d11c      	bne.n	1558 <set_accel_pwr+0x90>
				/* Write accel power */
				rslt = bmi160_set_regs(BMI160_COMMAND_REG_ADDR, &dev->accel_cfg.power, 1, dev);
    151e:	687b      	ldr	r3, [r7, #4]
    1520:	1d19      	adds	r1, r3, #4
    1522:	230f      	movs	r3, #15
    1524:	18fc      	adds	r4, r7, r3
    1526:	687b      	ldr	r3, [r7, #4]
    1528:	2201      	movs	r2, #1
    152a:	207e      	movs	r0, #126	; 0x7e
    152c:	4d10      	ldr	r5, [pc, #64]	; (1570 <set_accel_pwr+0xa8>)
    152e:	47a8      	blx	r5
    1530:	0003      	movs	r3, r0
    1532:	7023      	strb	r3, [r4, #0]
				/* Add delay of 5 ms */
				if (dev->prev_accel_cfg.power == BMI160_ACCEL_SUSPEND_MODE)
    1534:	687b      	ldr	r3, [r7, #4]
    1536:	7a1b      	ldrb	r3, [r3, #8]
    1538:	2b10      	cmp	r3, #16
    153a:	d103      	bne.n	1544 <set_accel_pwr+0x7c>
					dev->delay_ms(BMI160_ACCEL_DELAY_MS);
    153c:	687b      	ldr	r3, [r7, #4]
    153e:	6a5b      	ldr	r3, [r3, #36]	; 0x24
    1540:	2005      	movs	r0, #5
    1542:	4798      	blx	r3
				dev->prev_accel_cfg.power = dev->accel_cfg.power;
    1544:	687b      	ldr	r3, [r7, #4]
    1546:	791a      	ldrb	r2, [r3, #4]
    1548:	687b      	ldr	r3, [r7, #4]
    154a:	721a      	strb	r2, [r3, #8]
		if (dev->accel_cfg.power != dev->prev_accel_cfg.power) {
    154c:	e004      	b.n	1558 <set_accel_pwr+0x90>
			}
		}
	} else {
		rslt = BMI160_E_OUT_OF_RANGE;
    154e:	230f      	movs	r3, #15
    1550:	18fb      	adds	r3, r7, r3
    1552:	22fc      	movs	r2, #252	; 0xfc
    1554:	701a      	strb	r2, [r3, #0]
    1556:	e000      	b.n	155a <set_accel_pwr+0x92>
		if (dev->accel_cfg.power != dev->prev_accel_cfg.power) {
    1558:	46c0      	nop			; (mov r8, r8)
	}

	return rslt;
    155a:	230f      	movs	r3, #15
    155c:	18fb      	adds	r3, r7, r3
    155e:	781b      	ldrb	r3, [r3, #0]
    1560:	b25b      	sxtb	r3, r3
}
    1562:	0018      	movs	r0, r3
    1564:	46bd      	mov	sp, r7
    1566:	b004      	add	sp, #16
    1568:	bdb0      	pop	{r4, r5, r7, pc}
    156a:	46c0      	nop			; (mov r8, r8)
    156c:	00001575 	.word	0x00001575
    1570:	00000a39 	.word	0x00000a39

00001574 <process_under_sampling>:

/*!
 * @brief This API process the undersampling setting of Accel.
 */
static int8_t process_under_sampling(uint8_t *data, const struct bmi160_dev *dev)
{
    1574:	b5b0      	push	{r4, r5, r7, lr}
    1576:	b084      	sub	sp, #16
    1578:	af00      	add	r7, sp, #0
    157a:	6078      	str	r0, [r7, #4]
    157c:	6039      	str	r1, [r7, #0]
	int8_t rslt;
	uint8_t temp = 0;
    157e:	230e      	movs	r3, #14
    1580:	18fb      	adds	r3, r7, r3
    1582:	2200      	movs	r2, #0
    1584:	701a      	strb	r2, [r3, #0]
	uint8_t pre_filter = 0;
    1586:	230d      	movs	r3, #13
    1588:	18fb      	adds	r3, r7, r3
    158a:	2200      	movs	r2, #0
    158c:	701a      	strb	r2, [r3, #0]

	rslt = bmi160_get_regs(BMI160_ACCEL_CONFIG_ADDR, data, 1, dev);
    158e:	230f      	movs	r3, #15
    1590:	18fc      	adds	r4, r7, r3
    1592:	683b      	ldr	r3, [r7, #0]
    1594:	6879      	ldr	r1, [r7, #4]
    1596:	2201      	movs	r2, #1
    1598:	2040      	movs	r0, #64	; 0x40
    159a:	4d2e      	ldr	r5, [pc, #184]	; (1654 <process_under_sampling+0xe0>)
    159c:	47a8      	blx	r5
    159e:	0003      	movs	r3, r0
    15a0:	7023      	strb	r3, [r4, #0]
	if (rslt == BMI160_OK) {
    15a2:	230f      	movs	r3, #15
    15a4:	18fb      	adds	r3, r7, r3
    15a6:	781b      	ldrb	r3, [r3, #0]
    15a8:	b25b      	sxtb	r3, r3
    15aa:	2b00      	cmp	r3, #0
    15ac:	d14a      	bne.n	1644 <process_under_sampling+0xd0>
		if (dev->accel_cfg.power == BMI160_ACCEL_LOWPOWER_MODE) {
    15ae:	683b      	ldr	r3, [r7, #0]
    15b0:	791b      	ldrb	r3, [r3, #4]
    15b2:	2b12      	cmp	r3, #18
    15b4:	d12b      	bne.n	160e <process_under_sampling+0x9a>
			temp = *data & ~BMI160_ACCEL_UNDERSAMPLING_MASK;
    15b6:	687b      	ldr	r3, [r7, #4]
    15b8:	781a      	ldrb	r2, [r3, #0]
    15ba:	230e      	movs	r3, #14
    15bc:	18fb      	adds	r3, r7, r3
    15be:	217f      	movs	r1, #127	; 0x7f
    15c0:	400a      	ands	r2, r1
    15c2:	701a      	strb	r2, [r3, #0]
			/* Set under-sampling parameter */
			*data = temp | ((1 << 7) & BMI160_ACCEL_UNDERSAMPLING_MASK);
    15c4:	230e      	movs	r3, #14
    15c6:	18fb      	adds	r3, r7, r3
    15c8:	781b      	ldrb	r3, [r3, #0]
    15ca:	2280      	movs	r2, #128	; 0x80
    15cc:	4252      	negs	r2, r2
    15ce:	4313      	orrs	r3, r2
    15d0:	b2da      	uxtb	r2, r3
    15d2:	687b      	ldr	r3, [r7, #4]
    15d4:	701a      	strb	r2, [r3, #0]
			/* Write data */
			rslt = bmi160_set_regs(BMI160_ACCEL_CONFIG_ADDR, data, 1, dev);
    15d6:	230f      	movs	r3, #15
    15d8:	18fc      	adds	r4, r7, r3
    15da:	683b      	ldr	r3, [r7, #0]
    15dc:	6879      	ldr	r1, [r7, #4]
    15de:	2201      	movs	r2, #1
    15e0:	2040      	movs	r0, #64	; 0x40
    15e2:	4d1d      	ldr	r5, [pc, #116]	; (1658 <process_under_sampling+0xe4>)
    15e4:	47a8      	blx	r5
    15e6:	0003      	movs	r3, r0
    15e8:	7023      	strb	r3, [r4, #0]
			/* disable the pre-filter data in
			 * low power mode */
			if (rslt == BMI160_OK)
    15ea:	230f      	movs	r3, #15
    15ec:	18fb      	adds	r3, r7, r3
    15ee:	781b      	ldrb	r3, [r3, #0]
    15f0:	b25b      	sxtb	r3, r3
    15f2:	2b00      	cmp	r3, #0
    15f4:	d126      	bne.n	1644 <process_under_sampling+0xd0>
				/* Disable the Pre-filter data*/
				rslt = bmi160_set_regs(BMI160_INT_DATA_0_ADDR, &pre_filter, 2, dev);
    15f6:	230f      	movs	r3, #15
    15f8:	18fc      	adds	r4, r7, r3
    15fa:	683b      	ldr	r3, [r7, #0]
    15fc:	220d      	movs	r2, #13
    15fe:	18b9      	adds	r1, r7, r2
    1600:	2202      	movs	r2, #2
    1602:	2058      	movs	r0, #88	; 0x58
    1604:	4d14      	ldr	r5, [pc, #80]	; (1658 <process_under_sampling+0xe4>)
    1606:	47a8      	blx	r5
    1608:	0003      	movs	r3, r0
    160a:	7023      	strb	r3, [r4, #0]
    160c:	e01a      	b.n	1644 <process_under_sampling+0xd0>
		} else {
			if (*data & BMI160_ACCEL_UNDERSAMPLING_MASK) {
    160e:	687b      	ldr	r3, [r7, #4]
    1610:	781b      	ldrb	r3, [r3, #0]
    1612:	b25b      	sxtb	r3, r3
    1614:	2b00      	cmp	r3, #0
    1616:	da15      	bge.n	1644 <process_under_sampling+0xd0>

				temp = *data & ~BMI160_ACCEL_UNDERSAMPLING_MASK;
    1618:	687b      	ldr	r3, [r7, #4]
    161a:	781a      	ldrb	r2, [r3, #0]
    161c:	230e      	movs	r3, #14
    161e:	18fb      	adds	r3, r7, r3
    1620:	217f      	movs	r1, #127	; 0x7f
    1622:	400a      	ands	r2, r1
    1624:	701a      	strb	r2, [r3, #0]
				/* disable under-sampling parameter
				if already enabled */
				*data = temp;
    1626:	687b      	ldr	r3, [r7, #4]
    1628:	220e      	movs	r2, #14
    162a:	18ba      	adds	r2, r7, r2
    162c:	7812      	ldrb	r2, [r2, #0]
    162e:	701a      	strb	r2, [r3, #0]
				/* Write data */
				rslt = bmi160_set_regs(BMI160_ACCEL_CONFIG_ADDR, data, 1, dev);
    1630:	230f      	movs	r3, #15
    1632:	18fc      	adds	r4, r7, r3
    1634:	683b      	ldr	r3, [r7, #0]
    1636:	6879      	ldr	r1, [r7, #4]
    1638:	2201      	movs	r2, #1
    163a:	2040      	movs	r0, #64	; 0x40
    163c:	4d06      	ldr	r5, [pc, #24]	; (1658 <process_under_sampling+0xe4>)
    163e:	47a8      	blx	r5
    1640:	0003      	movs	r3, r0
    1642:	7023      	strb	r3, [r4, #0]
			}
		}
	}

	return rslt;
    1644:	230f      	movs	r3, #15
    1646:	18fb      	adds	r3, r7, r3
    1648:	781b      	ldrb	r3, [r3, #0]
    164a:	b25b      	sxtb	r3, r3
}
    164c:	0018      	movs	r0, r3
    164e:	46bd      	mov	sp, r7
    1650:	b004      	add	sp, #16
    1652:	bdb0      	pop	{r4, r5, r7, pc}
    1654:	00000995 	.word	0x00000995
    1658:	00000a39 	.word	0x00000a39

0000165c <set_gyro_pwr>:

/*!
 * @brief This API sets the gyro power mode.
 */
static int8_t set_gyro_pwr(struct bmi160_dev *dev)
{
    165c:	b5b0      	push	{r4, r5, r7, lr}
    165e:	b084      	sub	sp, #16
    1660:	af00      	add	r7, sp, #0
    1662:	6078      	str	r0, [r7, #4]
	int8_t rslt = 0;
    1664:	230f      	movs	r3, #15
    1666:	18fb      	adds	r3, r7, r3
    1668:	2200      	movs	r2, #0
    166a:	701a      	strb	r2, [r3, #0]

	if ((dev->gyro_cfg.power == BMI160_GYRO_SUSPEND_MODE) || (dev->gyro_cfg.power == BMI160_GYRO_NORMAL_MODE)
    166c:	687b      	ldr	r3, [r7, #4]
    166e:	7b1b      	ldrb	r3, [r3, #12]
    1670:	2b14      	cmp	r3, #20
    1672:	d007      	beq.n	1684 <set_gyro_pwr+0x28>
    1674:	687b      	ldr	r3, [r7, #4]
    1676:	7b1b      	ldrb	r3, [r3, #12]
    1678:	2b15      	cmp	r3, #21
    167a:	d003      	beq.n	1684 <set_gyro_pwr+0x28>
		|| (dev->gyro_cfg.power == BMI160_GYRO_FASTSTARTUP_MODE)) {
    167c:	687b      	ldr	r3, [r7, #4]
    167e:	7b1b      	ldrb	r3, [r3, #12]
    1680:	2b17      	cmp	r3, #23
    1682:	d12b      	bne.n	16dc <set_gyro_pwr+0x80>

		if (dev->gyro_cfg.power != dev->prev_gyro_cfg.power) {
    1684:	687b      	ldr	r3, [r7, #4]
    1686:	7b1a      	ldrb	r2, [r3, #12]
    1688:	687b      	ldr	r3, [r7, #4]
    168a:	7c1b      	ldrb	r3, [r3, #16]
    168c:	429a      	cmp	r2, r3
    168e:	d029      	beq.n	16e4 <set_gyro_pwr+0x88>

			/* Write gyro power */
			rslt = bmi160_set_regs(BMI160_COMMAND_REG_ADDR, &dev->gyro_cfg.power, 1, dev);
    1690:	687b      	ldr	r3, [r7, #4]
    1692:	330c      	adds	r3, #12
    1694:	0019      	movs	r1, r3
    1696:	230f      	movs	r3, #15
    1698:	18fc      	adds	r4, r7, r3
    169a:	687b      	ldr	r3, [r7, #4]
    169c:	2201      	movs	r2, #1
    169e:	207e      	movs	r0, #126	; 0x7e
    16a0:	4d14      	ldr	r5, [pc, #80]	; (16f4 <set_gyro_pwr+0x98>)
    16a2:	47a8      	blx	r5
    16a4:	0003      	movs	r3, r0
    16a6:	7023      	strb	r3, [r4, #0]
			if (dev->prev_gyro_cfg.power ==
    16a8:	687b      	ldr	r3, [r7, #4]
    16aa:	7c1b      	ldrb	r3, [r3, #16]
    16ac:	2b14      	cmp	r3, #20
    16ae:	d104      	bne.n	16ba <set_gyro_pwr+0x5e>
				BMI160_GYRO_SUSPEND_MODE) {
				/* Delay of 81 ms */
				dev->delay_ms(BMI160_GYRO_DELAY_MS);
    16b0:	687b      	ldr	r3, [r7, #4]
    16b2:	6a5b      	ldr	r3, [r3, #36]	; 0x24
    16b4:	2051      	movs	r0, #81	; 0x51
    16b6:	4798      	blx	r3
    16b8:	e00b      	b.n	16d2 <set_gyro_pwr+0x76>
			} else if ((dev->prev_gyro_cfg.power == BMI160_GYRO_FASTSTARTUP_MODE)
    16ba:	687b      	ldr	r3, [r7, #4]
    16bc:	7c1b      	ldrb	r3, [r3, #16]
    16be:	2b17      	cmp	r3, #23
    16c0:	d107      	bne.n	16d2 <set_gyro_pwr+0x76>
				&& (dev->gyro_cfg.power == BMI160_GYRO_NORMAL_MODE)) {
    16c2:	687b      	ldr	r3, [r7, #4]
    16c4:	7b1b      	ldrb	r3, [r3, #12]
    16c6:	2b15      	cmp	r3, #21
    16c8:	d103      	bne.n	16d2 <set_gyro_pwr+0x76>
				/* This delay is required for transition from
				fast-startup mode to normal mode */
				dev->delay_ms(10);
    16ca:	687b      	ldr	r3, [r7, #4]
    16cc:	6a5b      	ldr	r3, [r3, #36]	; 0x24
    16ce:	200a      	movs	r0, #10
    16d0:	4798      	blx	r3
			} else {
				/* do nothing */
			}
			dev->prev_gyro_cfg.power = dev->gyro_cfg.power;
    16d2:	687b      	ldr	r3, [r7, #4]
    16d4:	7b1a      	ldrb	r2, [r3, #12]
    16d6:	687b      	ldr	r3, [r7, #4]
    16d8:	741a      	strb	r2, [r3, #16]
		if (dev->gyro_cfg.power != dev->prev_gyro_cfg.power) {
    16da:	e003      	b.n	16e4 <set_gyro_pwr+0x88>
		}
	} else {
		rslt = BMI160_E_OUT_OF_RANGE;
    16dc:	230f      	movs	r3, #15
    16de:	18fb      	adds	r3, r7, r3
    16e0:	22fc      	movs	r2, #252	; 0xfc
    16e2:	701a      	strb	r2, [r3, #0]
	}

	return rslt;
    16e4:	230f      	movs	r3, #15
    16e6:	18fb      	adds	r3, r7, r3
    16e8:	781b      	ldrb	r3, [r3, #0]
    16ea:	b25b      	sxtb	r3, r3
}
    16ec:	0018      	movs	r0, r3
    16ee:	46bd      	mov	sp, r7
    16f0:	b004      	add	sp, #16
    16f2:	bdb0      	pop	{r4, r5, r7, pc}
    16f4:	00000a39 	.word	0x00000a39

000016f8 <NVIC_EnableIRQ>:
{
    16f8:	b580      	push	{r7, lr}
    16fa:	b082      	sub	sp, #8
    16fc:	af00      	add	r7, sp, #0
    16fe:	0002      	movs	r2, r0
    1700:	1dfb      	adds	r3, r7, #7
    1702:	701a      	strb	r2, [r3, #0]
  NVIC->ISER[0] = (1 << ((uint32_t)(IRQn) & 0x1F));
    1704:	4b06      	ldr	r3, [pc, #24]	; (1720 <NVIC_EnableIRQ+0x28>)
    1706:	1dfa      	adds	r2, r7, #7
    1708:	7812      	ldrb	r2, [r2, #0]
    170a:	0011      	movs	r1, r2
    170c:	221f      	movs	r2, #31
    170e:	400a      	ands	r2, r1
    1710:	2101      	movs	r1, #1
    1712:	4091      	lsls	r1, r2
    1714:	000a      	movs	r2, r1
    1716:	601a      	str	r2, [r3, #0]
}
    1718:	46c0      	nop			; (mov r8, r8)
    171a:	46bd      	mov	sp, r7
    171c:	b002      	add	sp, #8
    171e:	bd80      	pop	{r7, pc}
    1720:	e000e100 	.word	0xe000e100

00001724 <buttons_init>:
//
//------------------------------------------------------------------------------

//=============================================================================
void buttons_init(void)
{
    1724:	b580      	push	{r7, lr}
    1726:	af00      	add	r7, sp, #0
	
	// Turn on the input enables for each button
	PORT->Group[BUTTON_ACTIVE_GROUP].PINCFG[BUTTON_ACTIVE_PIN].bit.INEN = 1;
    1728:	4954      	ldr	r1, [pc, #336]	; (187c <buttons_init+0x158>)
    172a:	2248      	movs	r2, #72	; 0x48
    172c:	5c8b      	ldrb	r3, [r1, r2]
    172e:	2002      	movs	r0, #2
    1730:	4303      	orrs	r3, r0
    1732:	548b      	strb	r3, [r1, r2]
	PORT->Group[BUTTON_JOYSTICK_GROUP].PINCFG[BUTTON_JOYSTICK_PIN].bit.INEN = 1;
    1734:	4951      	ldr	r1, [pc, #324]	; (187c <buttons_init+0x158>)
    1736:	2254      	movs	r2, #84	; 0x54
    1738:	5c8b      	ldrb	r3, [r1, r2]
    173a:	2002      	movs	r0, #2
    173c:	4303      	orrs	r3, r0
    173e:	548b      	strb	r3, [r1, r2]
	PORT->Group[BUTTON_0_GROUP].PINCFG[BUTTON_0_PIN].bit.INEN = 1;
    1740:	494e      	ldr	r1, [pc, #312]	; (187c <buttons_init+0x158>)
    1742:	22c9      	movs	r2, #201	; 0xc9
    1744:	5c8b      	ldrb	r3, [r1, r2]
    1746:	2002      	movs	r0, #2
    1748:	4303      	orrs	r3, r0
    174a:	548b      	strb	r3, [r1, r2]
	PORT->Group[BUTTON_1_GROUP].PINCFG[BUTTON_1_PIN].bit.INEN = 1;
    174c:	494b      	ldr	r1, [pc, #300]	; (187c <buttons_init+0x158>)
    174e:	2244      	movs	r2, #68	; 0x44
    1750:	5c8b      	ldrb	r3, [r1, r2]
    1752:	2002      	movs	r0, #2
    1754:	4303      	orrs	r3, r0
    1756:	548b      	strb	r3, [r1, r2]
  
	// Make sure the directions regs are configured as inputs
	PORT->Group[BUTTON_ACTIVE_GROUP].DIRCLR.reg = BUTTON_ACTIVE;
    1758:	4b48      	ldr	r3, [pc, #288]	; (187c <buttons_init+0x158>)
    175a:	2280      	movs	r2, #128	; 0x80
    175c:	0052      	lsls	r2, r2, #1
    175e:	605a      	str	r2, [r3, #4]
	PORT->Group[BUTTON_JOYSTICK_GROUP].DIRCLR.reg = BUTTON_JOYSTICK;
    1760:	4b46      	ldr	r3, [pc, #280]	; (187c <buttons_init+0x158>)
    1762:	2280      	movs	r2, #128	; 0x80
    1764:	0352      	lsls	r2, r2, #13
    1766:	605a      	str	r2, [r3, #4]
	PORT->Group[BUTTON_0_GROUP].DIRCLR.reg = BUTTON_0;
    1768:	4944      	ldr	r1, [pc, #272]	; (187c <buttons_init+0x158>)
    176a:	2284      	movs	r2, #132	; 0x84
    176c:	2380      	movs	r3, #128	; 0x80
    176e:	009b      	lsls	r3, r3, #2
    1770:	508b      	str	r3, [r1, r2]
	PORT->Group[BUTTON_1_GROUP].DIRCLR.reg = BUTTON_1;
    1772:	4b42      	ldr	r3, [pc, #264]	; (187c <buttons_init+0x158>)
    1774:	2210      	movs	r2, #16
    1776:	605a      	str	r2, [r3, #4]
		  
	// set up external interrupt on Joystick button
	PORT->Group[BUTTON_JOYSTICK_GROUP].PINCFG[BUTTON_JOYSTICK_PIN].bit.PMUXEN = 1;
    1778:	4940      	ldr	r1, [pc, #256]	; (187c <buttons_init+0x158>)
    177a:	2254      	movs	r2, #84	; 0x54
    177c:	5c8b      	ldrb	r3, [r1, r2]
    177e:	2001      	movs	r0, #1
    1780:	4303      	orrs	r3, r0
    1782:	548b      	strb	r3, [r1, r2]
	PORT->Group[BUTTON_JOYSTICK_GROUP].PMUX[BUTTON_JOYSTICK_PIN >> 1].bit.PMUXE = PORT_PMUX_PMUXE_A_Val;
    1784:	493d      	ldr	r1, [pc, #244]	; (187c <buttons_init+0x158>)
    1786:	223a      	movs	r2, #58	; 0x3a
    1788:	5c8b      	ldrb	r3, [r1, r2]
    178a:	200f      	movs	r0, #15
    178c:	4383      	bics	r3, r0
    178e:	548b      	strb	r3, [r1, r2]
	
	// set up external interrupt on other buttons
	PORT->Group[BUTTON_ACTIVE_GROUP].PINCFG[BUTTON_ACTIVE_PIN].bit.PMUXEN = 1;
    1790:	493a      	ldr	r1, [pc, #232]	; (187c <buttons_init+0x158>)
    1792:	2248      	movs	r2, #72	; 0x48
    1794:	5c8b      	ldrb	r3, [r1, r2]
    1796:	2001      	movs	r0, #1
    1798:	4303      	orrs	r3, r0
    179a:	548b      	strb	r3, [r1, r2]
	PORT->Group[BUTTON_ACTIVE_GROUP].PMUX[BUTTON_ACTIVE_PIN >> 1].bit.PMUXE = PORT_PMUX_PMUXE_A_Val;
    179c:	4937      	ldr	r1, [pc, #220]	; (187c <buttons_init+0x158>)
    179e:	2234      	movs	r2, #52	; 0x34
    17a0:	5c8b      	ldrb	r3, [r1, r2]
    17a2:	200f      	movs	r0, #15
    17a4:	4383      	bics	r3, r0
    17a6:	548b      	strb	r3, [r1, r2]

	// turn on generic clock 1 (32kHz oscillator)
	SYSCTRL->XOSC32K.bit.XTALEN = 1;
    17a8:	4a35      	ldr	r2, [pc, #212]	; (1880 <buttons_init+0x15c>)
    17aa:	8a93      	ldrh	r3, [r2, #20]
    17ac:	2104      	movs	r1, #4
    17ae:	430b      	orrs	r3, r1
    17b0:	8293      	strh	r3, [r2, #20]
	SYSCTRL->XOSC32K.bit.ENABLE = 1;
    17b2:	4a33      	ldr	r2, [pc, #204]	; (1880 <buttons_init+0x15c>)
    17b4:	8a93      	ldrh	r3, [r2, #20]
    17b6:	2102      	movs	r1, #2
    17b8:	430b      	orrs	r3, r1
    17ba:	8293      	strh	r3, [r2, #20]

	// set EIC to use GCLK1 and turn it on in PM
	PM->APBCMASK.reg |= PM_APBAMASK_EIC;
    17bc:	4b31      	ldr	r3, [pc, #196]	; (1884 <buttons_init+0x160>)
    17be:	4a31      	ldr	r2, [pc, #196]	; (1884 <buttons_init+0x160>)
    17c0:	6a12      	ldr	r2, [r2, #32]
    17c2:	2140      	movs	r1, #64	; 0x40
    17c4:	430a      	orrs	r2, r1
    17c6:	621a      	str	r2, [r3, #32]
	GCLK->CLKCTRL.reg = (GCLK_CLKCTRL_CLKEN | GCLK_CLKCTRL_GEN_GCLK1 | GCLK_CLKCTRL_ID(EIC_GCLK_ID));
    17c8:	4b2f      	ldr	r3, [pc, #188]	; (1888 <buttons_init+0x164>)
    17ca:	4a30      	ldr	r2, [pc, #192]	; (188c <buttons_init+0x168>)
    17cc:	805a      	strh	r2, [r3, #2]
	while (GCLK->STATUS.bit.SYNCBUSY) {}
    17ce:	46c0      	nop			; (mov r8, r8)
    17d0:	4b2d      	ldr	r3, [pc, #180]	; (1888 <buttons_init+0x164>)
    17d2:	785b      	ldrb	r3, [r3, #1]
    17d4:	061b      	lsls	r3, r3, #24
    17d6:	0fdb      	lsrs	r3, r3, #31
    17d8:	b2db      	uxtb	r3, r3
    17da:	2b00      	cmp	r3, #0
    17dc:	d1f8      	bne.n	17d0 <buttons_init+0xac>
	
	EIC->CTRL.reg = EIC_CTRL_SWRST;		// reset the EIC
    17de:	4b2c      	ldr	r3, [pc, #176]	; (1890 <buttons_init+0x16c>)
    17e0:	2201      	movs	r2, #1
    17e2:	701a      	strb	r2, [r3, #0]
	while (EIC->STATUS.bit.SYNCBUSY) {}
    17e4:	46c0      	nop			; (mov r8, r8)
    17e6:	4b2a      	ldr	r3, [pc, #168]	; (1890 <buttons_init+0x16c>)
    17e8:	785b      	ldrb	r3, [r3, #1]
    17ea:	061b      	lsls	r3, r3, #24
    17ec:	0fdb      	lsrs	r3, r3, #31
    17ee:	b2db      	uxtb	r3, r3
    17f0:	2b00      	cmp	r3, #0
    17f2:	d1f8      	bne.n	17e6 <buttons_init+0xc2>
	REG_EIC_INTENSET |= EIC_INTENSET_EXTINT4;		// turn on interrupts on extint 4
    17f4:	4b27      	ldr	r3, [pc, #156]	; (1894 <buttons_init+0x170>)
    17f6:	4a27      	ldr	r2, [pc, #156]	; (1894 <buttons_init+0x170>)
    17f8:	6812      	ldr	r2, [r2, #0]
    17fa:	2110      	movs	r1, #16
    17fc:	430a      	orrs	r2, r1
    17fe:	601a      	str	r2, [r3, #0]
	while (EIC->STATUS.bit.SYNCBUSY) {}
    1800:	46c0      	nop			; (mov r8, r8)
    1802:	4b23      	ldr	r3, [pc, #140]	; (1890 <buttons_init+0x16c>)
    1804:	785b      	ldrb	r3, [r3, #1]
    1806:	061b      	lsls	r3, r3, #24
    1808:	0fdb      	lsrs	r3, r3, #31
    180a:	b2db      	uxtb	r3, r3
    180c:	2b00      	cmp	r3, #0
    180e:	d1f8      	bne.n	1802 <buttons_init+0xde>
	REG_EIC_CONFIG0 |= EIC_CONFIG_FILTEN4 | EIC_CONFIG_SENSE4_BOTH;	// sense Joystick on both edges and filter it
    1810:	4b21      	ldr	r3, [pc, #132]	; (1898 <buttons_init+0x174>)
    1812:	4a21      	ldr	r2, [pc, #132]	; (1898 <buttons_init+0x174>)
    1814:	6812      	ldr	r2, [r2, #0]
    1816:	21b0      	movs	r1, #176	; 0xb0
    1818:	0309      	lsls	r1, r1, #12
    181a:	430a      	orrs	r2, r1
    181c:	601a      	str	r2, [r3, #0]
	while (EIC->STATUS.bit.SYNCBUSY) {}
    181e:	46c0      	nop			; (mov r8, r8)
    1820:	4b1b      	ldr	r3, [pc, #108]	; (1890 <buttons_init+0x16c>)
    1822:	785b      	ldrb	r3, [r3, #1]
    1824:	061b      	lsls	r3, r3, #24
    1826:	0fdb      	lsrs	r3, r3, #31
    1828:	b2db      	uxtb	r3, r3
    182a:	2b00      	cmp	r3, #0
    182c:	d1f8      	bne.n	1820 <buttons_init+0xfc>
	REG_EIC_NMICTRL |= EIC_NMICTRL_NMIFILTEN | EIC_NMICTRL_NMISENSE_BOTH;// sense NMI on both edges and filter it
    182e:	4a1b      	ldr	r2, [pc, #108]	; (189c <buttons_init+0x178>)
    1830:	4b1a      	ldr	r3, [pc, #104]	; (189c <buttons_init+0x178>)
    1832:	781b      	ldrb	r3, [r3, #0]
    1834:	b2db      	uxtb	r3, r3
    1836:	210b      	movs	r1, #11
    1838:	430b      	orrs	r3, r1
    183a:	b2db      	uxtb	r3, r3
    183c:	7013      	strb	r3, [r2, #0]
	while (EIC->STATUS.bit.SYNCBUSY) {}
    183e:	46c0      	nop			; (mov r8, r8)
    1840:	4b13      	ldr	r3, [pc, #76]	; (1890 <buttons_init+0x16c>)
    1842:	785b      	ldrb	r3, [r3, #1]
    1844:	061b      	lsls	r3, r3, #24
    1846:	0fdb      	lsrs	r3, r3, #31
    1848:	b2db      	uxtb	r3, r3
    184a:	2b00      	cmp	r3, #0
    184c:	d1f8      	bne.n	1840 <buttons_init+0x11c>
	REG_EIC_CTRL |= EIC_CTRL_ENABLE;		// release the floodgates
    184e:	4a10      	ldr	r2, [pc, #64]	; (1890 <buttons_init+0x16c>)
    1850:	4b0f      	ldr	r3, [pc, #60]	; (1890 <buttons_init+0x16c>)
    1852:	781b      	ldrb	r3, [r3, #0]
    1854:	b2db      	uxtb	r3, r3
    1856:	2102      	movs	r1, #2
    1858:	430b      	orrs	r3, r1
    185a:	b2db      	uxtb	r3, r3
    185c:	7013      	strb	r3, [r2, #0]
	while (EIC->STATUS.bit.SYNCBUSY) {}
    185e:	46c0      	nop			; (mov r8, r8)
    1860:	4b0b      	ldr	r3, [pc, #44]	; (1890 <buttons_init+0x16c>)
    1862:	785b      	ldrb	r3, [r3, #1]
    1864:	061b      	lsls	r3, r3, #24
    1866:	0fdb      	lsrs	r3, r3, #31
    1868:	b2db      	uxtb	r3, r3
    186a:	2b00      	cmp	r3, #0
    186c:	d1f8      	bne.n	1860 <buttons_init+0x13c>

	// turn on EIC_Handler
	NVIC_EnableIRQ(EIC_IRQn);
    186e:	2004      	movs	r0, #4
    1870:	4b0b      	ldr	r3, [pc, #44]	; (18a0 <buttons_init+0x17c>)
    1872:	4798      	blx	r3
}
    1874:	46c0      	nop			; (mov r8, r8)
    1876:	46bd      	mov	sp, r7
    1878:	bd80      	pop	{r7, pc}
    187a:	46c0      	nop			; (mov r8, r8)
    187c:	41004400 	.word	0x41004400
    1880:	40000800 	.word	0x40000800
    1884:	40000400 	.word	0x40000400
    1888:	40000c00 	.word	0x40000c00
    188c:	00004105 	.word	0x00004105
    1890:	40001800 	.word	0x40001800
    1894:	4000180c 	.word	0x4000180c
    1898:	40001818 	.word	0x40001818
    189c:	40001802 	.word	0x40001802
    18a0:	000016f9 	.word	0x000016f9

000018a4 <buttons_get>:

//==============================================================================
// Inputs are active high
//==============================================================================
bool buttons_get(uint8_t button)
{
    18a4:	b580      	push	{r7, lr}
    18a6:	b084      	sub	sp, #16
    18a8:	af00      	add	r7, sp, #0
    18aa:	0002      	movs	r2, r0
    18ac:	1dfb      	adds	r3, r7, #7
    18ae:	701a      	strb	r2, [r3, #0]
	// set up return value and get button states
	bool retval = false;
    18b0:	230f      	movs	r3, #15
    18b2:	18fb      	adds	r3, r7, r3
    18b4:	2200      	movs	r2, #0
    18b6:	701a      	strb	r2, [r3, #0]
	
	// return joystick button if asked for
	if(button == 0x04)
    18b8:	1dfb      	adds	r3, r7, #7
    18ba:	781b      	ldrb	r3, [r3, #0]
    18bc:	2b04      	cmp	r3, #4
    18be:	d105      	bne.n	18cc <buttons_get+0x28>
		retval = joystickButton;
    18c0:	230f      	movs	r3, #15
    18c2:	18fb      	adds	r3, r7, r3
    18c4:	4a2e      	ldr	r2, [pc, #184]	; (1980 <buttons_get+0xdc>)
    18c6:	7812      	ldrb	r2, [r2, #0]
    18c8:	701a      	strb	r2, [r3, #0]
    18ca:	e052      	b.n	1972 <buttons_get+0xce>
	
	// if one of the 4 pushbuttons is pressed (and not asking for joystick button)
	// return the value of the requested button
	else if(btnact == 1)
    18cc:	4b2d      	ldr	r3, [pc, #180]	; (1984 <buttons_get+0xe0>)
    18ce:	781b      	ldrb	r3, [r3, #0]
    18d0:	2b00      	cmp	r3, #0
    18d2:	d04e      	beq.n	1972 <buttons_get+0xce>
	{	
		if(button == 0x00 && (!btn0 & !btn1) == 1)
    18d4:	1dfb      	adds	r3, r7, #7
    18d6:	781b      	ldrb	r3, [r3, #0]
    18d8:	2b00      	cmp	r3, #0
    18da:	d112      	bne.n	1902 <buttons_get+0x5e>
    18dc:	4b2a      	ldr	r3, [pc, #168]	; (1988 <buttons_get+0xe4>)
    18de:	781b      	ldrb	r3, [r3, #0]
    18e0:	2201      	movs	r2, #1
    18e2:	4053      	eors	r3, r2
    18e4:	b2db      	uxtb	r3, r3
    18e6:	0019      	movs	r1, r3
    18e8:	4b28      	ldr	r3, [pc, #160]	; (198c <buttons_get+0xe8>)
    18ea:	781b      	ldrb	r3, [r3, #0]
    18ec:	2201      	movs	r2, #1
    18ee:	4053      	eors	r3, r2
    18f0:	b2db      	uxtb	r3, r3
    18f2:	400b      	ands	r3, r1
    18f4:	2b01      	cmp	r3, #1
    18f6:	d104      	bne.n	1902 <buttons_get+0x5e>
			retval = true;
    18f8:	230f      	movs	r3, #15
    18fa:	18fb      	adds	r3, r7, r3
    18fc:	2201      	movs	r2, #1
    18fe:	701a      	strb	r2, [r3, #0]
    1900:	e037      	b.n	1972 <buttons_get+0xce>
		else if(button == 0x01 && (btn0 & !btn1) == 1)
    1902:	1dfb      	adds	r3, r7, #7
    1904:	781b      	ldrb	r3, [r3, #0]
    1906:	2b01      	cmp	r3, #1
    1908:	d10f      	bne.n	192a <buttons_get+0x86>
    190a:	4b1f      	ldr	r3, [pc, #124]	; (1988 <buttons_get+0xe4>)
    190c:	781b      	ldrb	r3, [r3, #0]
    190e:	0019      	movs	r1, r3
    1910:	4b1e      	ldr	r3, [pc, #120]	; (198c <buttons_get+0xe8>)
    1912:	781b      	ldrb	r3, [r3, #0]
    1914:	2201      	movs	r2, #1
    1916:	4053      	eors	r3, r2
    1918:	b2db      	uxtb	r3, r3
    191a:	400b      	ands	r3, r1
    191c:	2b01      	cmp	r3, #1
    191e:	d104      	bne.n	192a <buttons_get+0x86>
			retval = true;
    1920:	230f      	movs	r3, #15
    1922:	18fb      	adds	r3, r7, r3
    1924:	2201      	movs	r2, #1
    1926:	701a      	strb	r2, [r3, #0]
    1928:	e023      	b.n	1972 <buttons_get+0xce>
		else if(button == 0x02 && (!btn0 & btn1) == 1)
    192a:	1dfb      	adds	r3, r7, #7
    192c:	781b      	ldrb	r3, [r3, #0]
    192e:	2b02      	cmp	r3, #2
    1930:	d10f      	bne.n	1952 <buttons_get+0xae>
    1932:	4b15      	ldr	r3, [pc, #84]	; (1988 <buttons_get+0xe4>)
    1934:	781b      	ldrb	r3, [r3, #0]
    1936:	2201      	movs	r2, #1
    1938:	4053      	eors	r3, r2
    193a:	b2db      	uxtb	r3, r3
    193c:	001a      	movs	r2, r3
    193e:	4b13      	ldr	r3, [pc, #76]	; (198c <buttons_get+0xe8>)
    1940:	781b      	ldrb	r3, [r3, #0]
    1942:	4013      	ands	r3, r2
    1944:	2b01      	cmp	r3, #1
    1946:	d104      	bne.n	1952 <buttons_get+0xae>
			retval = true;
    1948:	230f      	movs	r3, #15
    194a:	18fb      	adds	r3, r7, r3
    194c:	2201      	movs	r2, #1
    194e:	701a      	strb	r2, [r3, #0]
    1950:	e00f      	b.n	1972 <buttons_get+0xce>
		else if(button == 0x03 && (btn0 & btn1) == 1)
    1952:	1dfb      	adds	r3, r7, #7
    1954:	781b      	ldrb	r3, [r3, #0]
    1956:	2b03      	cmp	r3, #3
    1958:	d10b      	bne.n	1972 <buttons_get+0xce>
    195a:	4b0b      	ldr	r3, [pc, #44]	; (1988 <buttons_get+0xe4>)
    195c:	781b      	ldrb	r3, [r3, #0]
    195e:	001a      	movs	r2, r3
    1960:	4b0a      	ldr	r3, [pc, #40]	; (198c <buttons_get+0xe8>)
    1962:	781b      	ldrb	r3, [r3, #0]
    1964:	4013      	ands	r3, r2
    1966:	2b01      	cmp	r3, #1
    1968:	d103      	bne.n	1972 <buttons_get+0xce>
			retval = true;
    196a:	230f      	movs	r3, #15
    196c:	18fb      	adds	r3, r7, r3
    196e:	2201      	movs	r2, #1
    1970:	701a      	strb	r2, [r3, #0]
	}
  
	return retval;	// return the requested value
    1972:	230f      	movs	r3, #15
    1974:	18fb      	adds	r3, r7, r3
    1976:	781b      	ldrb	r3, [r3, #0]
}
    1978:	0018      	movs	r0, r3
    197a:	46bd      	mov	sp, r7
    197c:	b004      	add	sp, #16
    197e:	bd80      	pop	{r7, pc}
    1980:	20001b00 	.word	0x20001b00
    1984:	20001b05 	.word	0x20001b05
    1988:	20001b03 	.word	0x20001b03
    198c:	20001b04 	.word	0x20001b04

00001990 <EIC_Handler>:
//     | .__/ |  \  .__/
//
//------------------------------------------------------------------------------

void EIC_Handler()
{
    1990:	b580      	push	{r7, lr}
    1992:	af00      	add	r7, sp, #0
	if(REG_EIC_INTFLAG & 0x10){
    1994:	4b13      	ldr	r3, [pc, #76]	; (19e4 <EIC_Handler+0x54>)
    1996:	681b      	ldr	r3, [r3, #0]
    1998:	2210      	movs	r2, #16
    199a:	4013      	ands	r3, r2
    199c:	d01f      	beq.n	19de <EIC_Handler+0x4e>
		joystickButton = !(PORT->Group[BUTTON_JOYSTICK_GROUP].IN.reg & (BUTTON_JOYSTICK));
    199e:	4b12      	ldr	r3, [pc, #72]	; (19e8 <EIC_Handler+0x58>)
    19a0:	6a1a      	ldr	r2, [r3, #32]
    19a2:	2380      	movs	r3, #128	; 0x80
    19a4:	035b      	lsls	r3, r3, #13
    19a6:	4013      	ands	r3, r2
    19a8:	425a      	negs	r2, r3
    19aa:	4153      	adcs	r3, r2
    19ac:	b2da      	uxtb	r2, r3
    19ae:	4b0f      	ldr	r3, [pc, #60]	; (19ec <EIC_Handler+0x5c>)
    19b0:	701a      	strb	r2, [r3, #0]
		
		// determine if it's a rising or falling edge
		if(joystickButton){
    19b2:	4b0e      	ldr	r3, [pc, #56]	; (19ec <EIC_Handler+0x5c>)
    19b4:	781b      	ldrb	r3, [r3, #0]
    19b6:	2b00      	cmp	r3, #0
    19b8:	d006      	beq.n	19c8 <EIC_Handler+0x38>
			joyRising = true;
    19ba:	4b0d      	ldr	r3, [pc, #52]	; (19f0 <EIC_Handler+0x60>)
    19bc:	2201      	movs	r2, #1
    19be:	701a      	strb	r2, [r3, #0]
			joyFalling = false;
    19c0:	4b0c      	ldr	r3, [pc, #48]	; (19f4 <EIC_Handler+0x64>)
    19c2:	2200      	movs	r2, #0
    19c4:	701a      	strb	r2, [r3, #0]
    19c6:	e005      	b.n	19d4 <EIC_Handler+0x44>
		}
		else{
			joyRising = false;
    19c8:	4b09      	ldr	r3, [pc, #36]	; (19f0 <EIC_Handler+0x60>)
    19ca:	2200      	movs	r2, #0
    19cc:	701a      	strb	r2, [r3, #0]
			joyFalling = true;
    19ce:	4b09      	ldr	r3, [pc, #36]	; (19f4 <EIC_Handler+0x64>)
    19d0:	2201      	movs	r2, #1
    19d2:	701a      	strb	r2, [r3, #0]
		}
			
		EIC->INTFLAG.bit.EXTINT4 = 1;
    19d4:	4a08      	ldr	r2, [pc, #32]	; (19f8 <EIC_Handler+0x68>)
    19d6:	6913      	ldr	r3, [r2, #16]
    19d8:	2110      	movs	r1, #16
    19da:	430b      	orrs	r3, r1
    19dc:	6113      	str	r3, [r2, #16]
	}
}
    19de:	46c0      	nop			; (mov r8, r8)
    19e0:	46bd      	mov	sp, r7
    19e2:	bd80      	pop	{r7, pc}
    19e4:	40001810 	.word	0x40001810
    19e8:	41004400 	.word	0x41004400
    19ec:	20001b00 	.word	0x20001b00
    19f0:	20001b01 	.word	0x20001b01
    19f4:	20001b02 	.word	0x20001b02
    19f8:	40001800 	.word	0x40001800

000019fc <NonMaskableInt_Handler>:

void NonMaskableInt_Handler()
{
    19fc:	b580      	push	{r7, lr}
    19fe:	af00      	add	r7, sp, #0
	if(REG_EIC_NMIFLAG & 0x01){
    1a00:	4b16      	ldr	r3, [pc, #88]	; (1a5c <NonMaskableInt_Handler+0x60>)
    1a02:	781b      	ldrb	r3, [r3, #0]
    1a04:	b2db      	uxtb	r3, r3
    1a06:	001a      	movs	r2, r3
    1a08:	2301      	movs	r3, #1
    1a0a:	4013      	ands	r3, r2
    1a0c:	d022      	beq.n	1a54 <NonMaskableInt_Handler+0x58>
		btnact = (PORT->Group[BUTTON_ACTIVE_GROUP].IN.reg & (BUTTON_ACTIVE));
    1a0e:	4b14      	ldr	r3, [pc, #80]	; (1a60 <NonMaskableInt_Handler+0x64>)
    1a10:	6a1a      	ldr	r2, [r3, #32]
    1a12:	2380      	movs	r3, #128	; 0x80
    1a14:	005b      	lsls	r3, r3, #1
    1a16:	4013      	ands	r3, r2
    1a18:	1e5a      	subs	r2, r3, #1
    1a1a:	4193      	sbcs	r3, r2
    1a1c:	b2da      	uxtb	r2, r3
    1a1e:	4b11      	ldr	r3, [pc, #68]	; (1a64 <NonMaskableInt_Handler+0x68>)
    1a20:	701a      	strb	r2, [r3, #0]
		
		btn1 = (PORT->Group[BUTTON_1_GROUP].IN.reg & (BUTTON_1));
    1a22:	4b0f      	ldr	r3, [pc, #60]	; (1a60 <NonMaskableInt_Handler+0x64>)
    1a24:	6a1b      	ldr	r3, [r3, #32]
    1a26:	2210      	movs	r2, #16
    1a28:	4013      	ands	r3, r2
    1a2a:	1e5a      	subs	r2, r3, #1
    1a2c:	4193      	sbcs	r3, r2
    1a2e:	b2da      	uxtb	r2, r3
    1a30:	4b0d      	ldr	r3, [pc, #52]	; (1a68 <NonMaskableInt_Handler+0x6c>)
    1a32:	701a      	strb	r2, [r3, #0]
		btn0 = (PORT->Group[BUTTON_0_GROUP].IN.reg & (BUTTON_0));
    1a34:	4a0a      	ldr	r2, [pc, #40]	; (1a60 <NonMaskableInt_Handler+0x64>)
    1a36:	23a0      	movs	r3, #160	; 0xa0
    1a38:	58d2      	ldr	r2, [r2, r3]
    1a3a:	2380      	movs	r3, #128	; 0x80
    1a3c:	009b      	lsls	r3, r3, #2
    1a3e:	4013      	ands	r3, r2
    1a40:	1e5a      	subs	r2, r3, #1
    1a42:	4193      	sbcs	r3, r2
    1a44:	b2da      	uxtb	r2, r3
    1a46:	4b09      	ldr	r3, [pc, #36]	; (1a6c <NonMaskableInt_Handler+0x70>)
    1a48:	701a      	strb	r2, [r3, #0]
		
		EIC->NMIFLAG.bit.NMI = 1;
    1a4a:	4a09      	ldr	r2, [pc, #36]	; (1a70 <NonMaskableInt_Handler+0x74>)
    1a4c:	78d3      	ldrb	r3, [r2, #3]
    1a4e:	2101      	movs	r1, #1
    1a50:	430b      	orrs	r3, r1
    1a52:	70d3      	strb	r3, [r2, #3]
	}
    1a54:	46c0      	nop			; (mov r8, r8)
    1a56:	46bd      	mov	sp, r7
    1a58:	bd80      	pop	{r7, pc}
    1a5a:	46c0      	nop			; (mov r8, r8)
    1a5c:	40001803 	.word	0x40001803
    1a60:	41004400 	.word	0x41004400
    1a64:	20001b05 	.word	0x20001b05
    1a68:	20001b04 	.word	0x20001b04
    1a6c:	20001b03 	.word	0x20001b03
    1a70:	40001800 	.word	0x40001800

00001a74 <Reset_Handler>:
/**
 * \brief This is the code that gets called on processor reset.
 * To initialize the device, and call the main() routine.
 */
void Reset_Handler(void)
{
    1a74:	b580      	push	{r7, lr}
    1a76:	b082      	sub	sp, #8
    1a78:	af00      	add	r7, sp, #0
        uint32_t *pSrc, *pDest;

        /* Initialize the relocate segment */
        pSrc = &_etext;
    1a7a:	4b2f      	ldr	r3, [pc, #188]	; (1b38 <Reset_Handler+0xc4>)
    1a7c:	607b      	str	r3, [r7, #4]
        pDest = &_srelocate;
    1a7e:	4b2f      	ldr	r3, [pc, #188]	; (1b3c <Reset_Handler+0xc8>)
    1a80:	603b      	str	r3, [r7, #0]

        if (pSrc != pDest) {
    1a82:	687a      	ldr	r2, [r7, #4]
    1a84:	683b      	ldr	r3, [r7, #0]
    1a86:	429a      	cmp	r2, r3
    1a88:	d00c      	beq.n	1aa4 <Reset_Handler+0x30>
                for (; pDest < &_erelocate;) {
    1a8a:	e007      	b.n	1a9c <Reset_Handler+0x28>
                        *pDest++ = *pSrc++;
    1a8c:	683b      	ldr	r3, [r7, #0]
    1a8e:	1d1a      	adds	r2, r3, #4
    1a90:	603a      	str	r2, [r7, #0]
    1a92:	687a      	ldr	r2, [r7, #4]
    1a94:	1d11      	adds	r1, r2, #4
    1a96:	6079      	str	r1, [r7, #4]
    1a98:	6812      	ldr	r2, [r2, #0]
    1a9a:	601a      	str	r2, [r3, #0]
                for (; pDest < &_erelocate;) {
    1a9c:	683a      	ldr	r2, [r7, #0]
    1a9e:	4b28      	ldr	r3, [pc, #160]	; (1b40 <Reset_Handler+0xcc>)
    1aa0:	429a      	cmp	r2, r3
    1aa2:	d3f3      	bcc.n	1a8c <Reset_Handler+0x18>
                }
        }

        /* Clear the zero segment */
        for (pDest = &_szero; pDest < &_ezero;) {
    1aa4:	4b27      	ldr	r3, [pc, #156]	; (1b44 <Reset_Handler+0xd0>)
    1aa6:	603b      	str	r3, [r7, #0]
    1aa8:	e004      	b.n	1ab4 <Reset_Handler+0x40>
                *pDest++ = 0;
    1aaa:	683b      	ldr	r3, [r7, #0]
    1aac:	1d1a      	adds	r2, r3, #4
    1aae:	603a      	str	r2, [r7, #0]
    1ab0:	2200      	movs	r2, #0
    1ab2:	601a      	str	r2, [r3, #0]
        for (pDest = &_szero; pDest < &_ezero;) {
    1ab4:	683a      	ldr	r2, [r7, #0]
    1ab6:	4b24      	ldr	r3, [pc, #144]	; (1b48 <Reset_Handler+0xd4>)
    1ab8:	429a      	cmp	r2, r3
    1aba:	d3f6      	bcc.n	1aaa <Reset_Handler+0x36>
        }

        /* Set the vector table base address */
        pSrc = (uint32_t *) & _sfixed;
    1abc:	4b23      	ldr	r3, [pc, #140]	; (1b4c <Reset_Handler+0xd8>)
    1abe:	607b      	str	r3, [r7, #4]
        SCB->VTOR = ((uint32_t) pSrc & SCB_VTOR_TBLOFF_Msk);
    1ac0:	4b23      	ldr	r3, [pc, #140]	; (1b50 <Reset_Handler+0xdc>)
    1ac2:	687a      	ldr	r2, [r7, #4]
    1ac4:	21ff      	movs	r1, #255	; 0xff
    1ac6:	438a      	bics	r2, r1
    1ac8:	609a      	str	r2, [r3, #8]

        /* Change default QOS values to have the best performance and correct USB behaviour */
        SBMATRIX->SFR[SBMATRIX_SLAVE_HMCRAMC0].reg = 2;
    1aca:	4a22      	ldr	r2, [pc, #136]	; (1b54 <Reset_Handler+0xe0>)
    1acc:	2390      	movs	r3, #144	; 0x90
    1ace:	005b      	lsls	r3, r3, #1
    1ad0:	2102      	movs	r1, #2
    1ad2:	50d1      	str	r1, [r2, r3]
#if defined(ID_USB)
        USB->DEVICE.QOSCTRL.bit.CQOS = 2;
    1ad4:	4a20      	ldr	r2, [pc, #128]	; (1b58 <Reset_Handler+0xe4>)
    1ad6:	78d3      	ldrb	r3, [r2, #3]
    1ad8:	2103      	movs	r1, #3
    1ada:	438b      	bics	r3, r1
    1adc:	1c19      	adds	r1, r3, #0
    1ade:	2302      	movs	r3, #2
    1ae0:	430b      	orrs	r3, r1
    1ae2:	70d3      	strb	r3, [r2, #3]
        USB->DEVICE.QOSCTRL.bit.DQOS = 2;
    1ae4:	4a1c      	ldr	r2, [pc, #112]	; (1b58 <Reset_Handler+0xe4>)
    1ae6:	78d3      	ldrb	r3, [r2, #3]
    1ae8:	210c      	movs	r1, #12
    1aea:	438b      	bics	r3, r1
    1aec:	1c19      	adds	r1, r3, #0
    1aee:	2308      	movs	r3, #8
    1af0:	430b      	orrs	r3, r1
    1af2:	70d3      	strb	r3, [r2, #3]
#endif
        DMAC->QOSCTRL.bit.DQOS = 2;
    1af4:	4a19      	ldr	r2, [pc, #100]	; (1b5c <Reset_Handler+0xe8>)
    1af6:	7b93      	ldrb	r3, [r2, #14]
    1af8:	2130      	movs	r1, #48	; 0x30
    1afa:	438b      	bics	r3, r1
    1afc:	1c19      	adds	r1, r3, #0
    1afe:	2320      	movs	r3, #32
    1b00:	430b      	orrs	r3, r1
    1b02:	7393      	strb	r3, [r2, #14]
        DMAC->QOSCTRL.bit.FQOS = 2;
    1b04:	4a15      	ldr	r2, [pc, #84]	; (1b5c <Reset_Handler+0xe8>)
    1b06:	7b93      	ldrb	r3, [r2, #14]
    1b08:	210c      	movs	r1, #12
    1b0a:	438b      	bics	r3, r1
    1b0c:	1c19      	adds	r1, r3, #0
    1b0e:	2308      	movs	r3, #8
    1b10:	430b      	orrs	r3, r1
    1b12:	7393      	strb	r3, [r2, #14]
        DMAC->QOSCTRL.bit.WRBQOS = 2;
    1b14:	4a11      	ldr	r2, [pc, #68]	; (1b5c <Reset_Handler+0xe8>)
    1b16:	7b93      	ldrb	r3, [r2, #14]
    1b18:	2103      	movs	r1, #3
    1b1a:	438b      	bics	r3, r1
    1b1c:	1c19      	adds	r1, r3, #0
    1b1e:	2302      	movs	r3, #2
    1b20:	430b      	orrs	r3, r1
    1b22:	7393      	strb	r3, [r2, #14]

        /* Overwriting the default value of the NVMCTRL.CTRLB.MANW bit (errata reference 13134) */
        NVMCTRL->CTRLB.bit.MANW = 1;
    1b24:	4a0e      	ldr	r2, [pc, #56]	; (1b60 <Reset_Handler+0xec>)
    1b26:	6853      	ldr	r3, [r2, #4]
    1b28:	2180      	movs	r1, #128	; 0x80
    1b2a:	430b      	orrs	r3, r1
    1b2c:	6053      	str	r3, [r2, #4]

        /* Initialize the C library */
        __libc_init_array();
    1b2e:	4b0d      	ldr	r3, [pc, #52]	; (1b64 <Reset_Handler+0xf0>)
    1b30:	4798      	blx	r3

        /* Branch to main function */
        main();
    1b32:	4b0d      	ldr	r3, [pc, #52]	; (1b68 <Reset_Handler+0xf4>)
    1b34:	4798      	blx	r3

        /* Infinite loop */
        while (1);
    1b36:	e7fe      	b.n	1b36 <Reset_Handler+0xc2>
    1b38:	0000d420 	.word	0x0000d420
    1b3c:	20000000 	.word	0x20000000
    1b40:	20001adc 	.word	0x20001adc
    1b44:	20001ae0 	.word	0x20001ae0
    1b48:	200027d4 	.word	0x200027d4
    1b4c:	00000000 	.word	0x00000000
    1b50:	e000ed00 	.word	0xe000ed00
    1b54:	41007000 	.word	0x41007000
    1b58:	41005000 	.word	0x41005000
    1b5c:	41004800 	.word	0x41004800
    1b60:	41004000 	.word	0x41004000
    1b64:	0000ae5d 	.word	0x0000ae5d
    1b68:	000022c5 	.word	0x000022c5

00001b6c <Dummy_Handler>:

/**
 * \brief Default interrupt handler for unused IRQs.
 */
void Dummy_Handler(void)
{
    1b6c:	b580      	push	{r7, lr}
    1b6e:	af00      	add	r7, sp, #0
        while (1) {
    1b70:	e7fe      	b.n	1b70 <Dummy_Handler+0x4>
	...

00001b74 <SystemInit>:

#define MASTER_CLOCK_FREQ (48000000ul)
#define MAIN_OSC_FREQ (32768ul)

void SystemInit( void )
{
    1b74:	b580      	push	{r7, lr}
    1b76:	b082      	sub	sp, #8
    1b78:	af00      	add	r7, sp, #0
  /* Set 1 Flash Wait State for 48MHz, cf tables 20.9 and 35.27 in SAMD21 Datasheet */
  NVMCTRL->CTRLB.bit.RWS = NVMCTRL_CTRLB_RWS_HALF_Val ;
    1b7a:	4a77      	ldr	r2, [pc, #476]	; (1d58 <SystemInit+0x1e4>)
    1b7c:	6853      	ldr	r3, [r2, #4]
    1b7e:	211e      	movs	r1, #30
    1b80:	438b      	bics	r3, r1
    1b82:	2102      	movs	r1, #2
    1b84:	430b      	orrs	r3, r1
    1b86:	6053      	str	r3, [r2, #4]

  /* Turn on the digital interface clock */
  PM->APBAMASK.reg |= PM_APBAMASK_GCLK ;
    1b88:	4b74      	ldr	r3, [pc, #464]	; (1d5c <SystemInit+0x1e8>)
    1b8a:	4a74      	ldr	r2, [pc, #464]	; (1d5c <SystemInit+0x1e8>)
    1b8c:	6992      	ldr	r2, [r2, #24]
    1b8e:	2108      	movs	r1, #8
    1b90:	430a      	orrs	r2, r1
    1b92:	619a      	str	r2, [r3, #24]

  /* ----------------------------------------------------------------------------------------------
   * 1) Enable XOSC32K clock (External on-board 32.768Hz oscillator)
   */
  SYSCTRL->XOSC32K.reg = SYSCTRL_XOSC32K_STARTUP( 0x6u ) | /* cf table 15.10 of product datasheet in chapter 15.8.6 */
    1b94:	4b72      	ldr	r3, [pc, #456]	; (1d60 <SystemInit+0x1ec>)
    1b96:	4a73      	ldr	r2, [pc, #460]	; (1d64 <SystemInit+0x1f0>)
    1b98:	829a      	strh	r2, [r3, #20]
                         SYSCTRL_XOSC32K_XTALEN | SYSCTRL_XOSC32K_EN32K ;
  SYSCTRL->XOSC32K.bit.ENABLE = 1 ; /* separate call, as described in chapter 15.6.3 */
    1b9a:	4a71      	ldr	r2, [pc, #452]	; (1d60 <SystemInit+0x1ec>)
    1b9c:	8a93      	ldrh	r3, [r2, #20]
    1b9e:	2102      	movs	r1, #2
    1ba0:	430b      	orrs	r3, r1
    1ba2:	8293      	strh	r3, [r2, #20]

  while ( (SYSCTRL->PCLKSR.reg & SYSCTRL_PCLKSR_XOSC32KRDY) == 0 )
    1ba4:	46c0      	nop			; (mov r8, r8)
    1ba6:	4b6e      	ldr	r3, [pc, #440]	; (1d60 <SystemInit+0x1ec>)
    1ba8:	68db      	ldr	r3, [r3, #12]
    1baa:	2202      	movs	r2, #2
    1bac:	4013      	ands	r3, r2
    1bae:	d0fa      	beq.n	1ba6 <SystemInit+0x32>

  /* Software reset the module to ensure it is re-initialized correctly */
  /* Note: Due to synchronization, there is a delay from writing CTRL.SWRST until the reset is complete.
   * CTRL.SWRST and STATUS.SYNCBUSY will both be cleared when the reset is complete, as described in chapter 13.8.1
   */
  GCLK->CTRL.reg = GCLK_CTRL_SWRST ;
    1bb0:	4b6d      	ldr	r3, [pc, #436]	; (1d68 <SystemInit+0x1f4>)
    1bb2:	2201      	movs	r2, #1
    1bb4:	701a      	strb	r2, [r3, #0]

  while ( (GCLK->CTRL.reg & GCLK_CTRL_SWRST) && (GCLK->STATUS.reg & GCLK_STATUS_SYNCBUSY) )
    1bb6:	46c0      	nop			; (mov r8, r8)
    1bb8:	4b6b      	ldr	r3, [pc, #428]	; (1d68 <SystemInit+0x1f4>)
    1bba:	781b      	ldrb	r3, [r3, #0]
    1bbc:	b2db      	uxtb	r3, r3
    1bbe:	001a      	movs	r2, r3
    1bc0:	2301      	movs	r3, #1
    1bc2:	4013      	ands	r3, r2
    1bc4:	d005      	beq.n	1bd2 <SystemInit+0x5e>
    1bc6:	4b68      	ldr	r3, [pc, #416]	; (1d68 <SystemInit+0x1f4>)
    1bc8:	785b      	ldrb	r3, [r3, #1]
    1bca:	b2db      	uxtb	r3, r3
    1bcc:	b25b      	sxtb	r3, r3
    1bce:	2b00      	cmp	r3, #0
    1bd0:	dbf2      	blt.n	1bb8 <SystemInit+0x44>
  }

  /* ----------------------------------------------------------------------------------------------
   * 2) Put XOSC32K as source of Generic Clock Generator 1
   */
  GCLK->GENDIV.reg = GCLK_GENDIV_ID( GENERIC_CLOCK_GENERATOR_XOSC32K ) ; // Generic Clock Generator 1
    1bd2:	4b65      	ldr	r3, [pc, #404]	; (1d68 <SystemInit+0x1f4>)
    1bd4:	2201      	movs	r2, #1
    1bd6:	609a      	str	r2, [r3, #8]

  while ( GCLK->STATUS.reg & GCLK_STATUS_SYNCBUSY )
    1bd8:	46c0      	nop			; (mov r8, r8)
    1bda:	4b63      	ldr	r3, [pc, #396]	; (1d68 <SystemInit+0x1f4>)
    1bdc:	785b      	ldrb	r3, [r3, #1]
    1bde:	b2db      	uxtb	r3, r3
    1be0:	b25b      	sxtb	r3, r3
    1be2:	2b00      	cmp	r3, #0
    1be4:	dbf9      	blt.n	1bda <SystemInit+0x66>
  {
    /* Wait for synchronization */
  }

  /* Write Generic Clock Generator 1 configuration */
  GCLK->GENCTRL.reg = GCLK_GENCTRL_ID( GENERIC_CLOCK_GENERATOR_XOSC32K ) | // Generic Clock Generator 1
    1be6:	4b60      	ldr	r3, [pc, #384]	; (1d68 <SystemInit+0x1f4>)
    1be8:	4a60      	ldr	r2, [pc, #384]	; (1d6c <SystemInit+0x1f8>)
    1bea:	605a      	str	r2, [r3, #4]
                      GCLK_GENCTRL_SRC_XOSC32K | // Selected source is External 32KHz Oscillator
//                      GCLK_GENCTRL_OE | // Output clock to a pin for tests
                      GCLK_GENCTRL_GENEN ;

  while ( GCLK->STATUS.reg & GCLK_STATUS_SYNCBUSY )
    1bec:	46c0      	nop			; (mov r8, r8)
    1bee:	4b5e      	ldr	r3, [pc, #376]	; (1d68 <SystemInit+0x1f4>)
    1bf0:	785b      	ldrb	r3, [r3, #1]
    1bf2:	b2db      	uxtb	r3, r3
    1bf4:	b25b      	sxtb	r3, r3
    1bf6:	2b00      	cmp	r3, #0
    1bf8:	dbf9      	blt.n	1bee <SystemInit+0x7a>
  }

  /* ----------------------------------------------------------------------------------------------
   * 3) Put Generic Clock Generator 1 as source for Generic Clock Multiplexer 0 (DFLL48M reference)
   */
  GCLK->CLKCTRL.reg = GCLK_CLKCTRL_ID( GENERIC_CLOCK_MULTIPLEXER_DFLL48M ) | // Generic Clock Multiplexer 0
    1bfa:	4b5b      	ldr	r3, [pc, #364]	; (1d68 <SystemInit+0x1f4>)
    1bfc:	2282      	movs	r2, #130	; 0x82
    1bfe:	01d2      	lsls	r2, r2, #7
    1c00:	805a      	strh	r2, [r3, #2]
                      GCLK_CLKCTRL_GEN_GCLK1 | // Generic Clock Generator 1 is source
                      GCLK_CLKCTRL_CLKEN ;

  while ( GCLK->STATUS.reg & GCLK_STATUS_SYNCBUSY )
    1c02:	46c0      	nop			; (mov r8, r8)
    1c04:	4b58      	ldr	r3, [pc, #352]	; (1d68 <SystemInit+0x1f4>)
    1c06:	785b      	ldrb	r3, [r3, #1]
    1c08:	b2db      	uxtb	r3, r3
    1c0a:	b25b      	sxtb	r3, r3
    1c0c:	2b00      	cmp	r3, #0
    1c0e:	dbf9      	blt.n	1c04 <SystemInit+0x90>
   */

  /* DFLL Configuration in Closed Loop mode, cf product datasheet chapter 15.6.7.1 - Closed-Loop Operation */

  /* Remove the OnDemand mode, Bug http://avr32.icgroup.norway.atmel.com/bugzilla/show_bug.cgi?id=9905 */
  SYSCTRL->DFLLCTRL.bit.ONDEMAND = 0 ;
    1c10:	4a53      	ldr	r2, [pc, #332]	; (1d60 <SystemInit+0x1ec>)
    1c12:	8c93      	ldrh	r3, [r2, #36]	; 0x24
    1c14:	2180      	movs	r1, #128	; 0x80
    1c16:	438b      	bics	r3, r1
    1c18:	8493      	strh	r3, [r2, #36]	; 0x24

  while ( (SYSCTRL->PCLKSR.reg & SYSCTRL_PCLKSR_DFLLRDY) == 0 )
    1c1a:	46c0      	nop			; (mov r8, r8)
    1c1c:	4b50      	ldr	r3, [pc, #320]	; (1d60 <SystemInit+0x1ec>)
    1c1e:	68db      	ldr	r3, [r3, #12]
    1c20:	2210      	movs	r2, #16
    1c22:	4013      	ands	r3, r2
    1c24:	d0fa      	beq.n	1c1c <SystemInit+0xa8>
  {
    /* Wait for synchronization */
  }

  SYSCTRL->DFLLMUL.reg = SYSCTRL_DFLLMUL_CSTEP( 31 ) | // Coarse step is 31, half of the max value
    1c26:	4b4e      	ldr	r3, [pc, #312]	; (1d60 <SystemInit+0x1ec>)
    1c28:	4a51      	ldr	r2, [pc, #324]	; (1d70 <SystemInit+0x1fc>)
    1c2a:	62da      	str	r2, [r3, #44]	; 0x2c
                         SYSCTRL_DFLLMUL_FSTEP( 511 ) | // Fine step is 511, half of the max value
                         SYSCTRL_DFLLMUL_MUL( (MASTER_CLOCK_FREQ/MAIN_OSC_FREQ) ) ; // External 32KHz is the reference

  while ( (SYSCTRL->PCLKSR.reg & SYSCTRL_PCLKSR_DFLLRDY) == 0 )
    1c2c:	46c0      	nop			; (mov r8, r8)
    1c2e:	4b4c      	ldr	r3, [pc, #304]	; (1d60 <SystemInit+0x1ec>)
    1c30:	68db      	ldr	r3, [r3, #12]
    1c32:	2210      	movs	r2, #16
    1c34:	4013      	ands	r3, r2
    1c36:	d0fa      	beq.n	1c2e <SystemInit+0xba>
  {
    /* Wait for synchronization */
  }

  /* Write full configuration to DFLL control register */
  SYSCTRL->DFLLCTRL.reg |= SYSCTRL_DFLLCTRL_MODE | /* Enable the closed loop mode */
    1c38:	4a49      	ldr	r2, [pc, #292]	; (1d60 <SystemInit+0x1ec>)
    1c3a:	4b49      	ldr	r3, [pc, #292]	; (1d60 <SystemInit+0x1ec>)
    1c3c:	8c9b      	ldrh	r3, [r3, #36]	; 0x24
    1c3e:	b29b      	uxth	r3, r3
    1c40:	494c      	ldr	r1, [pc, #304]	; (1d74 <SystemInit+0x200>)
    1c42:	430b      	orrs	r3, r1
    1c44:	b29b      	uxth	r3, r3
    1c46:	8493      	strh	r3, [r2, #36]	; 0x24
                           SYSCTRL_DFLLCTRL_WAITLOCK |
                           SYSCTRL_DFLLCTRL_QLDIS ; /* Disable Quick lock */

  while ( (SYSCTRL->PCLKSR.reg & SYSCTRL_PCLKSR_DFLLRDY) == 0 )
    1c48:	46c0      	nop			; (mov r8, r8)
    1c4a:	4b45      	ldr	r3, [pc, #276]	; (1d60 <SystemInit+0x1ec>)
    1c4c:	68db      	ldr	r3, [r3, #12]
    1c4e:	2210      	movs	r2, #16
    1c50:	4013      	ands	r3, r2
    1c52:	d0fa      	beq.n	1c4a <SystemInit+0xd6>
  {
    /* Wait for synchronization */
  }

  /* Enable the DFLL */
  SYSCTRL->DFLLCTRL.reg |= SYSCTRL_DFLLCTRL_ENABLE ;
    1c54:	4a42      	ldr	r2, [pc, #264]	; (1d60 <SystemInit+0x1ec>)
    1c56:	4b42      	ldr	r3, [pc, #264]	; (1d60 <SystemInit+0x1ec>)
    1c58:	8c9b      	ldrh	r3, [r3, #36]	; 0x24
    1c5a:	b29b      	uxth	r3, r3
    1c5c:	2102      	movs	r1, #2
    1c5e:	430b      	orrs	r3, r1
    1c60:	b29b      	uxth	r3, r3
    1c62:	8493      	strh	r3, [r2, #36]	; 0x24

  while ( (SYSCTRL->PCLKSR.reg & SYSCTRL_PCLKSR_DFLLLCKC) == 0 ||
    1c64:	46c0      	nop			; (mov r8, r8)
    1c66:	4b3e      	ldr	r3, [pc, #248]	; (1d60 <SystemInit+0x1ec>)
    1c68:	68db      	ldr	r3, [r3, #12]
    1c6a:	2280      	movs	r2, #128	; 0x80
    1c6c:	4013      	ands	r3, r2
    1c6e:	d0fa      	beq.n	1c66 <SystemInit+0xf2>
          (SYSCTRL->PCLKSR.reg & SYSCTRL_PCLKSR_DFLLLCKF) == 0 )
    1c70:	4b3b      	ldr	r3, [pc, #236]	; (1d60 <SystemInit+0x1ec>)
    1c72:	68db      	ldr	r3, [r3, #12]
    1c74:	2240      	movs	r2, #64	; 0x40
    1c76:	4013      	ands	r3, r2
  while ( (SYSCTRL->PCLKSR.reg & SYSCTRL_PCLKSR_DFLLLCKC) == 0 ||
    1c78:	d0f5      	beq.n	1c66 <SystemInit+0xf2>
  {
    /* Wait for locks flags */
  }

  while ( (SYSCTRL->PCLKSR.reg & SYSCTRL_PCLKSR_DFLLRDY) == 0 )
    1c7a:	46c0      	nop			; (mov r8, r8)
    1c7c:	4b38      	ldr	r3, [pc, #224]	; (1d60 <SystemInit+0x1ec>)
    1c7e:	68db      	ldr	r3, [r3, #12]
    1c80:	2210      	movs	r2, #16
    1c82:	4013      	ands	r3, r2
    1c84:	d0fa      	beq.n	1c7c <SystemInit+0x108>
  }

  /* ----------------------------------------------------------------------------------------------
   * 5) Switch Generic Clock Generator 0 to DFLL48M. CPU will run at 48MHz.
   */
  GCLK->GENDIV.reg = GCLK_GENDIV_ID( GENERIC_CLOCK_GENERATOR_MAIN ) ; // Generic Clock Generator 0
    1c86:	4b38      	ldr	r3, [pc, #224]	; (1d68 <SystemInit+0x1f4>)
    1c88:	2200      	movs	r2, #0
    1c8a:	609a      	str	r2, [r3, #8]

  while ( GCLK->STATUS.reg & GCLK_STATUS_SYNCBUSY )
    1c8c:	46c0      	nop			; (mov r8, r8)
    1c8e:	4b36      	ldr	r3, [pc, #216]	; (1d68 <SystemInit+0x1f4>)
    1c90:	785b      	ldrb	r3, [r3, #1]
    1c92:	b2db      	uxtb	r3, r3
    1c94:	b25b      	sxtb	r3, r3
    1c96:	2b00      	cmp	r3, #0
    1c98:	dbf9      	blt.n	1c8e <SystemInit+0x11a>
  {
    /* Wait for synchronization */
  }

  /* Write Generic Clock Generator 0 configuration */
  GCLK->GENCTRL.reg = GCLK_GENCTRL_ID( GENERIC_CLOCK_GENERATOR_MAIN ) | // Generic Clock Generator 0
    1c9a:	4b33      	ldr	r3, [pc, #204]	; (1d68 <SystemInit+0x1f4>)
    1c9c:	4a36      	ldr	r2, [pc, #216]	; (1d78 <SystemInit+0x204>)
    1c9e:	605a      	str	r2, [r3, #4]
                      GCLK_GENCTRL_SRC_DFLL48M | // Selected source is DFLL 48MHz
//                      GCLK_GENCTRL_OE | // Output clock to a pin for tests
                      GCLK_GENCTRL_IDC | // Set 50/50 duty cycle
                      GCLK_GENCTRL_GENEN ;

  while ( GCLK->STATUS.reg & GCLK_STATUS_SYNCBUSY )
    1ca0:	46c0      	nop			; (mov r8, r8)
    1ca2:	4b31      	ldr	r3, [pc, #196]	; (1d68 <SystemInit+0x1f4>)
    1ca4:	785b      	ldrb	r3, [r3, #1]
    1ca6:	b2db      	uxtb	r3, r3
    1ca8:	b25b      	sxtb	r3, r3
    1caa:	2b00      	cmp	r3, #0
    1cac:	dbf9      	blt.n	1ca2 <SystemInit+0x12e>
  }

  /* ----------------------------------------------------------------------------------------------
   * 6) Modify PRESCaler value of OSC8M to have 8MHz
   */
  SYSCTRL->OSC8M.bit.PRESC = SYSCTRL_OSC8M_PRESC_1_Val ;
    1cae:	4a2c      	ldr	r2, [pc, #176]	; (1d60 <SystemInit+0x1ec>)
    1cb0:	6a13      	ldr	r3, [r2, #32]
    1cb2:	4932      	ldr	r1, [pc, #200]	; (1d7c <SystemInit+0x208>)
    1cb4:	400b      	ands	r3, r1
    1cb6:	2180      	movs	r1, #128	; 0x80
    1cb8:	0049      	lsls	r1, r1, #1
    1cba:	430b      	orrs	r3, r1
    1cbc:	6213      	str	r3, [r2, #32]
  SYSCTRL->OSC8M.bit.ONDEMAND = 0 ;
    1cbe:	4a28      	ldr	r2, [pc, #160]	; (1d60 <SystemInit+0x1ec>)
    1cc0:	6a13      	ldr	r3, [r2, #32]
    1cc2:	2180      	movs	r1, #128	; 0x80
    1cc4:	438b      	bics	r3, r1
    1cc6:	6213      	str	r3, [r2, #32]

  /* ----------------------------------------------------------------------------------------------
   * 7) Put OSC8M as source for Generic Clock Generator 3
   */
  GCLK->GENDIV.reg = GCLK_GENDIV_ID( GENERIC_CLOCK_GENERATOR_OSC8M ) ; // Generic Clock Generator 3
    1cc8:	4b27      	ldr	r3, [pc, #156]	; (1d68 <SystemInit+0x1f4>)
    1cca:	2203      	movs	r2, #3
    1ccc:	609a      	str	r2, [r3, #8]

  /* Write Generic Clock Generator 3 configuration */
  GCLK->GENCTRL.reg = GCLK_GENCTRL_ID( GENERIC_CLOCK_GENERATOR_OSC8M ) | // Generic Clock Generator 3
    1cce:	4b26      	ldr	r3, [pc, #152]	; (1d68 <SystemInit+0x1f4>)
    1cd0:	4a2b      	ldr	r2, [pc, #172]	; (1d80 <SystemInit+0x20c>)
    1cd2:	605a      	str	r2, [r3, #4]
                      GCLK_GENCTRL_SRC_OSC8M | // Selected source is RC OSC 8MHz (already enabled at reset)
//                      GCLK_GENCTRL_OE | // Output clock to a pin for tests
                      GCLK_GENCTRL_GENEN ;

  while ( GCLK->STATUS.reg & GCLK_STATUS_SYNCBUSY )
    1cd4:	46c0      	nop			; (mov r8, r8)
    1cd6:	4b24      	ldr	r3, [pc, #144]	; (1d68 <SystemInit+0x1f4>)
    1cd8:	785b      	ldrb	r3, [r3, #1]
    1cda:	b2db      	uxtb	r3, r3
    1cdc:	b25b      	sxtb	r3, r3
    1cde:	2b00      	cmp	r3, #0
    1ce0:	dbf9      	blt.n	1cd6 <SystemInit+0x162>

  /*
   * Now that all system clocks are configured, we can set CPU and APBx BUS clocks.
   * There values are normally the one present after Reset.
   */
  PM->CPUSEL.reg  = PM_CPUSEL_CPUDIV_DIV1 ;
    1ce2:	4b1e      	ldr	r3, [pc, #120]	; (1d5c <SystemInit+0x1e8>)
    1ce4:	2200      	movs	r2, #0
    1ce6:	721a      	strb	r2, [r3, #8]
  PM->APBASEL.reg = PM_APBASEL_APBADIV_DIV1_Val ;
    1ce8:	4b1c      	ldr	r3, [pc, #112]	; (1d5c <SystemInit+0x1e8>)
    1cea:	2200      	movs	r2, #0
    1cec:	725a      	strb	r2, [r3, #9]
  PM->APBBSEL.reg = PM_APBBSEL_APBBDIV_DIV1_Val ;
    1cee:	4b1b      	ldr	r3, [pc, #108]	; (1d5c <SystemInit+0x1e8>)
    1cf0:	2200      	movs	r2, #0
    1cf2:	729a      	strb	r2, [r3, #10]
  PM->APBCSEL.reg = PM_APBCSEL_APBCDIV_DIV1_Val ;
    1cf4:	4b19      	ldr	r3, [pc, #100]	; (1d5c <SystemInit+0x1e8>)
    1cf6:	2200      	movs	r2, #0
    1cf8:	72da      	strb	r2, [r3, #11]

  SystemCoreClock=MASTER_CLOCK_FREQ ;
    1cfa:	4b22      	ldr	r3, [pc, #136]	; (1d84 <SystemInit+0x210>)
    1cfc:	4a22      	ldr	r2, [pc, #136]	; (1d88 <SystemInit+0x214>)
    1cfe:	601a      	str	r2, [r3, #0]
  /* ----------------------------------------------------------------------------------------------
   * 8) Load ADC factory calibration values
   */

  // ADC Bias Calibration
  uint32_t bias = (*((uint32_t *) ADC_FUSES_BIASCAL_ADDR) & ADC_FUSES_BIASCAL_Msk) >> ADC_FUSES_BIASCAL_Pos;
    1d00:	4b22      	ldr	r3, [pc, #136]	; (1d8c <SystemInit+0x218>)
    1d02:	681b      	ldr	r3, [r3, #0]
    1d04:	08db      	lsrs	r3, r3, #3
    1d06:	2207      	movs	r2, #7
    1d08:	4013      	ands	r3, r2
    1d0a:	607b      	str	r3, [r7, #4]

  // ADC Linearity bits 4:0
  uint32_t linearity = (*((uint32_t *) ADC_FUSES_LINEARITY_0_ADDR) & ADC_FUSES_LINEARITY_0_Msk) >> ADC_FUSES_LINEARITY_0_Pos;
    1d0c:	4b20      	ldr	r3, [pc, #128]	; (1d90 <SystemInit+0x21c>)
    1d0e:	681b      	ldr	r3, [r3, #0]
    1d10:	0edb      	lsrs	r3, r3, #27
    1d12:	603b      	str	r3, [r7, #0]

  // ADC Linearity bits 7:5
  linearity |= ((*((uint32_t *) ADC_FUSES_LINEARITY_1_ADDR) & ADC_FUSES_LINEARITY_1_Msk) >> ADC_FUSES_LINEARITY_1_Pos) << 5;
    1d14:	4b1d      	ldr	r3, [pc, #116]	; (1d8c <SystemInit+0x218>)
    1d16:	681b      	ldr	r3, [r3, #0]
    1d18:	015b      	lsls	r3, r3, #5
    1d1a:	22ff      	movs	r2, #255	; 0xff
    1d1c:	4013      	ands	r3, r2
    1d1e:	683a      	ldr	r2, [r7, #0]
    1d20:	4313      	orrs	r3, r2
    1d22:	603b      	str	r3, [r7, #0]

  ADC->CALIB.reg = ADC_CALIB_BIAS_CAL(bias) | ADC_CALIB_LINEARITY_CAL(linearity);
    1d24:	491b      	ldr	r1, [pc, #108]	; (1d94 <SystemInit+0x220>)
    1d26:	687b      	ldr	r3, [r7, #4]
    1d28:	b29b      	uxth	r3, r3
    1d2a:	021b      	lsls	r3, r3, #8
    1d2c:	b29a      	uxth	r2, r3
    1d2e:	23e0      	movs	r3, #224	; 0xe0
    1d30:	00db      	lsls	r3, r3, #3
    1d32:	4013      	ands	r3, r2
    1d34:	b29a      	uxth	r2, r3
    1d36:	683b      	ldr	r3, [r7, #0]
    1d38:	b29b      	uxth	r3, r3
    1d3a:	20ff      	movs	r0, #255	; 0xff
    1d3c:	4003      	ands	r3, r0
    1d3e:	b29b      	uxth	r3, r3
    1d40:	4313      	orrs	r3, r2
    1d42:	b29b      	uxth	r3, r3
    1d44:	850b      	strh	r3, [r1, #40]	; 0x28

  /*
   * 9) Disable automatic NVM write operations
   */
  NVMCTRL->CTRLB.bit.MANW = 1;
    1d46:	4a04      	ldr	r2, [pc, #16]	; (1d58 <SystemInit+0x1e4>)
    1d48:	6853      	ldr	r3, [r2, #4]
    1d4a:	2180      	movs	r1, #128	; 0x80
    1d4c:	430b      	orrs	r3, r1
    1d4e:	6053      	str	r3, [r2, #4]
}
    1d50:	46c0      	nop			; (mov r8, r8)
    1d52:	46bd      	mov	sp, r7
    1d54:	b002      	add	sp, #8
    1d56:	bd80      	pop	{r7, pc}
    1d58:	41004000 	.word	0x41004000
    1d5c:	40000400 	.word	0x40000400
    1d60:	40000800 	.word	0x40000800
    1d64:	0000060c 	.word	0x0000060c
    1d68:	40000c00 	.word	0x40000c00
    1d6c:	00010501 	.word	0x00010501
    1d70:	7dff05b8 	.word	0x7dff05b8
    1d74:	00000a04 	.word	0x00000a04
    1d78:	00030700 	.word	0x00030700
    1d7c:	fffffcff 	.word	0xfffffcff
    1d80:	00010603 	.word	0x00010603
    1d84:	20000000 	.word	0x20000000
    1d88:	02dc6c00 	.word	0x02dc6c00
    1d8c:	00806024 	.word	0x00806024
    1d90:	00806020 	.word	0x00806020
    1d94:	42004000 	.word	0x42004000

00001d98 <font_get>:
//
//------------------------------------------------------------------------------

//==============================================================================
font_t * font_get(fontname_t font)
{
    1d98:	b580      	push	{r7, lr}
    1d9a:	b082      	sub	sp, #8
    1d9c:	af00      	add	r7, sp, #0
    1d9e:	0002      	movs	r2, r0
    1da0:	1dfb      	adds	r3, r7, #7
    1da2:	701a      	strb	r2, [r3, #0]
  return(&installed_fonts[font]);
    1da4:	1dfb      	adds	r3, r7, #7
    1da6:	781b      	ldrb	r3, [r3, #0]
    1da8:	00da      	lsls	r2, r3, #3
    1daa:	4b03      	ldr	r3, [pc, #12]	; (1db8 <font_get+0x20>)
    1dac:	18d3      	adds	r3, r2, r3
}
    1dae:	0018      	movs	r0, r3
    1db0:	46bd      	mov	sp, r7
    1db2:	b002      	add	sp, #8
    1db4:	bd80      	pop	{r7, pc}
    1db6:	46c0      	nop			; (mov r8, r8)
    1db8:	20001684 	.word	0x20001684

00001dbc <i2c_init>:
//
//------------------------------------------------------------------------------

//==============================================================================
void i2c_init(void)
{
    1dbc:	b580      	push	{r7, lr}
    1dbe:	af00      	add	r7, sp, #0

	// Set up the SCL Pin
	//Set the direction - it is an output, but we want the input enable on as well
	//so that we can read it at the same time ... because I2C. 
	PORT->Group[I2C_SCL_GROUP].DIRSET.reg = I2C_SCL;
    1dc0:	4b4d      	ldr	r3, [pc, #308]	; (1ef8 <i2c_init+0x13c>)
    1dc2:	2280      	movs	r2, #128	; 0x80
    1dc4:	0412      	lsls	r2, r2, #16
    1dc6:	609a      	str	r2, [r3, #8]
	PORT->Group[I2C_SCL_GROUP].PINCFG[I2C_SCL_PIN].bit.INEN = 1;
    1dc8:	494b      	ldr	r1, [pc, #300]	; (1ef8 <i2c_init+0x13c>)
    1dca:	2257      	movs	r2, #87	; 0x57
    1dcc:	5c8b      	ldrb	r3, [r1, r2]
    1dce:	2002      	movs	r0, #2
    1dd0:	4303      	orrs	r3, r0
    1dd2:	548b      	strb	r3, [r1, r2]
	// Set the pullup
	PORT->Group[I2C_SCL_GROUP].OUTSET.reg = I2C_SCL;
    1dd4:	4b48      	ldr	r3, [pc, #288]	; (1ef8 <i2c_init+0x13c>)
    1dd6:	2280      	movs	r2, #128	; 0x80
    1dd8:	0412      	lsls	r2, r2, #16
    1dda:	619a      	str	r2, [r3, #24]
	PORT->Group[I2C_SCL_GROUP].PINCFG[I2C_SCL_PIN].bit.PULLEN = 1;
    1ddc:	4946      	ldr	r1, [pc, #280]	; (1ef8 <i2c_init+0x13c>)
    1dde:	2257      	movs	r2, #87	; 0x57
    1de0:	5c8b      	ldrb	r3, [r1, r2]
    1de2:	2004      	movs	r0, #4
    1de4:	4303      	orrs	r3, r0
    1de6:	548b      	strb	r3, [r1, r2]
	//Set the PMUX
	PORT->Group[I2C_SCL_GROUP].PINCFG[I2C_SCL_PIN].bit.PMUXEN = 1;
    1de8:	4943      	ldr	r1, [pc, #268]	; (1ef8 <i2c_init+0x13c>)
    1dea:	2257      	movs	r2, #87	; 0x57
    1dec:	5c8b      	ldrb	r3, [r1, r2]
    1dee:	2001      	movs	r0, #1
    1df0:	4303      	orrs	r3, r0
    1df2:	548b      	strb	r3, [r1, r2]
    if (I2C_SCL_PIN & 1)								
	  PORT->Group[I2C_SCL_GROUP].PMUX[I2C_SCL_PMUX].bit.PMUXO = I2C_SERCOM_PMUX;		
    1df4:	4940      	ldr	r1, [pc, #256]	; (1ef8 <i2c_init+0x13c>)
    1df6:	223b      	movs	r2, #59	; 0x3b
    1df8:	5c8b      	ldrb	r3, [r1, r2]
    1dfa:	200f      	movs	r0, #15
    1dfc:	4003      	ands	r3, r0
    1dfe:	1c18      	adds	r0, r3, #0
    1e00:	2320      	movs	r3, #32
    1e02:	4303      	orrs	r3, r0
    1e04:	548b      	strb	r3, [r1, r2]


    // Set up the SDA PIN
	//Set the direction - it is an output, but we want the input enable on as well
	//so that we can read it at the same time ... because I2C.
	PORT->Group[I2C_SDA_GROUP].DIRSET.reg = I2C_SDA;
    1e06:	4b3c      	ldr	r3, [pc, #240]	; (1ef8 <i2c_init+0x13c>)
    1e08:	2280      	movs	r2, #128	; 0x80
    1e0a:	03d2      	lsls	r2, r2, #15
    1e0c:	609a      	str	r2, [r3, #8]
	PORT->Group[I2C_SDA_GROUP].PINCFG[I2C_SDA_PIN].bit.INEN = 1;
    1e0e:	493a      	ldr	r1, [pc, #232]	; (1ef8 <i2c_init+0x13c>)
    1e10:	2256      	movs	r2, #86	; 0x56
    1e12:	5c8b      	ldrb	r3, [r1, r2]
    1e14:	2002      	movs	r0, #2
    1e16:	4303      	orrs	r3, r0
    1e18:	548b      	strb	r3, [r1, r2]
	// Set the pullup
	PORT->Group[I2C_SDA_GROUP].OUTSET.reg = I2C_SDA;
    1e1a:	4b37      	ldr	r3, [pc, #220]	; (1ef8 <i2c_init+0x13c>)
    1e1c:	2280      	movs	r2, #128	; 0x80
    1e1e:	03d2      	lsls	r2, r2, #15
    1e20:	619a      	str	r2, [r3, #24]
	PORT->Group[I2C_SDA_GROUP].PINCFG[I2C_SDA_PIN].bit.PULLEN = 1;
    1e22:	4935      	ldr	r1, [pc, #212]	; (1ef8 <i2c_init+0x13c>)
    1e24:	2256      	movs	r2, #86	; 0x56
    1e26:	5c8b      	ldrb	r3, [r1, r2]
    1e28:	2004      	movs	r0, #4
    1e2a:	4303      	orrs	r3, r0
    1e2c:	548b      	strb	r3, [r1, r2]
	//Set the PMUX
	PORT->Group[I2C_SDA_GROUP].PINCFG[I2C_SDA_PIN].bit.PMUXEN = 1;
    1e2e:	4932      	ldr	r1, [pc, #200]	; (1ef8 <i2c_init+0x13c>)
    1e30:	2256      	movs	r2, #86	; 0x56
    1e32:	5c8b      	ldrb	r3, [r1, r2]
    1e34:	2001      	movs	r0, #1
    1e36:	4303      	orrs	r3, r0
    1e38:	548b      	strb	r3, [r1, r2]
	if (I2C_SDA_PIN & 1)
	PORT->Group[I2C_SDA_GROUP].PMUX[I2C_SDA_PMUX].bit.PMUXO = I2C_SERCOM_PMUX;
	else
	PORT->Group[I2C_SDA_GROUP].PMUX[I2C_SDA_PMUX].bit.PMUXE = I2C_SERCOM_PMUX;
    1e3a:	492f      	ldr	r1, [pc, #188]	; (1ef8 <i2c_init+0x13c>)
    1e3c:	223b      	movs	r2, #59	; 0x3b
    1e3e:	5c8b      	ldrb	r3, [r1, r2]
    1e40:	200f      	movs	r0, #15
    1e42:	4383      	bics	r3, r0
    1e44:	1c18      	adds	r0, r3, #0
    1e46:	2302      	movs	r3, #2
    1e48:	4303      	orrs	r3, r0
    1e4a:	548b      	strb	r3, [r1, r2]
	
	// Turn on the clock
	PM->APBCMASK.reg |= I2C_SERCOM_APBCMASK;
    1e4c:	4b2b      	ldr	r3, [pc, #172]	; (1efc <i2c_init+0x140>)
    1e4e:	4a2b      	ldr	r2, [pc, #172]	; (1efc <i2c_init+0x140>)
    1e50:	6a12      	ldr	r2, [r2, #32]
    1e52:	2120      	movs	r1, #32
    1e54:	430a      	orrs	r2, r1
    1e56:	621a      	str	r2, [r3, #32]

    // Configure the clock
	GCLK->CLKCTRL.reg = GCLK_CLKCTRL_ID(I2C_SERCOM_GCLK_ID) |
    1e58:	4b29      	ldr	r3, [pc, #164]	; (1f00 <i2c_init+0x144>)
    1e5a:	4a2a      	ldr	r2, [pc, #168]	; (1f04 <i2c_init+0x148>)
    1e5c:	805a      	strh	r2, [r3, #2]
	                    GCLK_CLKCTRL_CLKEN | 
						GCLK_CLKCTRL_GEN(I2C_SERCOM_CLK_GEN);

    //Turn off the I2C enable so that we can write the protected registers
	I2C_SERCOM->I2CM.CTRLA.bit.ENABLE = 0;
    1e5e:	4a2a      	ldr	r2, [pc, #168]	; (1f08 <i2c_init+0x14c>)
    1e60:	6813      	ldr	r3, [r2, #0]
    1e62:	2102      	movs	r1, #2
    1e64:	438b      	bics	r3, r1
    1e66:	6013      	str	r3, [r2, #0]
	while (I2C_SERCOM->I2CM.SYNCBUSY.reg);
    1e68:	46c0      	nop			; (mov r8, r8)
    1e6a:	4b27      	ldr	r3, [pc, #156]	; (1f08 <i2c_init+0x14c>)
    1e6c:	69db      	ldr	r3, [r3, #28]
    1e6e:	2b00      	cmp	r3, #0
    1e70:	d1fb      	bne.n	1e6a <i2c_init+0xae>

	// Turn on smart mode (because it is smart)
	I2C_SERCOM->I2CM.CTRLB.bit.SMEN = 1;
    1e72:	4a25      	ldr	r2, [pc, #148]	; (1f08 <i2c_init+0x14c>)
    1e74:	6853      	ldr	r3, [r2, #4]
    1e76:	2180      	movs	r1, #128	; 0x80
    1e78:	0049      	lsls	r1, r1, #1
    1e7a:	430b      	orrs	r3, r1
    1e7c:	6053      	str	r3, [r2, #4]
	while (I2C_SERCOM->I2CM.SYNCBUSY.reg);
    1e7e:	46c0      	nop			; (mov r8, r8)
    1e80:	4b21      	ldr	r3, [pc, #132]	; (1f08 <i2c_init+0x14c>)
    1e82:	69db      	ldr	r3, [r3, #28]
    1e84:	2b00      	cmp	r3, #0
    1e86:	d1fb      	bne.n	1e80 <i2c_init+0xc4>
    // Set the baud rate - this is a confusing little formula as 
	// it involves the actual rise time of SCL on the board
	// We would need to measure this to predict the outcome,
	// Or, we can just change it until we like it. 
	// See 27.6.2.4 of the datasheet.
	I2C_SERCOM->I2CM.BAUD.reg = SERCOM_I2CM_BAUD_BAUD(232);
    1e88:	4b1f      	ldr	r3, [pc, #124]	; (1f08 <i2c_init+0x14c>)
    1e8a:	22e8      	movs	r2, #232	; 0xe8
    1e8c:	60da      	str	r2, [r3, #12]
	while (I2C_SERCOM->I2CM.SYNCBUSY.reg);
    1e8e:	46c0      	nop			; (mov r8, r8)
    1e90:	4b1d      	ldr	r3, [pc, #116]	; (1f08 <i2c_init+0x14c>)
    1e92:	69db      	ldr	r3, [r3, #28]
    1e94:	2b00      	cmp	r3, #0
    1e96:	d1fb      	bne.n	1e90 <i2c_init+0xd4>

    // Set us up as a Master
	I2C_SERCOM->I2CM.CTRLA.bit.MODE = SERCOM_I2CM_CTRLA_MODE_I2C_MASTER_Val;
    1e98:	4a1b      	ldr	r2, [pc, #108]	; (1f08 <i2c_init+0x14c>)
    1e9a:	6813      	ldr	r3, [r2, #0]
    1e9c:	211c      	movs	r1, #28
    1e9e:	438b      	bics	r3, r1
    1ea0:	2114      	movs	r1, #20
    1ea2:	430b      	orrs	r3, r1
    1ea4:	6013      	str	r3, [r2, #0]
	while (I2C_SERCOM->I2CM.SYNCBUSY.reg);
    1ea6:	46c0      	nop			; (mov r8, r8)
    1ea8:	4b17      	ldr	r3, [pc, #92]	; (1f08 <i2c_init+0x14c>)
    1eaa:	69db      	ldr	r3, [r3, #28]
    1eac:	2b00      	cmp	r3, #0
    1eae:	d1fb      	bne.n	1ea8 <i2c_init+0xec>
	
	// Set the hold time to 600ns
	I2C_SERCOM->I2CM.CTRLA.bit.SDAHOLD == 3;
    1eb0:	4b15      	ldr	r3, [pc, #84]	; (1f08 <i2c_init+0x14c>)
    1eb2:	681b      	ldr	r3, [r3, #0]
    1eb4:	029b      	lsls	r3, r3, #10
    1eb6:	0f9b      	lsrs	r3, r3, #30
	while (I2C_SERCOM->I2CM.SYNCBUSY.reg);
    1eb8:	46c0      	nop			; (mov r8, r8)
    1eba:	4b13      	ldr	r3, [pc, #76]	; (1f08 <i2c_init+0x14c>)
    1ebc:	69db      	ldr	r3, [r3, #28]
    1ebe:	2b00      	cmp	r3, #0
    1ec0:	d1fb      	bne.n	1eba <i2c_init+0xfe>

    //Turn on the I2C enable 
	I2C_SERCOM->I2CM.CTRLA.bit.ENABLE = 1;
    1ec2:	4a11      	ldr	r2, [pc, #68]	; (1f08 <i2c_init+0x14c>)
    1ec4:	6813      	ldr	r3, [r2, #0]
    1ec6:	2102      	movs	r1, #2
    1ec8:	430b      	orrs	r3, r1
    1eca:	6013      	str	r3, [r2, #0]
	while (I2C_SERCOM->I2CM.SYNCBUSY.reg);
    1ecc:	46c0      	nop			; (mov r8, r8)
    1ece:	4b0e      	ldr	r3, [pc, #56]	; (1f08 <i2c_init+0x14c>)
    1ed0:	69db      	ldr	r3, [r3, #28]
    1ed2:	2b00      	cmp	r3, #0
    1ed4:	d1fb      	bne.n	1ece <i2c_init+0x112>

	// Set the bus state to be IDLE (this has to be after the enable)
	I2C_SERCOM->I2CM.STATUS.reg |= SERCOM_I2CM_STATUS_BUSSTATE(1);
    1ed6:	4a0c      	ldr	r2, [pc, #48]	; (1f08 <i2c_init+0x14c>)
    1ed8:	4b0b      	ldr	r3, [pc, #44]	; (1f08 <i2c_init+0x14c>)
    1eda:	8b5b      	ldrh	r3, [r3, #26]
    1edc:	b29b      	uxth	r3, r3
    1ede:	2110      	movs	r1, #16
    1ee0:	430b      	orrs	r3, r1
    1ee2:	b29b      	uxth	r3, r3
    1ee4:	8353      	strh	r3, [r2, #26]
	while (I2C_SERCOM->I2CM.SYNCBUSY.reg);
    1ee6:	46c0      	nop			; (mov r8, r8)
    1ee8:	4b07      	ldr	r3, [pc, #28]	; (1f08 <i2c_init+0x14c>)
    1eea:	69db      	ldr	r3, [r3, #28]
    1eec:	2b00      	cmp	r3, #0
    1eee:	d1fb      	bne.n	1ee8 <i2c_init+0x12c>
}
    1ef0:	46c0      	nop			; (mov r8, r8)
    1ef2:	46bd      	mov	sp, r7
    1ef4:	bd80      	pop	{r7, pc}
    1ef6:	46c0      	nop			; (mov r8, r8)
    1ef8:	41004400 	.word	0x41004400
    1efc:	40000400 	.word	0x40000400
    1f00:	40000c00 	.word	0x40000c00
    1f04:	00004017 	.word	0x00004017
    1f08:	42001400 	.word	0x42001400

00001f0c <i2c_write>:

//==============================================================================
uint8_t i2c_write(uint8_t addr, uint8_t *data, int size)
{
    1f0c:	b580      	push	{r7, lr}
    1f0e:	b086      	sub	sp, #24
    1f10:	af00      	add	r7, sp, #0
    1f12:	60b9      	str	r1, [r7, #8]
    1f14:	607a      	str	r2, [r7, #4]
    1f16:	230f      	movs	r3, #15
    1f18:	18fb      	adds	r3, r7, r3
    1f1a:	1c02      	adds	r2, r0, #0
    1f1c:	701a      	strb	r2, [r3, #0]
    // Send the address
	I2C_SERCOM->I2CM.ADDR.reg = addr | I2C_TRANSFER_WRITE;
    1f1e:	4b29      	ldr	r3, [pc, #164]	; (1fc4 <i2c_write+0xb8>)
    1f20:	220f      	movs	r2, #15
    1f22:	18ba      	adds	r2, r7, r2
    1f24:	7812      	ldrb	r2, [r2, #0]
    1f26:	625a      	str	r2, [r3, #36]	; 0x24

	while (0 == (I2C_SERCOM->I2CM.INTFLAG.reg & SERCOM_I2CM_INTFLAG_MB));
    1f28:	46c0      	nop			; (mov r8, r8)
    1f2a:	4b26      	ldr	r3, [pc, #152]	; (1fc4 <i2c_write+0xb8>)
    1f2c:	7e1b      	ldrb	r3, [r3, #24]
    1f2e:	b2db      	uxtb	r3, r3
    1f30:	001a      	movs	r2, r3
    1f32:	2301      	movs	r3, #1
    1f34:	4013      	ands	r3, r2
    1f36:	d0f8      	beq.n	1f2a <i2c_write+0x1e>

	if (I2C_SERCOM->I2CM.STATUS.reg & SERCOM_I2CM_STATUS_RXNACK)
    1f38:	4b22      	ldr	r3, [pc, #136]	; (1fc4 <i2c_write+0xb8>)
    1f3a:	8b5b      	ldrh	r3, [r3, #26]
    1f3c:	b29b      	uxth	r3, r3
    1f3e:	001a      	movs	r2, r3
    1f40:	2304      	movs	r3, #4
    1f42:	4013      	ands	r3, r2
    1f44:	d008      	beq.n	1f58 <i2c_write+0x4c>
	{
		I2C_SERCOM->I2CM.CTRLB.reg |= SERCOM_I2CM_CTRLB_CMD(3);
    1f46:	4b1f      	ldr	r3, [pc, #124]	; (1fc4 <i2c_write+0xb8>)
    1f48:	4a1e      	ldr	r2, [pc, #120]	; (1fc4 <i2c_write+0xb8>)
    1f4a:	6852      	ldr	r2, [r2, #4]
    1f4c:	21c0      	movs	r1, #192	; 0xc0
    1f4e:	0289      	lsls	r1, r1, #10
    1f50:	430a      	orrs	r2, r1
    1f52:	605a      	str	r2, [r3, #4]
		return false;
    1f54:	2300      	movs	r3, #0
    1f56:	e031      	b.n	1fbc <i2c_write+0xb0>
	}

	for (int i = 0; i < size; i++)
    1f58:	2300      	movs	r3, #0
    1f5a:	617b      	str	r3, [r7, #20]
    1f5c:	e021      	b.n	1fa2 <i2c_write+0x96>
	{
		I2C_SERCOM->I2CM.DATA.reg = data[i];
    1f5e:	4919      	ldr	r1, [pc, #100]	; (1fc4 <i2c_write+0xb8>)
    1f60:	697b      	ldr	r3, [r7, #20]
    1f62:	68ba      	ldr	r2, [r7, #8]
    1f64:	18d3      	adds	r3, r2, r3
    1f66:	781a      	ldrb	r2, [r3, #0]
    1f68:	2328      	movs	r3, #40	; 0x28
    1f6a:	54ca      	strb	r2, [r1, r3]

		while (0 == (I2C_SERCOM->I2CM.INTFLAG.reg & SERCOM_I2CM_INTFLAG_MB));
    1f6c:	46c0      	nop			; (mov r8, r8)
    1f6e:	4b15      	ldr	r3, [pc, #84]	; (1fc4 <i2c_write+0xb8>)
    1f70:	7e1b      	ldrb	r3, [r3, #24]
    1f72:	b2db      	uxtb	r3, r3
    1f74:	001a      	movs	r2, r3
    1f76:	2301      	movs	r3, #1
    1f78:	4013      	ands	r3, r2
    1f7a:	d0f8      	beq.n	1f6e <i2c_write+0x62>

		if (I2C_SERCOM->I2CM.STATUS.reg & SERCOM_I2CM_STATUS_RXNACK)
    1f7c:	4b11      	ldr	r3, [pc, #68]	; (1fc4 <i2c_write+0xb8>)
    1f7e:	8b5b      	ldrh	r3, [r3, #26]
    1f80:	b29b      	uxth	r3, r3
    1f82:	001a      	movs	r2, r3
    1f84:	2304      	movs	r3, #4
    1f86:	4013      	ands	r3, r2
    1f88:	d008      	beq.n	1f9c <i2c_write+0x90>
		{
			I2C_SERCOM->I2CM.CTRLB.reg |= SERCOM_I2CM_CTRLB_CMD(3);
    1f8a:	4b0e      	ldr	r3, [pc, #56]	; (1fc4 <i2c_write+0xb8>)
    1f8c:	4a0d      	ldr	r2, [pc, #52]	; (1fc4 <i2c_write+0xb8>)
    1f8e:	6852      	ldr	r2, [r2, #4]
    1f90:	21c0      	movs	r1, #192	; 0xc0
    1f92:	0289      	lsls	r1, r1, #10
    1f94:	430a      	orrs	r2, r1
    1f96:	605a      	str	r2, [r3, #4]
			return false;
    1f98:	2300      	movs	r3, #0
    1f9a:	e00f      	b.n	1fbc <i2c_write+0xb0>
	for (int i = 0; i < size; i++)
    1f9c:	697b      	ldr	r3, [r7, #20]
    1f9e:	3301      	adds	r3, #1
    1fa0:	617b      	str	r3, [r7, #20]
    1fa2:	697a      	ldr	r2, [r7, #20]
    1fa4:	687b      	ldr	r3, [r7, #4]
    1fa6:	429a      	cmp	r2, r3
    1fa8:	dbd9      	blt.n	1f5e <i2c_write+0x52>
		}
	}

	I2C_SERCOM->I2CM.CTRLB.reg |= SERCOM_I2CM_CTRLB_CMD(3);
    1faa:	4b06      	ldr	r3, [pc, #24]	; (1fc4 <i2c_write+0xb8>)
    1fac:	4a05      	ldr	r2, [pc, #20]	; (1fc4 <i2c_write+0xb8>)
    1fae:	6852      	ldr	r2, [r2, #4]
    1fb0:	21c0      	movs	r1, #192	; 0xc0
    1fb2:	0289      	lsls	r1, r1, #10
    1fb4:	430a      	orrs	r2, r1
    1fb6:	605a      	str	r2, [r3, #4]

	return size;
    1fb8:	687b      	ldr	r3, [r7, #4]
    1fba:	b2db      	uxtb	r3, r3
}
    1fbc:	0018      	movs	r0, r3
    1fbe:	46bd      	mov	sp, r7
    1fc0:	b006      	add	sp, #24
    1fc2:	bd80      	pop	{r7, pc}
    1fc4:	42001400 	.word	0x42001400

00001fc8 <i2c_read_setup>:

//==============================================================================
uint8_t i2c_read_setup(uint8_t addr, uint8_t *data, int size)
{
    1fc8:	b580      	push	{r7, lr}
    1fca:	b086      	sub	sp, #24
    1fcc:	af00      	add	r7, sp, #0
    1fce:	60b9      	str	r1, [r7, #8]
    1fd0:	607a      	str	r2, [r7, #4]
    1fd2:	230f      	movs	r3, #15
    1fd4:	18fb      	adds	r3, r7, r3
    1fd6:	1c02      	adds	r2, r0, #0
    1fd8:	701a      	strb	r2, [r3, #0]
	// Send the address
	I2C_SERCOM->I2CM.ADDR.reg = addr | I2C_TRANSFER_WRITE;
    1fda:	4b29      	ldr	r3, [pc, #164]	; (2080 <STACK_SIZE+0x80>)
    1fdc:	220f      	movs	r2, #15
    1fde:	18ba      	adds	r2, r7, r2
    1fe0:	7812      	ldrb	r2, [r2, #0]
    1fe2:	625a      	str	r2, [r3, #36]	; 0x24

	while (0 == (I2C_SERCOM->I2CM.INTFLAG.reg & SERCOM_I2CM_INTFLAG_MB));
    1fe4:	46c0      	nop			; (mov r8, r8)
    1fe6:	4b26      	ldr	r3, [pc, #152]	; (2080 <STACK_SIZE+0x80>)
    1fe8:	7e1b      	ldrb	r3, [r3, #24]
    1fea:	b2db      	uxtb	r3, r3
    1fec:	001a      	movs	r2, r3
    1fee:	2301      	movs	r3, #1
    1ff0:	4013      	ands	r3, r2
    1ff2:	d0f8      	beq.n	1fe6 <i2c_read_setup+0x1e>

	if (I2C_SERCOM->I2CM.STATUS.reg & SERCOM_I2CM_STATUS_RXNACK)
    1ff4:	4b22      	ldr	r3, [pc, #136]	; (2080 <STACK_SIZE+0x80>)
    1ff6:	8b5b      	ldrh	r3, [r3, #26]
    1ff8:	b29b      	uxth	r3, r3
    1ffa:	001a      	movs	r2, r3
    1ffc:	2304      	movs	r3, #4
    1ffe:	4013      	ands	r3, r2
    2000:	d008      	beq.n	2014 <STACK_SIZE+0x14>
	{
		I2C_SERCOM->I2CM.CTRLB.reg |= SERCOM_I2CM_CTRLB_CMD(3);
    2002:	4b1f      	ldr	r3, [pc, #124]	; (2080 <STACK_SIZE+0x80>)
    2004:	4a1e      	ldr	r2, [pc, #120]	; (2080 <STACK_SIZE+0x80>)
    2006:	6852      	ldr	r2, [r2, #4]
    2008:	21c0      	movs	r1, #192	; 0xc0
    200a:	0289      	lsls	r1, r1, #10
    200c:	430a      	orrs	r2, r1
    200e:	605a      	str	r2, [r3, #4]
		return false;
    2010:	2300      	movs	r3, #0
    2012:	e031      	b.n	2078 <STACK_SIZE+0x78>
	}

	for (int i = 0; i < size; i++)
    2014:	2300      	movs	r3, #0
    2016:	617b      	str	r3, [r7, #20]
    2018:	e021      	b.n	205e <STACK_SIZE+0x5e>
	{
		I2C_SERCOM->I2CM.DATA.reg = data[i];
    201a:	4919      	ldr	r1, [pc, #100]	; (2080 <STACK_SIZE+0x80>)
    201c:	697b      	ldr	r3, [r7, #20]
    201e:	68ba      	ldr	r2, [r7, #8]
    2020:	18d3      	adds	r3, r2, r3
    2022:	781a      	ldrb	r2, [r3, #0]
    2024:	2328      	movs	r3, #40	; 0x28
    2026:	54ca      	strb	r2, [r1, r3]

		while (0 == (I2C_SERCOM->I2CM.INTFLAG.reg & SERCOM_I2CM_INTFLAG_MB));
    2028:	46c0      	nop			; (mov r8, r8)
    202a:	4b15      	ldr	r3, [pc, #84]	; (2080 <STACK_SIZE+0x80>)
    202c:	7e1b      	ldrb	r3, [r3, #24]
    202e:	b2db      	uxtb	r3, r3
    2030:	001a      	movs	r2, r3
    2032:	2301      	movs	r3, #1
    2034:	4013      	ands	r3, r2
    2036:	d0f8      	beq.n	202a <STACK_SIZE+0x2a>

		if (I2C_SERCOM->I2CM.STATUS.reg & SERCOM_I2CM_STATUS_RXNACK)
    2038:	4b11      	ldr	r3, [pc, #68]	; (2080 <STACK_SIZE+0x80>)
    203a:	8b5b      	ldrh	r3, [r3, #26]
    203c:	b29b      	uxth	r3, r3
    203e:	001a      	movs	r2, r3
    2040:	2304      	movs	r3, #4
    2042:	4013      	ands	r3, r2
    2044:	d008      	beq.n	2058 <STACK_SIZE+0x58>
		{
			I2C_SERCOM->I2CM.CTRLB.reg |= SERCOM_I2CM_CTRLB_CMD(3);
    2046:	4b0e      	ldr	r3, [pc, #56]	; (2080 <STACK_SIZE+0x80>)
    2048:	4a0d      	ldr	r2, [pc, #52]	; (2080 <STACK_SIZE+0x80>)
    204a:	6852      	ldr	r2, [r2, #4]
    204c:	21c0      	movs	r1, #192	; 0xc0
    204e:	0289      	lsls	r1, r1, #10
    2050:	430a      	orrs	r2, r1
    2052:	605a      	str	r2, [r3, #4]
			return false;
    2054:	2300      	movs	r3, #0
    2056:	e00f      	b.n	2078 <STACK_SIZE+0x78>
	for (int i = 0; i < size; i++)
    2058:	697b      	ldr	r3, [r7, #20]
    205a:	3301      	adds	r3, #1
    205c:	617b      	str	r3, [r7, #20]
    205e:	697a      	ldr	r2, [r7, #20]
    2060:	687b      	ldr	r3, [r7, #4]
    2062:	429a      	cmp	r2, r3
    2064:	dbd9      	blt.n	201a <STACK_SIZE+0x1a>
		}
	}

    // Issue a restart instead
	I2C_SERCOM->I2CM.CTRLB.reg |= SERCOM_I2CM_CTRLB_CMD(1);
    2066:	4b06      	ldr	r3, [pc, #24]	; (2080 <STACK_SIZE+0x80>)
    2068:	4a05      	ldr	r2, [pc, #20]	; (2080 <STACK_SIZE+0x80>)
    206a:	6852      	ldr	r2, [r2, #4]
    206c:	2180      	movs	r1, #128	; 0x80
    206e:	0249      	lsls	r1, r1, #9
    2070:	430a      	orrs	r2, r1
    2072:	605a      	str	r2, [r3, #4]

	return size;
    2074:	687b      	ldr	r3, [r7, #4]
    2076:	b2db      	uxtb	r3, r3
}
    2078:	0018      	movs	r0, r3
    207a:	46bd      	mov	sp, r7
    207c:	b006      	add	sp, #24
    207e:	bd80      	pop	{r7, pc}
    2080:	42001400 	.word	0x42001400

00002084 <i2c_read>:


//==============================================================================
uint8_t i2c_read(uint8_t addr, uint8_t *data, int size)
{
    2084:	b580      	push	{r7, lr}
    2086:	b086      	sub	sp, #24
    2088:	af00      	add	r7, sp, #0
    208a:	60b9      	str	r1, [r7, #8]
    208c:	607a      	str	r2, [r7, #4]
    208e:	230f      	movs	r3, #15
    2090:	18fb      	adds	r3, r7, r3
    2092:	1c02      	adds	r2, r0, #0
    2094:	701a      	strb	r2, [r3, #0]
	I2C_SERCOM->I2CM.ADDR.reg = addr | I2C_TRANSFER_READ;
    2096:	4b30      	ldr	r3, [pc, #192]	; (2158 <i2c_read+0xd4>)
    2098:	220f      	movs	r2, #15
    209a:	18ba      	adds	r2, r7, r2
    209c:	7812      	ldrb	r2, [r2, #0]
    209e:	2101      	movs	r1, #1
